:020000040800F2
:1000000008060020ED0100086129000865110008BC
:100010005D290008ED080008FD2A00080000000026
:100020000000000000000000000000006929000836
:10003000F108000800000000652900086D2900088B
:10004000070200080702000807020008070200086C
:10005000070200080702000807020008070200085C
:10006000070200080702000807020008070200084C
:10007000070200080702000807020008070200083C
:1000800007020008000000006508000807020008D9
:10009000070200080109000807020008070200081B
:1000A000070200080702000807020008070200080C
:1000B00007020008070200080702000807020008FC
:1000C00007020008070200080702000807020008EC
:1000D00007020008070200080702000807020008DC
:1000E00007020008070200080702000807020008CC
:1000F00007020008070200080702000800000000CD
:1001000000000000070200080000000007020008CD
:1001100007020008000000000702000807020008AC
:10012000070200080702000807020008070200088B
:10013000070200080000000000000000070200089D
:10014000070200080702000800000000000000008D
:10015000000000000000000000000000000000009F
:10016000000000000000000000000000070200087E
:10017000070200080000000000000000000000006E
:10018000000000000702000800000000000000005E
:10019000000000000000000000000000000000005F
:1001A000000000000000000007020008070200082D
:1001B000070200080702000807020008000000000C
:1001C000000000000702000800000000000000001E
:1001D0000702000807020008DFF80CD000F09CFAC4
:1001E0000048004769340008080600200648804798
:1001F00006480047FEE7FEE7FEE7FEE7FEE7FEE70C
:10020000FEE7FEE7FEE7FEE7E92A0008D90100085D
:10021000D2B201E000F8012B491EFBD27047002248
:10022000F6E710B513460A4604461946FFF7F0FFF5
:10023000204610BD00F0004230F000400AD0C10D51
:1002400001F56071C0F3160042EA0151C20840078F
:100250001143704700200146704730B50B460146F8
:1002600000202022012409E021FA02F59D4205D355
:1002700003FA02F5491B04FA02F52844151EA2F1FF
:100280000102F1DC30BD2DE9F05F05460020924609
:100290009B4688460646814640241BE02846414648
:1002A0004746224600F05FFA53465A46C01A91412B
:1002B00010D311461846224600F046FA2D1A67EB75
:1002C00001084F4622460120002100F03DFA17EBBD
:1002D00000094E41201EA4F10104DFDC48463146EE
:1002E0002A464346BDE8F09F0029A8BF7047401C3E
:1002F000490008BF20F00100704710B4B0FA80FC3C
:1003000000FA0CF050EA010404BF10BC704749B178
:10031000CCF1200421FA04F411FA0CF118BF0121E8
:1003200021430843A3EB0C01CB1D4FEA00614FEAC8
:10033000102042BF002010BC704700EBC350104497
:100340000029A4BF10BC7047401C490008BF20F022
:10035000010010BC7047F0B400F0004221F00041F1
:1003600020F00040CE0DC30DC1F3160141F4000191
:10037000C0F316004C42154640F40000761E09E01A
:1003800010EB440002D582F0004240428842F7D888
:1003900040005B1EB342F9DA18B1F0BC0021FFF750
:1003A000ACBF2846F0BC70472DE9FE4F804681EA7D
:1003B0000300C00F0C46009021F0004123F00045DF
:1003C000B8EB0200A94105D24046214690461C46A2
:1003D0000B46024623F00040104347D0270DC7F3D9
:1003E0000A00C3F30A510290401A019040286BDAC8
:1003F000C3F3130040F4801B0098924620B1002301
:10040000D2EB030A63EB0B0B01985946C0F1400293
:10041000504600F099F906460D4650465946019A55
:1004200000F0B1F910EB08006141002487EA115295
:1004300084EAE7731A4340D0009A62B3019A012A12
:100440004FEA075215DC001B61EB02014FF000423E
:1004500002EA0752CDE90042001C41F58011324604
:100460002B4600F0B1F903B0BDE8F08F40462146BD
:10047000F9E7001B61EB0201001C41F58013001835
:100480005B412018A2F5001747EB030140EAD57045
:10049000B6196D4111E06D084FEA360645EAC075A0
:1004A0004FEA0752001B61EB0201001C41F580116D
:1004B00049084FEA30000019514132462B4603B03B
:1004C000BDE8F04F00F071B9009801224000002310
:1004D000D0EB020263EBE073009821464FEAE07430
:1004E000B8EB000061EB0401E9E783F000435BE750
:1004F00081F0004158E72DE9FE4F81EA030404F042
:10050000004421F0004100944FF0000B23F0004321
:1005100050EA01045ED052EA03045BD0C3F30A54EC
:10052000C1F30A552C44A4F2F3340194A0FB025405
:10053000C1F3130141F48011C3F3130343F4801397
:1005400001FB024400FB034E840A970A44EA8154EB
:1005500047EA8357A4FB076802958D0A05FB0785C8
:100560004FEA932C04FB0C542705029D4FEA0658D2
:1005700047EA1637B5EB08056EEB070C870E920EAF
:1005800047EA811742EA8312A7FB0201B6EB0B018F
:1005900064EB00042B0D43EA0C335E1844EB1C5053
:1005A000DA465146E7FB0201C5F313044FEA0B3369
:1005B00043EA14534FEA0432019C43EA0603A4F1D0
:1005C0000C040294009CCDE900B400F0FDF803B0E7
:1005D000BDE8F08F00200146F9E72DE9F04D81EAF2
:1005E000030404F0004B21F0004514464FF0000ACC
:1005F00023F0004150EA050220D054EA01021DD048
:10060000C5F30A570246C5F31303C1F31300C1F340
:100610000A5640F4801543F48013A7EB0608101B1C
:10062000D64608F2FD3873EB050002D308F1010845
:1006300001E092185B41B8F1000F03DA0020014697
:10064000BDE8F08D00204FF48011064684460EE090
:10065000171B73EB050705D3121B63EB050306435A
:100660004CEA010C49084FEA300092185B4150EA0D
:100670000107EDD152EA030012D082EA040083EAB6
:100680000501084305D0101BAB4106D2012200230F
:1006900006E000224FF0004302E06FF00102531029
:1006A0001AEB06004CEB085110EB0A0041EB0B0172
:1006B000BDE8F04D00F079B8C1F30A52C1F313015F
:1006C00040F2FF3341F480119A4202DA00200146E1
:1006D000704740F233439A42A2F2334202DC524264
:1006E00000F041B800F030B830B5041E71F10004DC
:1006F00004DB4FF00044404264EB0101141E73F12F
:10070000000405DB1C464FF00043524263EB040338
:10071000994208BF904230BD1CB509480090094875
:1007200001900546009C06E0E06840F0010394E873
:10073000070098471034AC42F6D3FFF751FD000094
:10074000804B0008A04B0008202A04DB203A00FA66
:1007500002F1002070479140C2F1200320FA03F318
:10076000194390407047202A04DB203A21FA02F016
:100770000021704721FA02F3D040C2F120029140DB
:10078000084319467047202A06DBCB17203A41FA66
:1007900002F043EAE07306E041FA02F3D040C2F10E
:1007A0002002914008431946704710B5141E73F19A
:1007B000000408DA401C41F1000192185B411A4321
:1007C00001D120F0010010BD2DE9F04D92469B466D
:1007D00011B1B1FA81F202E0B0FA80F22032904613
:1007E000FFF7B2FF04460F4640EA0A0041EA0B0158
:1007F00053465A46084313D0114653EA010019D014
:10080000C8F140025046FFF7AEFF05460E4650467F
:1008100059464246FFF798FF084305D0012004E0FF
:1008200020463946BDE8F08D0020054346EAE076D3
:100830002C4337430A986305E40AA0EB0800002222
:10084000FD0A44EA47540A3002D500200146E9E790
:10085000010510196941DDE9084500196941BDE844
:10086000F04DA2E74FF0A0400168490658BF70471D
:10087000402101608021C5F2000108689FED1A1A2D
:10088000C0F5006240F27400C2F2000082814B6841
:1008900012B2C3F50063C381896800EE102AC1F566
:1008A00000611BB20FFA81FC0182B8EEC00A40F26F
:1008B000040120EE010A02EE103A03EE10CAC2F261
:1008C0000001B8EEC22AB8EEC33A80ED000A91ECFE
:1008D000020A22EE012A23EE011A80ED012A80EDA0
:1008E000021A02F04BBD00BF022B8737FEE7000063
:1008F00070470000EFF3108072B600BFFEE7000003
:1009000040F2A010C2F2000000F042B880B500F042
:1009100069FB02F02DF801F0C3FC01F023FA01F0AD
:1009200055FB01F085FC01F00FFC01F05BFE02F0CD
:10093000DBFA40F64D0040F64D0140F64D0202F064
:10094000CBFA01F037FF01F0EFFB01F099FC01F069
:1009500053FDBDE8804001F0C3BD0000B0B50446C2
:1009600000F02CFB054640F20C00C2F2000040688B
:10097000611C18BF044400BF00F020FB401BA042D4
:10098000FAD3B0BD70470000704700007047000008
:100990002DE9F04F85B004460068016D426DD0F836
:1009A00050B0456D076D466D036D01EA0208049372
:1009B000436D0393036D0293436D0193D0F854A0EC
:1009C000D0F850905FEA496307D51AF0400104D08F
:1009D000402101652046FFF7D9FF0BEA050B5FEACE
:1009E000C95008F4E0550ED51AF480700BD0206879
:1009F000D0F8D810D0F8E02011404FF48072026592
:100A0000204600F0F9F937400BF007062DB12068B9
:100A100029460565204600F0F3F907F038052EB1A8
:100A2000206831460665204600F0DEF92DB12068C9
:100A300029460565204600F0D9F95FEA895009D5B5
:100A40001AF4007006D020684FF40071016520464A
:100A500000F0D8F95FEA09600DD51AF080000AD0DD
:100A60002068D0F8D410D0F8DC2011408022026534
:100A7000204600F0C3F95FEA894009D51AF4005016
:100A800006D020684FF400510165204600F0B2F90D
:100A90005FEA0940DDE9011000EA010509D51AF411
:100AA000004006D020684FF400410165204600F068
:100AB0009FF9DDE9031008405FEA494105F4602130
:100AC0000AD51AF4804207D022684FF48043136598
:100AD000226E42F08002226600F4710521B1206886
:100AE00001652046FFF750FF25B120680565206E9F
:100AF00028432066206E28B1204605B0BDE8F04F9F
:100B0000FFF740BF05B0BDE8F08F0000002804BF2C
:100B100001207047F0B581B0044690F85C0028B918
:100B2000002084F85D00204600F018F920688169F3
:100B300021F01001816100F041FA054620688169C9
:100B4000090705D500F03AFA401B0B28F6D310E050
:100B5000816941F00101816100F030FA054600BF72
:100B600021688869C0070FD100F028FA401B0B28C4
:100B7000F6D3206E032140F001002066012084F8A6
:100B80005C1001B0F0BD00BF4AF200408A69C4F2B7
:100B90000000A0F5804342F0020299428A6105D12B
:100BA00062684CF20013CFF6FF73C250227C8B694F
:100BB000012A23F0400318BF40338B61627C8B69AC
:100BC000012A23F4804308BF03F580438B61A27C94
:100BD0008B69012A23F4805318BF03F580538B617E
:100BE0008D69D4E902E325F4407545EA0E058D616F
:100BF0008D6925F0A4058D610D6925F010050D6145
:100C0000A3B1012B0ED0022B09D08D69032B45F027
:100C100080058D610D6945F010050D6106D1202319
:100C200001E000BF04238D692B438B61D4E90535B6
:100C3000D4E907266FF0FF0C013D0CEB02220027E0
:100C400042EA4562751ECFF6FF772A4307EB03435E
:100C50001A43BEF5407FCA6110D104F124064CCE80
:100C6000256B013B0CEB062633436FF00F0606EBBA
:100C70000516334307EB02421A43CA6004F13407F6
:100C80008CCFD1F8C0603743C1F8C0702064D1F870
:100C900080704AF2704627F4F817C4F2000647EA5B
:100CA0000242C1F880206664D1F8802022F0706290
:100CB00042EA0362C1F8802006F14001A16406F512
:100CC0008C71E16406F5F871216506F502716165C4
:100CD000002106F5037200BFC0E90011C0E902114E
:100CE000C0E90411C0E90611C0E90811C0E90A1100
:100CF000C0E90C11C0E90E11C0E91011C0E91211D0
:100D0000C0E91411C0E91611C0E91811C0E91A119F
:100D1000C0E91C11C0E91E11C0E92011C0E922116F
:100D2000C0E92411C0E92611C0E92811C0E92A113F
:100D3000C0E92C11C0E92E11C0E93011C0E932110F
:100D4000C0F8D010904200F1D400C5D3002001219A
:100D5000A065206684F85C1001B0F0BD80B586B057
:100D6000006846F20042C4F2000200219042CDE940
:100D70000411CDE90211019102D006B080BD00BF7F
:100D800041F24C00C4F20200C26B022363F3196209
:100D9000C263C26842F00072C260C26802F00072B0
:100DA0000092009A026842F002020260006800F0BD
:100DB0000200009000984FF44070CDE90103092033
:100DC000059040F20040CDE90311C4F6000001A9EE
:100DD00000F01AF815200021002200F067F9152014
:100DE00000F052F906B080BD704700007047000067
:100DF0007047000070470000704700007047000017
:100E000070470000704700002DE9F04F83B00E6876
:100E1000002E00F0CF8000F1200241F2004C009241
:100E200000F13847C4F6000C06224FEAB7256045AA
:100E300008BF0522052D38BF4FEAB722002500273D
:100E40004FF0000801920AE00E6808F1010836FA36
:100E500008F207F1020705F1040500F0AB8001225A
:100E600002FA08FE16EA0E09EED0D1F804C00322F9
:100E70000CF0030BABF1010602FA07F4012E6FEA46
:100E8000040A11D88468CE6804EA0A04BE403443D8
:100E90008460446824EA0E06CCF3001404FA08F4D3
:100EA0002643466006E000BFBBF1030F02D14FF0BE
:100EB000030B21E0C6688C6806EA0A06BC4026439C
:100EC000BBF1020FC66017D16FF00302009B02EA6C
:100ED000580605F01C020F2453F806C004FA02FE5F
:100EE0000C692CEA0E0C04FA02F242EA0C029A5146
:100EF000D1F804C00CF0030B02680BFA07F302EA06
:100F00000A021A431CF4403F02609DD041F2600384
:100F1000C4F202031A6840F2004E42F001021A6065
:100F20001A68C4F2010E02F001020292029A28F03D
:100F300003024FF6084C7244CFF6FF7C52F80C3097
:100F400005F00C060F24B440A343019C04FA06F6F6
:100F5000334342F80C30DEF808204B6842EA0906B9
:100F600040F20C4CDC0258BF22EA0906CEF80860B9
:100F7000C4F2010CDCF800209C0242EA090658BFCA
:100F800022EA0906CCF80060DEF804209C0342EA5D
:100F9000090658BF22EA0906CEF80460DEF80020F0
:100FA000DB0342EA090658BF22EA0906CEF80060D0
:100FB0004AE700BF03B0BDE8F08F000040F2042014
:100FC000C2F200000068704740F20C0040F20421B9
:100FD000C2F20000C2F2000140680A6810440860D2
:100FE0007047000080B5032000F08CF80F2000F05F
:100FF00009F800281CBF012080BD00F02BF800205C
:1010000080BD0000B0B540F20C05C2F20005696871
:10101000F1B1044640F21400C2F200004FF47A72BB
:101020000068B2FBF1F1B0FBF1F000F085F8014689
:101030000F2C4FF001000AD8002918BFB0BD4FF0A7
:10104000FF302146002200F031F800202C60B0BDB6
:101050000120B0BD82B041F25800C4F202008168A4
:1010600041F001018160816801F001010191019964
:10107000016841F080510160006800F080500090EC
:10108000009802B000F04EB8002848BF704700F04A
:101090001F01012202FA01F11C2202EAD0004EF2E5
:1010A0000012CEF2000281507047000010B54EF6DB
:1010B0000C5CCEF2000CDCF80030C3F3022E8EF094
:1010C0000704042C28BF0424BEF103034FF0FF3EA5
:1010D0000EFA04F438BF0023A14399400EFA03F33B
:1010E0009A43114300F00F0200F160430901043AF2
:1010F00003F564436244002848BF02F10C031970F1
:1011000010BD00004EF60C51CEF200010A684FF6F9
:10111000FF031A4060F30A2242F0806040F0FD7045
:101120000860704747F20800C4F20000016841F40B
:101130008041016070470000411E0020B0EB116F3C
:101140001CBF012070474EF21002CEF20002516027
:101150004EF62351CEF20001F0230B700721906070
:1011600011607047FEE700000822C5F20002136814
:10117000D2F800211A43D2071CBF0120704780B566
:10118000D1E900C3826843F2E00ECFF6C07E0EEADA
:10119000020E5BB1D1E90212114341EA0E0141EAAC
:1011A0000C0119438160002080BD00BF4EEA0C0194
:1011B0008160002080BD00008268D2071CBF012032
:1011C000704780B5D1F804C0C368BCF1000F23F0AC
:1011D000047E05D0D1E902231A4342EA0E0302E05D
:1011E000CA684EEA0203C360C26C40F2FF1309688A
:1011F0009A43114341EA0C01C164002080BD000004
:101200008268D2071CBF01207047C2684CF21803E5
:1012100022EA030CD1E90032896843EA0C031A433D
:101220001143C160002070478268D2071CBF0120B3
:101230007047B0B5D1E900C2C3684CF21C0ECFF6BE
:10124000F07E0EEA030E3AB101F1080538CD496986
:1012500023432B4304E000BFD1E90334496923430E
:10126000194341EA0C0141EA0E01C160016B21F012
:101270000F01114301630020B0BD000070B5036889
:1012800001F01004E340DB071CBF012070BDD2F861
:1012900008E0D0F800C0BEF1000F21D0BEF1C00FB1
:1012A00024D1C023A34043EA0C030360D0F860C0FC
:1012B00040F60F73A3402CEA030CD2E900E36FF071
:1012C000C00606EA831343EA9E03D568A340C1F330
:1012D000C01143EA0C0300EB810103668D6512E047
:1012E000FC21A14013682CEA010109E01368D568CC
:1012F00040F6FC71A1402B432CEA010143EA0E03A6
:10130000A34019430160C16B0723A3409943D2E96D
:101310000436926933431A43A2401143C16300204B
:1013200070BD00002DE9F04F0C6894FAA4F2B2FAF7
:1013300082F234FA02F361D04FF001084FF0030B50
:101340000BE000BFD1E900470568B7402B403B43A5
:101350000360013234FA02F350D008FA02F314EABF
:10136000030CF6D0D1F80490A9F10103022B9CFAEA
:10137000ACF319D2B3FA83F77E00D0F808A00BFAC9
:1013800006F3D1E902BE2AEA030A0BFA06F545EA9A
:101390000A05856045684FF0030BA5430EFB04F476
:1013A000DB432543456005E0B3FA83F77E000BFA83
:1013B00006F3DB430D69C468B5401C402543B9F111
:1013C000020FC560BED14FEA1C2494FAA4F4D1F8F0
:1013D00014E0BCF5807F28BFB4FA84F74FF02404F2
:1013E00038BF202450F804C0BF000F25BD402CEAB0
:1013F00005050EFA07F72F430751A3E70020BDE8C4
:10140000F08F0000C0281FD141F20C01C4F202018C
:10141000C86FC0F38110032822D0022816D00128FB
:1014200026D151F8040C00F00C0242F200400C2AC4
:10143000C0F2F4002ED0082A18BF704741F60030E1
:10144000C0F2B700704700BF0020704751F80C0C85
:1014500042F200414005C0F2F40101EAE070704739
:10146000D1F884004FF4004101EA8030704700BF9A
:1014700051F8040C00F00C0242F200400C2AC0F2B9
:10148000F40023D0082A3CD141F60030C0F2B70066
:1014900037E000BF0A6802F00302032A04BF41F6E6
:1014A0000030C0F2B7000A680B68C2F3062250434E
:1014B000C3F3031209680132B0FBF2F0C1F34161DA
:1014C000022202EB4101B0FBF1F070470A6802F022
:1014D0000302032A04BF41F60030C0F2B7000A68D5
:1014E0000B68C2F306225043C3F303120B680132A8
:1014F000B0FBF2F0C3F34162022303EB4202B0FB04
:10150000F2F051F8042C44F2A823C2F30312C0F6FF
:1015100000039A5C51F8041C44F2B823C1F3022181
:10152000C0F60003595C02F01F02D04001F01F0119
:10153000C8407047302859D00C282DD003281CBF34
:101540000020704741F20C01C4F20201C86F4FF451
:10155000404262F39F00B0F1031F50D00222C0F25C
:101560000302904238D00122C0F20302904220D000
:1015700051F8040C00F00C0242F200400C2AC0F2B8
:10158000F40000F09D80082A40F0B58041F600305C
:10159000C0F2B700AFE000BF41F20C01C4F202019B
:1015A000C86FC0F38100032829D0022814D0012875
:1015B0002CD151F8040C00F00C0242F200400C2A2D
:1015C000C0F2F40034D0082A18BF704741F600304A
:1015D000C0F2B700704700BF51F80C0C42F2004156
:1015E0004005C0F2F40101EAE070704741F20C01DD
:1015F000C4F20201C86FC0F301100328D5D1D1F89D
:1016000084004FF4004101EA8030704751F8040C27
:1016100000F00C0242F200400C2AC0F2F40023D089
:10162000082A3CD141F60030C0F2B70037E000BFD5
:101630000A6802F00302032A04BF41F60030C0F238
:10164000B7000A680B68C2F306225043C3F30312C3
:1016500009680132B0FBF2F0C1F34161022202EBF2
:101660004101B0FBF1F070470A6802F00302032A5F
:1016700004BF41F60030C0F2B7000A680B68C2F33D
:1016800006225043C3F303120B680132B0FBF2F0A1
:10169000C3F34162022303EB4202B0FBF2F051F8C4
:1016A000042C44F2A823C2F30312C0F600039A5C90
:1016B00051F8041C02F01F02C1F302212AE000BF0E
:1016C0000A6802F00302032A04BF41F60030C0F2A8
:1016D000B7000A680B68C2F306225043C3F3031233
:1016E0000B680132B0FBF2F0C3F34162022303EB5B
:1016F0004202B0FBF2F051F8042C44F2A823C2F3EA
:101700000312C0F600039A5C51F8041C02F01F0299
:10171000C1F3C22144F2B823C0F60003595CD040A3
:1017200001F01F01C84070470246006840063BD4E4
:101730002DE9F04710684FF6BF73D1E9009E20EA0B
:10174000030CD1E9024A4CEA0905D1E9046701F129
:10175000180845EA0E0598E8090145EA0A052E43EE
:1017600030431843384340EA08001060506840F6A0
:101770000473984340EA174000232043B3EBD42F6F
:10178000506003D1506840F480505060B8F5005F5D
:10179000BDE8F04704BF888C10610020D16921F4B6
:1017A0000061D161704700BF0120D16921F400615F
:1017B000D161704740F21401C2F200010860704725
:1017C00040F2FF7C02460068C4F2000C624523DD53
:1017D00040F60003C4F200039A4226D043F20043CD
:1017E000C4F201039A4220D042F60043C4F201033E
:1017F0009A421AD043F2FF33C4F201039A421EDC2C
:1018000062452FDCB2F1804F46D040F20043C4F273
:1018100000039A4240D043E0B2F1804F05D040F23D
:101820000043C4F200039A42E4D14B6820F07000F8
:10183000184343F2FF33C4F201039A42E0DD44F25D
:10184000FF33C4F201039A421ADC43F20043C4F2AC
:1018500001039A4220D044F20003C4F201039A42E9
:101860001AD01DE040F60003C4F200039A4213D0E0
:1018700042F60043C4F201039A420DD010E000BFCB
:1018800044F60003C4F201039A4205D044F2004337
:10189000C4F201039A4203D1CB6820F4407018438C
:1018A00010608868D062A2F18040A0F596300B8865
:1018B0004FEAB0200728936207D8012303FA00F00B
:1018C00010F0E50F1CBF08691063506940F001017A
:1018D00000205161704700002DE9F041B1F5805FB3
:1018E0004FF0010350DA012900F08E80102900F03A
:1018F0001781B1F5807F40F09681016A40F2FF16B2
:1019000021F480710162036A4168D0F81CC0146937
:1019100023F440732402B4432343A0F18044D2E96A
:1019200000E5A4F596344FEAB424072C43EA0523D6
:101930001CD8012505FA04F414F0E50F16D002F1C5
:10194000140898E8600140F2FF77AD0223F4406389
:101950009468BD432B4343EA8423340142F20F05CC
:1019600021F44051AC43214341EA48114FF68C74B5
:10197000CFF6FE740CEA040747EA0E074160C76120
:10198000D168C16303624DE100F08280B1F5803F10
:1019900000F00E81B1F5801F40F04581016AA0F191
:1019A000804521F480110162A5F59635046A036D26
:1019B000D2E900EC11694FEAB525072D0DD80126B3
:1019C00006FA05F515F0E50F1FBF4568966925F481
:1019D000802545EA862518BF45600025CFF6E075CD
:1019E00024F4401405EA0151214348F6FF44CFF6A0
:1019F000FF6404F54074234043EA0E230365D26874
:101A000041EA0C51C2640CE1016A21F0010101625A
:101A1000036A4168D0F818C0146923F0030324F066
:101A200001042343A0F18044D2E900E5A4F59634F3
:101A30004FEAB424072C43EA05031AD8012505FA16
:101A400004F414F0E50F14D002F1140898E86001D2
:101A50006FF0040723F00C03946807EA85052B4315
:101A600043EA840321F4407126F40074214341EADF
:101A700048014FF68C74CFF6FE740CEA040747EA6F
:101A80000E0741608761D16841630362CAE000BF0D
:101A9000016A41F6FF7621F480510162036A4168D0
:101AA000D0F81CC0146923F440532403B4432343E7
:101AB000A0F18044D2E900E5A4F596344FEAB424BD
:101AC000072C43EA05331CD8012505FA04F414F069
:101AD000E50F16D002F1140898E8600147F6FF7789
:101AE000AD0323F440439468BD432B4343EA84335E
:101AF000B40148F23F0521F44041AC43214341EA9F
:101B0000C81148F6FF44CFF6FF640CEA040747EA21
:101B10000E274160C761D1680164036282E000BFA3
:101B2000016A6FF0100621F010010162036A41683A
:101B3000D0F818C0146923F0300306EA04142343D4
:101B4000A0F18044D2E900E5A4F596344FEAB4242C
:101B5000072C43EA05131CD8012505FA04F414F0F8
:101B6000E50F16D002F1140898E860016FF0400705
:101B700023F0C003946807EA85152B4343EA8413D6
:101B8000B40040F6030521F44061AC43214341EA2F
:101B9000C80148F6FF44CFF6FF640CEA040747EAA1
:101BA0000E2741608761D168816303623AE000BF1C
:101BB000016AA0F1804521F480310162A5F59635D6
:101BC000036AD0F850C0D2E900E114694FEAB525A4
:101BD000072D0DD8012606FA05F515F0E50F1FBFF4
:101BE0004568966925F4803545EA062518BF4560A5
:101BF0000025CFF6E07505F5F01523F4403305EA2E
:101C00000444234343EA01414FF68C73CFF6FE733D
:101C1000033303EA0C0343EA0E030365D268836CC3
:101C20008264016200231846BDE8F08170B5044665
:101C30000068C0071CBF012070BD0E46206846F634
:101C4000F311CEF6FF710840D6E9021CD6E9043242
:101C50000843F5691843104328432060606820F466
:101C6000405040EA0C006060B069A16821F4407106
:101C70000843A06044F6FF30C4F2000084424FF0F5
:101C8000010011DC44F20041C4F200018C421DD07D
:101C900044F60001C4F200018C4244D13020FFF729
:101CA00049FCE8B936E000BF44F60041C4F2000147
:101CB0008C4211D043F60001C4F201018C4232D1B2
:101CC0000320FFF737FC58B924E000BF0C20FFF7D2
:101CD00031FC28B91EE000BFC020FFF793FBC8B15C
:101CE0007168B9B132680B2A1CD812A353F82220AC
:101CF000F369B0FBF2F0B3F5004F0DD1400000EBFB
:101D00005100B0FBF1F04FF6F0710140C0F342001A
:101D1000084406E0012006E000EB5100B0FBF1F0C2
:101D200080B2E06000203188E26A22F00F021143A5
:101D3000E16270BD0100000002000000040000002C
:101D400006000000080000000A0000000C0000006F
:101D50001000000020000000400000008000000093
:101D6000000100002DE9F04399B0002741F24C003A
:101D70001797CDE91577CDE91377CDE91177CDE93F
:101D80000F77CDE90D77CDE90B77CDE90977CDE96F
:101D90000777CDE90577CDE90377CDE90177C4F27F
:101DA0000200C16B4FF0020969F31D71C163016844
:101DB000082441F4005101600168032601F4005138
:101DC000189118990168C5F2000441F00101016001
:101DD000006801A900F001001890189807200190F0
:101DE0004FF0904002960597FFF79CFA15A94FF027
:101DF000A040CDE9157717974FF0A048FFF700FAFC
:101E0000A4250FA94FF0A040CDE90F57CDE91177D8
:101E1000CDE91377FFF708FA4FF44030CDE90B070F
:101E200004F53E700BA9FFF79FF907A94FF0A040FA
:101E3000CDE90759CDE90977FFF7BEF960684FF69C
:101E4000FF71C7F6DF71084000F100406060606C10
:101E5000012161F3C810606420684FF6C072C5F6B6
:101E6000FF7210402060206802F18052104000F1A3
:101E700080502060606C61F34D206064E068102148
:101E800066F3C500E060D4F8A80020F00200C4F8B2
:101E9000A800606C69F3D3306064E06866F3881072
:101EA000E060D4F8A80020F00400C4F8A800606C3A
:101EB00066F359506064E06866F34B20E060D4F844
:101EC000A80020F00800C4F8A8004020C8F80000CE
:101ED00054F8040C40F0400044F8040C4EF2124058
:101EE000CEF2000001704EF20010CEF200004FF46E
:101EF0008021016020684FF6C071C3F6FF71084071
:101F000000F10040206000BF2068B0F1FF3F0ADC14
:101F10002068B0F1FF3F06DC2068B0F1FF3F02DC33
:101F200020680028F0D4A06D4FF20001C0F2FF310C
:101F300045220840C8F200421043A065A06D40F061
:101F40008070A065A06D40F00070A065E06D084055
:101F5000104300F18060E065E06D40F08070E06566
:101F6000E06D40F00070E065206E0840104300F125
:101F700000602066206E40F080702066206E40F089
:101F80000070206621684FF6C070C7F6FF700140F0
:101F9000013121604FF0A0410A68D20709D10A68D7
:101FA000D20704BF0A685FEAC27202D10A68D20788
:101FB000F2D04FF0A04101220A602168084040F0B1
:101FC0000800206019B0BDE8F08300002DE9F04161
:101FD00094B0002641F24C001296CDE91066CDE98E
:101FE0000E66CDE90C66CDE90A66CDE90866CDE955
:101FF0000666CDE90466CDE90266CDE90066C4F265
:102000000200C16B4FF0020868F31D71C1630168E3
:1020100040F6000441F4005101600168C4F6000478
:1020200001F400511391139901686D4641F00401C8
:1020300001600068032700F004001390139801204A
:1020400000902046294601970496FFF76BF9204639
:102050002946CDE900870496FFF764F90420CDE90D
:102060000007204629460496FFF75CF90820CDE9D1
:102070000007204629460496FFF754F91020CDE9C1
:102080000007204629460496FFF74CF940F2081550
:10209000C5F20005A5F1080410A92046CDE9106697
:1020A0001296FFF7ADF80AA92046CDE90A66CDE9F8
:1020B0000C66CDE90E66FFF7B7F8D5F8B80043F621
:1020C000FF718843C5F8B800A86840F2034120F4C6
:1020D0008030A860A8688843A86006A92046CDE99A
:1020E0000866FFF769F828684FF6C071C5F6FF71FA
:1020F00008402860286801F18051084000F18050B4
:102100002860A86A062161F38A10A862E86820F4B2
:10211000E010E860D5F8A80020F04000C5F8A8005D
:1021200014B0BDE8F081000081B041F24800C4F273
:102130000200016841F008010160006800F0080039
:102140000090009801B0704770B58EB0002541F244
:102150004C000C95CDE90A55CDE90855CDE9065559
:10216000CDE90455CDE90255CDE90055C4F2020090
:1021700001686C4641F4803101600168032601F476
:1021800080310D910D99016841F0010101600068F5
:10219000214600F001000D900D98102000904FF0A6
:1021A000904001960495FFF7BDF82020CDE9000688
:1021B0004FF0904021460495FFF7B4F840F63C06F6
:1021C000C5F200063068A6F13C0420F400703060CF
:1021D000CDE906550895CDE90A550C95012106ADC6
:1021E000C0F2112120462A46FFF748F856F83C0C69
:1021F000F22120F0020046F83C0C3068C3F2425154
:1022000020F48070306030682A4620F00070306022
:102210002046FFF733F856F83C0C20F4003046F81F
:102220003C0C306820F0807030600EB070BD000053
:1022300080B540F2A01046F20041C2F20000C4F2A4
:1022400000010022C0E900124FF00A0C012308210E
:10225000C0E90222C0F80F20C0E905C3C0E9071198
:10226000C0E90933C0E90B33C0E90D22C263FEF7B0
:102270004DFC002808BF80BDBDE88040FEF73ABB9A
:1022800081B041F24800C4F20200016841F010013F
:102290000160006800F010000090009801B07047E5
:1022A0002DE9F04F87B0002641F24C00CDE90466DD
:1022B000CDE90266CDE90066C4F20200016840F291
:1022C000004441F0200101600168C4F6000401F0FF
:1022D0002001069106990168012741F0040101607F
:1022E00001684FF0020901F00401069106990168A6
:1022F0004FF0040841F00101016001684FF4805B78
:1023000001F001010691069901684FF4004A41F07D
:102310000201016000686D4600F002000690069818
:102320004FF62840CFF6FF70A762C4F82890C4F893
:102330002880C4F828B044F800A04020A062802083
:10234000A06220462946CDE90077CDE902660496D1
:10235000FEF7E8FF20462946CDE90097CDE9026661
:102360000496FEF7DFFF20462946CDE90087CDE938
:1023700002660496FEF7D6FF0320CDE9020620464A
:102380002946CDE900B70496FEF7CCFF4FF48070E4
:10239000CDE900064FF0904029460496FEF7C2FFB3
:1023A0004FF40070CDE900064FF0904029460496A6
:1023B000FEF7B8FF4FF090402946CDE900A7CDE9E0
:1023C00002660496FEF7AEFF4020CDE900072046E6
:1023D0002946CDE902660496FEF7A4FF8020CDE9E8
:1023E000000720462946CDE902660496FEF79AFFCB
:1023F00007B0BDE8F08F00002DE9F04F91B00DF16E
:10240000180840462821FDF70AFF002741F24C003A
:10241000CDE90477CDE90277CDE90077C4F2020077
:10242000416940F2004541F4805141614169C4F67F
:10243000000501F480511091109901686E4641F039
:102440000201016000684FF0020900F002001090E4
:102450001098082000904FF0030A052428463146C2
:10246000CDF80490CDE902A704970594FEF75AFF32
:102470004FF0200B28463146CDE900B9CDE902A73F
:10248000CDE90474FEF74EFF4FF4827007904FF4CD
:102490007060CDE9080701200A904FF4007043F204
:1024A0000404CDE90B0B0720C4F201040F90201F98
:1024B00041460697CDE90D77FFF736F9206820F001
:1024C00010002060206840F00800206054F8040CE0
:1024D00040F0400044F8040C11B0BDE8F08F00005B
:1024E0002DE9F04792B00DF11C0840462821FDF778
:1024F00096FE002741F24C00CDE90577CDE9037740
:10250000CDE90177C4F20200C16840F2004541F410
:102510008041C160C168C4F6000501F48041119199
:102520001199016801AE41F00201016000684FF0AD
:10253000020900F00200119011984FF40050019030
:102540004FF0030A052428463146CDF80890CDE91E
:1025500003A705970694FEF7E5FE4FF4804001A916
:1025600081E8010628463146CDE904770694FEF756
:10257000D9FE4FF4004001A981E801062846314602
:10258000CDE904770694FEF7CDFE4FF44040079066
:102590004FF4827008904FF4E060CDE90907012004
:1025A0000B904FF4007043F604040C902020C4F20A
:1025B0000004CDE90D07201F41460F97FFF7B4F83F
:1025C000206820F010002060206840F008002060A3
:1025D00054F8040C40F0400044F8040C12B0BDE87C
:1025E000F08700002DE9F04F95B0002641F24C082D
:1025F0001396CDE91166CDE90F66CDE90D66CDE9FB
:102600000B66CDE90966CDE90766CDE90566CDE93A
:102610000366CDE90166C4F20208D8F8140043F25B
:10262000184740F40050C8F81400D8F81400C4F259
:10263000010700F400501490149841F29900A7F19A
:1026400018046025CDE911060FA92046ADF83C60BD
:1026500010951396FFF7B4F857F8180C4BF6F8716D
:1026600020F0800047F8180C57F8100CCFF6FE71D8
:10267000084047F8100C38680DF11C0B40F00800BA
:10268000386007954FF0010A40F64C0520460121BD
:102690005A46CDE908AACDE90A56CDE90C660E9650
:1026A000FFF71AF93868102120F004003860386804
:1026B0005A4640F40060386020460A95FFF70CF94E
:1026C00038684FF4807120F48060386078685A462A
:1026D00040F00800786020460A954FF48079FFF7B3
:1026E000FBF878684FF4805120F004007860786837
:1026F0005A4640F4006078607020CDE9070A41F244
:1027000085000A90204609964FF4805AFFF7E4F8B6
:1027100057F8140C4FF68F71CFF6FF510840703008
:1027200047F8140C57F8100C40F6000420F0800015
:1027300047F8100CD8F80000C4F6000440F004007C
:10274000C8F80000D8F8000001AD00F004001490B3
:10275000149840200190022002900320CDE9030646
:1027600004200690204629460596FEF7DBFD8020D2
:10277000019020462946FEF7D5FD20462946CDF892
:102780000490FEF7CFFD4FF480600190204629466B
:10279000FEF7C8FD4FF40060019020462946FEF781
:1027A000C1FD20462946CDF804A0FEF7BBFD15B0BB
:1027B000BDE8F08F2DE9F0438FB0002741F24C00C7
:1027C000CDE90C77CDE90A77CDE90877CDE9067731
:1027D000CDE90477CDE90277CDE90077C4F20200B4
:1027E000C16B40F2004521F03001C163C168C4F6FD
:1027F000000541F48021C160C1686E4601F480216A
:102800000E910E99016844F6000441F00201016046
:1028100000684FF0020800F002000E900E984FF48E
:10282000806000904FF0070928463146C4F200044A
:10283000CDE90187CDE90377CDF81490FEF772FD5D
:102840004FF40060CDE9000828463146CDE9027713
:10285000CDE90479FEF766FD4EF60C50CEF200008D
:1028600000684EF22740CEF2000007704EF20410CE
:10287000CEF200008021016048F28040C0F21E00CC
:10288000CDE907070820CDE90B0706A920460697E2
:10289000CDE909770D97FFF7C9F944F60800C4F2AE
:1028A000000000BF50E8001F21F0604140E8001226
:1028B0005AB350E8001F21F0604140E8001222B3F3
:1028C00050E8001F21F0604140E80012EAB150E8F2
:1028D000001F21F0604140E80012002AE2D114E01C
:1028E00050E8001F21F0606140E80012AAB150E8F2
:1028F000001F21F0606140E8001272B150E8001F33
:1029000021F0606140E800123AB150E8001F21F068
:10291000606140E80012002AE2D1206820F00050F7
:102920002060606820F490406060A06820F02A0079
:10293000A060206840F001002060E069800209D4B6
:10294000E06980025CBFE0695FEA802002D4E06950
:102950008002F2D50FB0BDE8F0830000FEE7000072
:10296000FEE700007047000070470000FEF72CBB38
:1029700080B582B042F20000C4F202000168042275
:1029800062F30301016000BF016801F00F01042937
:102990000ED0016801F00F01042909D0016801F08F
:1029A0000F01042904D0016801F00F010429EBD1C3
:1029B00047F28001C4F200010A6841F2080022F4E3
:1029C0008072C4F202000A6050F8081C41F48031A1
:1029D00040F8081C50F8081C89030CD450F8081C57
:1029E00089035CBF50F8081C5FEA813103D450F8BA
:1029F000081C8903EED5416848F20C02CFF6FF129D
:102A0000114045F2235211434160416841F0807109
:102A1000416050F8081C41F0807140F8081C50F8E3
:102A2000081C89010CD450F8081C89015CBF50F8BF
:102A3000081C5FEA811103D450F8081C8901EED507
:102A40000168082241F003010160016862F3071187
:102A5000016000BF016801F00C010C290ED0016873
:102A600001F00C010C2909D0016801F00C010C29BE
:102A700004D0016801F00C010C29EBD15521019122
:102A80000199A1B1019901390191019979B1019996
:102A900001390191019951B10199013901910199CE
:102AA00029B101990139019101990029EAD10168FF
:102AB00021F0F0010160016821F4E061016001682A
:102AC00021F4605101604FF68060C0F62120FEF7CE
:102AD00071FE0F20FEF796FA20B102B0BDE88040EB
:102AE000FDF708BF02B080BD4EF68850CEF2000060
:102AF000016841F47001016070470000FEE70000CA
:102B000080B52DED028B9FED098AF0EE480A00F0AA
:102B1000F1FEB5EE400A30EE081AF1EE10FAB8BF39
:102B2000B0EE410ABDEC028B80BD00BFDB0FC94097
:102B3000B0B50025B5EB930F31D04FEA930C00BF31
:102B400090ED000A91ED001A00F1100E30EE010A2E
:102B500082ED000A90ED010A91ED011A01F11004D5
:102B600030EE010A82ED010A90ED020A91ED021A9F
:102B700002F1100530EE010A82ED020A90ED030A1F
:102B800091ED031ABCF1010C30EE010A82ED030A4B
:102B900070462A462146D3D121462A46704613F074
:102BA000030308BFB0BD00BFB0EC010AB1EC011ACD
:102BB000013B30EE010AA2EC010AF5D1B0BD0000E4
:102BC000B0B50025B5EB930F31D04FEA930C00BFA1
:102BD00090ED000A91ED001A00F1100E20EE010AAE
:102BE00082ED000A90ED010A91ED011A01F1100445
:102BF00020EE010A82ED010A90ED020A91ED021A1F
:102C000002F1100520EE010A82ED020A90ED030A9E
:102C100091ED031ABCF1010C20EE010A82ED030ACA
:102C200070462A462146D3D121462A46704613F0E3
:102C3000030308BFB0BD00BFB0EC010AB1EC011A3C
:102C4000013B20EE010AA2EC010AF5D1B0BD000063
:102C500080B50023B3EB920F22D0930890ED000AC9
:102C600000F1100CB1EE400A81ED000A90ED010A6E
:102C700001F1100EB1EE400A81ED010A90ED020A59
:102C8000013BB1EE400A81ED020A90ED030A604675
:102C9000B1EE400A81ED030A7146DFD1714660460C
:102CA00012F0030208BF80BDB0EC010A013AB1EE98
:102CB000400AA1EC010AF7D180BD00000023B3EB6C
:102CC000920F20D0930800BF90ED001A90ED012ADA
:102CD00090ED023A90ED034A21EE001A22EE002A0E
:102CE00023EE003A24EE004A01F1100C103081ED81
:102CF000001A81ED012A81ED023A81ED034A013B80
:102D00006146E1D1614612F0030208BF704700BF7F
:102D1000B0EC011A013A21EE001AA1EC011AF7D128
:102D20007047000080B59FED441A9FED443A20EEB5
:102D3000011AB0EEC11ABDEEC12AB8EEC22A31EEB8
:102D4000421A21EE031ABDEEC12A12EE102A02F138
:102D5000800E6FF35F2244F2C02CC0F6000C02EE2E
:102D6000102A6FF35F2E0CEB8203B8EE422A0CEBB5
:102D70008E0231EE421A92ED002A92ED013A93ED65
:102D8000004A93ED015A9FED2E7A33EE426A74EEBB
:102D9000050A20EE877A76EE060A74EE041ADFED55
:102DA000292A37EE607AF0EE080A75EE211A26EE2F
:102DB000206A61EEA21A21EE077A36EE216A36EE1B
:102DC000076A21EE066A24EE227A36EE476A21EE81
:102DD000066A32EE066A81ED006A35EE445A32EE3A
:102DE000036A26EE226A35EE057A36EE476A32EE3F
:102DF000027A33EE073A25EE205A23EE223A21EEEC
:102E0000066A35EE433A33EE063A21EE033A22EEF5
:102E1000222A32EE032A21EE021A34EE011AB5EE0E
:102E2000400AB1EE412AF1EE10FAB8BFB0EE421AF4
:102E300080ED001A80BD00BF610B363B00000044EE
:102E4000DB0F49BCDB0F493CB0B50025B5EB930F58
:102E500031D04FEA930C00BF90ED000A91ED001ABB
:102E600000F1100E30EE410A82ED000A90ED010AE9
:102E700091ED011A01F1100430EE410A82ED010AD0
:102E800090ED020A91ED021A02F1100530EE410AAE
:102E900082ED020A90ED030A91ED031ABCF1010CD8
:102EA00030EE410A82ED030A70462A462146D3D10C
:102EB00021462A46704613F0030308BFB0BD00BF89
:102EC000B0EC010AB1EC011A013B30EE410AA2EC70
:102ED000010AF5D1B0BD000043F23443C4F201034E
:102EE000186059609A60704743F22040C4F20100B4
:102EF00050F8081C41F0080140F8081C50F8081C64
:102F000041F4006140F8081C50F8041C41F008012D
:102F100040F8041C50F8201C41F0010140F8201C2E
:102F2000016841F001010160016841F01001016098
:102F3000016841F480710160016841F004010160A1
:102F4000016841F040010160016841F48061016065
:102F5000416A41F4004141627047000083B070B59E
:102F600081B040F28E06044605A8C2F200060EC0EB
:102F700005AB30464FF480712246009300F0A0FC70
:102F800000286ED044F61C01FD2828BFFD2040F625
:102F90000D22C4F20001325202300022325400BF2E
:102FA000B35C4FF6F0740D682D0635D40D682D0610
:102FB00034D40D682D0633D40D682D0632D40D6837
:102FC0002D0631D40D682D0630D40D682D062FD472
:102FD0000D682D062ED40D682D062DD40D682D06F6
:102FE0002CD40D682D062BD40D682D062AD40D681F
:102FF0002D0629D40D682D0628D40D682D0627D45A
:103000000D682D0626D4103C14F11005CBD1CB60F1
:1030100001328242C4D124E00F341BE00E3419E0A7
:103020000D3417E00C3415E00B3413E00A3411E0D2
:1030300009340FE008340DE007340BE0063409E0F2
:10304000053407E0043405E0033403E0023401E012
:10305000013400BF002C18BFCB60013282427FF4E4
:103060009FAF01B0BDE8704003B07047012000F091
:103070007BB80000F0B587B041F24C00C4F202000A
:10308000016840F2004541F002010160006803213F
:1030900000F00200019001980020C4F6000543F6FC
:1030A000000606904FF480570124CDE903100590E7
:1030B00001A92846C4F2000601970294FEF732F9EE
:1030C000AF613068400603D4204607B0F0BD00BFB2
:1030D000706800F47060B0F5706F13D1306800F460
:1030E0008270B0F5827F0DD143F6FF7000F03CF89E
:1030F0004FF6FF71401AB0FA80F04409204607B03D
:10310000F0BD00BF0124204607B0F0BD002804BF79
:1031100001207047B0B5044643F6FF704FF6FF75C7
:1031200000F022F8A842208018D000EE100A9FED8F
:103130000D1AB8EE400A20EE010A43F6FD7084ED48
:10314000010A00F011F8A84208D06073C0F3C02053
:103150004142207301F00300B0BD00BF0120207385
:10316000B0BD00BF0000B43C2DE9F04F81B040F28B
:10317000184E43F60802C4F6000EC4F2000240F4F2
:1031800080454FF0000A4FF0010C4FF480590026A3
:1031900008E000BF0126410444F20105CEF800908A
:1031A00040F1E280CEF81090CDF800A00098B04633
:1031B000092817DC0098013000900098092811DCDC
:1031C000009801300090009809280BDC009801302D
:1031D00000900098092805DC0098013000900098C4
:1031E0000A28E7DBEEB2770887EA960787EAD60770
:1031F00087EA161787EA561787EA96178CEAD616D3
:10320000C5F30024C5F340217440C5F38023614019
:1032100087EA050BC5F3C0275940A8B2794081EA77
:10322000103181EA503080EA0B0045EAC030116865
:10323000890709D4116889075CBF11685FEA817149
:1032400002D411688907F2D5908050681068000692
:103250000AD51068000644BF10685FEA006003D515
:1032600010680006F2D400BFCDF800A0009809282D
:1032700018DC00BF0098013000900098092811DC8C
:10328000009801300090009809280BDC009801306C
:1032900000900098092805DC009801300090009803
:1032A0000A28E7DBCEF80090CEF81090CDF800A009
:1032B0000098092818DC00BF0098013000900098A1
:1032C000092811DC009801300090009809280BDCD7
:1032D0000098013000900098092805DC0098013022
:1032E000009000980A28E7DB106880070AD410686D
:1032F00080075CBF10685FEA807003D410688007A5
:10330000F2D500BFA2F804A050681168090609D5DB
:103310001168090644BF11685FEA016102D51168AE
:103320000906F2D4CDF800A0009909293FF732AF81
:10333000009901310091009909293FF72BAF0099BD
:1033400001310091009909293FF724AF009901311B
:103350000091009909293FF71DAF009901310091B3
:1033600000990A29E4DB15E76FF39F305FEAC87123
:1033700018BF4FF6FF7001B0BDE8F08F70B582B096
:1033800040F218068DED010AC2F200069FED1C0AFC
:1033900006F1440101A80122C6ED0D0A06F1300430
:1033A000FFF78CFC96ED110A9FED161A96ED002A98
:1033B00020EE010A30EE020A86ED000AFFF7A0FBBC
:1033C00006F118052046294686ED000A86ED100A0A
:1033D00000F01AF8284600F03DFA341D3074B3EEC0
:1033E000000A2846214600F0CDF8204600F0B6F944
:1033F000708AB18AF28AFFF76FFD02B070BD00BF1C
:103400000772933F17B75138B0B584B08DED030AFA
:103410009FED140A0C46054603A869460122FFF7F2
:103420004DFC9DED000A02A801A9FFF77BFC9DED74
:10343000010A95ED011A9DED022A95ED003A22EE62
:10344000014A23EE005A20EE010A23EE021A35EE5D
:10345000444A31EE000A84ED004A84ED010A04B0CA
:10346000B0BD00BFE02E6542FDF750FA28A0FFF77F
:1034700075FDFFF7FFFD18B101462AA0FFF76EFDAD
:1034800033A0FFF76BFDFFF72BF840F2901444F6E2
:10349000DF2844F6423944F6643A44F6FF2544F600
:1034A000C42644F61F37C2F20004C0F60008C0F676
:1034B0000009C0F6000AC0F60005C0F60006C0F616
:1034C000000708E001463846FFF748FDFFF7CEFD4C
:1034D0000120FDF743FA2046FFF718FE0028F1D13E
:1034E0004046FFF73BFD21884846FFF737FD6068FF
:1034F000FCF7A0FE024650460B46FFF72FFD617B0E
:103500002846FFF72BFD3046FFF728FDE0E700BF18
:1035100053797374656D20496E697469616C697A59
:1035200065640000E7BC96E7A081E599A8E5889D61
:10353000E5A78BE58C96E5A4B1E8B4A5EFBC81E7DF
:103540008AB6E68081EFBC9A25640D0A000000006F
:10355000E7BC96E7A081E599A8E5889DE5A78BE5FE
:103560008C96E68890E58A9FEFBC81E5BC80E5A754
:103570008BE8AFBBE58F96E695B0E68DAE2E2E2E8E
:103580000D0A00002DE9F04381B02DED048B8AB0C7
:1035900009AC8846014622460123B0EE408A064621
:1035A000FFF70EFB351D08AF284629463A46012392
:1035B000FFF706FB07AA204639460123FFF7B8FAB2
:1035C0009DED070AB5EE400AF1EE10FA21DBB1EEEF
:1035D000C00A9FED5D1A28EE011AB4EE410AF1EE21
:1035E00010FA16DD9FED592AB4EE420AF1EE10FAF8
:1035F0000FDD81EE009A304631460122B0EE490AD5
:10360000FFF75CFB2846B0EE490A29460122FFF786
:1036100055FB9FED4F0AB6EE001A80EE080A06A988
:103620002846012220EE018AFFF748FB4BF2D730F3
:10363000C3F6DD7096ED000A0DF1040903AF0190A9
:10364000484639460122FFF739FB02AC3846294685
:1036500022460123FFF76CFA05A92046B0EE480A7E
:103660000122FFF72BFB96ED000A4846394601225E
:10367000FFF724FB3846294622460123FFF7E4FBE7
:1036800004AD2046B0EE480A29460122FFF716FB9A
:10369000284629460122FFF7DBFA98F80C0001388A
:1036A000052839D8DFE800F00426161C0E2E00BFCE
:1036B0009DED040A9DED061AB1EE400A88ED010A5F
:1036C00031E000BF9DED050A9DED041AB1EE400A00
:1036D0001CE000BF9DED060A9DED051A16E000BF37
:1036E0009DED060A9DED041AB1EE400A88ED010A2F
:1036F00019E000BF9DED040A9DED051A88ED010A51
:1037000011E000BF9DED050A9DED061A88ED010A46
:10371000B1EE411A07E000BF9FED0E1A0020B0EE97
:10372000410AC8F804009FED0C2A88ED021A32EE17
:10373000400A30EE410A88ED000A0AB0BDEC048B65
:1037400001B0BDE8F08300BF3ACD133FBD378635E9
:10375000629EB5380000000017B75138017B90ED2C
:10376000000AB6EE001A0139052920EE010A53D8E5
:10377000DFE801F004361E2A104400BF90ED011A64
:1037800090ED023A30EE014A30EE031AB0EE402AD4
:103790003EE000BF90ED011A90ED022A30EE013AB2
:1037A000B0EE401A30EE020A32EE032A38E000BFD3
:1037B00090ED011A90ED022A30EE011A31EE021A54
:1037C00030EE022A2CE000BF90ED013A90ED022A83
:1037D00030EE033A30EE021A32EE032A20E000BF48
:1037E00090ED011A90ED023A30EE011AB0EE402A47
:1037F00030EE030A33EE011A12E000BF90ED011A19
:1038000090ED023A30EE014A30EE032AB0EE401A53
:1038100034EE030A04E000BFB0EE401AB0EE402AD6
:103820009FED0B3A20EE030ABDEEC00A10EE101A0F
:1038300021EE030ABDEEC00AC18110EE101A22EE7D
:10384000030ABDEEC00A018210EE101A41827047D1
:103850002416A24C90ED000A9FED141A9FED143A25
:1038600090ED012A20EE011A20EE030A9FED113A95
:1038700031EE421A0020B4EE432A30EE420AF1EE55
:1038800010FAC8BF0120B4EE431AF1EE10FAC8BF17
:103890000230B4EE430AF1EE10FAC8BF043001382A
:1038A00005288EBF012004A1085C7047D7B3DD3F17
:1038B000D7B3DDBFBD37863502060104030500001E
:1038C0007CB50C001D461646014601D0601E00E086
:1038D0000020CDE90010064B6A462946304600F02C
:1038E00041F9002C02D0009A002111707CBD00002B
:1038F0009342000810B52DED028BF0EE408A18EED1
:10390000900AB0EE608A20F00040C0F1FF40C00F86
:1039100007D118EE100A20F00040C0F1FF40C00FA0
:103920002BD018EE101A18EE900AFCF714FD00EEDA
:10393000100A10EE100A6FEAD05010F0FF0F04BF0B
:10394000BDEC028B10BD18EE900A00F0004110EEA5
:10395000100A00F00040814204BFBDEC028B10BD94
:1039600018EE101A10EE100ABDEC028B61F31E0067
:1039700000EE900A30EE600A10BD18EE900A4FF08B
:103980007F41B1EB400F1CBF18EE100A5FEA400008
:10399000C7D1012000F01EF8BDEC028BBDE810403D
:1039A000AFF30080DFED020A80EEA00A704700004E
:1039B0000000000002E008C8121F08C1002AFAD166
:1039C00070477047002001E001C1121F002AFBD19F
:1039D00070470000014908607047000000000020A7
:1039E0002DE9FF5F82B00021DDE90430020DDDF832
:1039F00040B0034318D044F61050A2F2FF324243C5
:103A00001514119801281FD0A5EB0B00401C5FEA8C
:103A1000000A4FF000064E4FDFF83891B04650468E
:103A200015D5CAF1000413E0119801244AA3012816
:103A300001D16FEA0B010298119AC0E90031C0E987
:103A4000024206B0BDE8F09FCBF10000DFE704467C
:103A50000021404A491842EB0450CDE9001012E021
:103A6000E00707D032463B4640464946FCF743FD57
:103A70008046894632463B4610461946FCF73BFDD8
:103A800006460F466410002CEAD1DDE90401DDE9A9
:103A90000023BAF1000F06DAFCF72DFD42464B4633
:103AA000FCF729FD05E0FCF798FD42464B46FCF784
:103AB00094FD04460E460022284BFCF715FE03D861
:103AC0004FF0FF30014607E00022254B20463146EB
:103AD000FCF76AFCFCF7F0FD102409E0002C0ADB7F
:103AE0000A220023FCF7CFFB039B30321A55641ED9
:103AF00050EA0102F2D1641C039AC4F11103144488
:103B0000119A012A03D0012208430DD10AE008438B
:103B100004D000204FF0110B119072E7A3EB0B05BE
:103B20006D1E0DE05B4504DD4FF0000205F101055F
:103B300004E003DA4FF00002A5F10105002AECD001
:103B400002981199C0E90231C0E9004579E7000007
:103B5000000014400000F03F300000000000F0437F
:103B60000000E03F2DE9FF4F95B09B468946064691
:103B700000250FE2252877D100242746F84A0121A5
:103B8000059400E0044316F8013F203B01FA03F0DE
:103B90001042F7D130782A2811D06FF02F033078F7
:103BA000A0F13002092A16D8059A44F0020402EB6B
:103BB000820203EB42021044761C0590EFE759F8AD
:103BC000042B0592002A03DA504244F40054059075
:103BD00044F00204761C30782E2816D116F8010F16
:103BE00044F004042A280DD06FF02F023078A0F1A1
:103BF0003003092B09D807EB870302EB4303C718EF
:103C0000761CF3E759F8047B761C30786C280FD0CB
:103C100006DC4C2817D068280DD06A2814D104E09F
:103C2000742810D07A280FD10DE044F400140AE073
:103C300044F4801401E044F440147278824202D1CA
:103C400004F58014761C761C307866280BD013DCC3
:103C5000582877D009DC002875D04528F6D04628AA
:103C6000F4D047281AD19DE118E0632835D06428A4
:103C700079D0652812D195E1702873D008DC6728C7
:103C8000F1D069286FD06E280DD06F2806D1B5E02D
:103C900073282CD0752875D0782874D05A46179977
:103CA00090476D1C75E1C4F30250022809D0032827
:103CB0000DD0D9F8001004280DD00D6009F10409C9
:103CC00067E1D9F80010EA17C1E90052F6E7D9F820
:103CD00000100D80F2E70D70F0E719F8041B8DF865
:103CE000001000208DF80100EA46012003E059F899
:103CF00004AB4FF0FF3061074FF0000102D40DE03C
:103D000008F101018846B9420FDA8045F8DB1AF85C
:103D100008100029F4D108E008F101018846814229
:103D2000FADB1AF808100029F6D105985B46A0EBDB
:103D3000080721463846179A00F094FA284400EB09
:103D4000080507E04DE029E10DE01AF8010B5A469D
:103D500017999047B8F10108F7D25B4621463846DB
:103D6000179A13E142E00A220092C4F302524FF084
:103D7000000A022A08D059F804CB032A4FEAEC7152
:103D80000AD00DE029E02AE009F1070121F007023D
:103D9000F2E802C1914609E00FFA8CFC4FEAEC719F
:103DA000042A03D14FFA8CFC4FEAEC71002907DAA0
:103DB0000A460021DCF1000C61EB02012D2202E039
:103DC000220504D52B228DF80420012203E0E2070E
:103DD00001D02022F7E7904659E00A2102E01022A4
:103DE0000DE010214FF0000A00910BE010224FF07F
:103DF000000A44F004040827009203E008224FF070
:103E0000000A0092C4F30252022A05D059F804CBEA
:103E10000021032A08D009E009F1070121F0070277
:103E2000F2E802C1914605E01FFA8CFC042A01D198
:103E30000CF0FF0C4FF00008220728D5702806D0A0
:103E4000009B83F0100353EA0A0305D00EE04022E2
:103E50008DF80420012208E05CEA010206D030223D
:103E60008DF804208DF8050002229046009B83F017
:103E7000080353EA0A030AD15CEA010201D162078E
:103E800005D530228DF804204FF001087F1E5828F8
:103E900004D034A003900EA802900DE036A0F9E7FC
:103EA00053466046009AFCF7EEF984460398825C1C
:103EB0000298401E029002705CEA0100F0D1029864
:103EC00006A9081A00F1200A600702D524F48034FC
:103ED00000E00127574502DDA7EB0A0000E00020C3
:103EE00000EB0A01009005984144401A0590E00358
:103EF00006D45B462146179A059800F0B3F90544AD
:103F0000002706E001A85A46C05D179990476D1C2E
:103F10007F1C4745F6DBE0030CD55B462146179A2C
:103F2000059800F09FF9054404E030205A4617999F
:103F300090476D1C0099481E00900029F5DC08E0B0
:103F4000029802995A460078491C029117999047A5
:103F50006D1CBAF10001AAF1010AF1DC65E1000073
:103F6000092801003031323334353637383961624F
:103F70006364656600000000303132333435363713
:103F800038394142434445460000000000F058F9EA
:103F90000544761C307800287FF4ECAD19B0284633
:103FA000BDE8F08F620700D4062709F1070222F06E
:103FB000070CFCE80223E14603F000485FEA080C26
:103FC00002D00FF2702C0DE05FEA045C02D50FF214
:103FD000682C07E05FEAC47C02D00FF2602C01E09D
:103FE000AFF2700C4FF0FF3823F00043CDF850C013
:103FF00065280CD006DC452809D046281DD0472866
:104000003DD13DE0662818D067287ED138E00021F8
:10401000112F01DB112000E0781CCDE9000106A979
:104020000EA8FFF7DDFCDDE90F010E9A03910021D8
:10403000009207F1010A04914DE04FF00040009713
:10404000CDE9011006A90EA8FFF7CAFCDDE90F02B1
:1040500003920E9B11990022DDF80CA000930492AC
:1040600011B9791C00EB010AB7EB0A0004D4C0F1C6
:10407000FF3007F1010A0490AAEB0700019044E029
:10408000012F00DA01270021112F01DD112000E0AE
:104090003846CDE9000106A90EA8FFF7A1FCDDE92D
:1040A0000F010E9A0391002104910092BA46210754
:1040B0000CD40399514500DA8A46BAF1010F05DDA7
:1040C000009AAAF10101515C302908D0B84202DA05
:1040D00010F1040F06DA0121CDE9011015E0AAF173
:1040E0000101E9E7002805DC049901440491AAEBE9
:1040F000000102E0411C514500DD8A460499401A46
:10410000401C01904FF000400290200704D4019819
:10411000504501DBCDF8048000208DF84F00029857
:104120000DF14F07B0F1004F25D02B200E900298D3
:104130004FF0020800280CDA404202902D200E9029
:1041400007E00A210298FCF788F83031029007F85E
:10415000011DB8F10001A8F10108F2DC0298002865
:10416000EFD1791E0E980870307800F0200040F0F2
:10417000450007F8020D12A8C01B00F107081498AB
:10418000007800B1012000EB0A01019801EBE07119
:1041900005984144401A401E0590E00306D45B4652
:1041A0002146179A059800F05DF8054414980078A8
:1041B00018B15A46179990476D1CE00324D55B4609
:1041C0002146179A059800F04DF805441CE0049824
:1041D000002807DBDDE90301884203DD0098405C2D
:1041E000179901E0179930205A469047049805F135
:1041F0000105401C04900198401E019004D12E201E
:104200005A46179990476D1CBAF10001AAF1010AAC
:10421000DDDC05E017F8010B5A46179990476D1C35
:10422000B8F10001A8F10108F4DC5B462146179AB9
:104230000598ABE62D0000002B00000020000000D8
:104240002DE9F041044600251E461746880404D493
:1042500005E039462020B0476D1C641EF9D528467C
:10426000BDE8F0812DE9F041044600251E46904648
:10427000C80301D5302700E02027880404D505E0D5
:1042800041463846B0476D1C641EF9D52846BDE846
:10429000F0814A68002A06D00A68531C0B6010702F
:1042A0004868401E486070470000000000000000A1
:1042B00001020304060708090000000001020304CC
:1042C00000000000920E493CB10AC93C2BC3163DC8
:1042D0002EFB483D752B7B3D04A9963D80B6AF3D36
:1042E00036BDC83D2FBCE13D73B2FA3D87CF093ED4
:1042F0008340163EB5AB223EA2102F3ECF6E3B3E12
:10430000C2C5473E0115543E135C603E7F9A6C3E29
:10431000CCCF783EC07D823E938E883E229A8E3EE0
:1043200032A0943E86A09A3EE59AA03E128FA63E09
:10433000D47CAC3EEF63B23E2A44B83E491DBE3E3B
:1043400015EFC33E53B9C93ECA7BCF3E4136D53E79
:1043500080E8DA3E4F92E03E7533E63EBBCBEB3E63
:10436000EA5AF13ECBE0F63E275DFC3EE4E7003F33
:104370003D9C033F824B063F9BF5083F6B9A0B3FEA
:10438000DA390E3FCDD3103F2A68133FD9F6153FD7
:10439000C07F183FC6021B3FD17F1D3FCBF61F3F9A
:1043A0009967223F25D2243F5636273F1594293F4F
:1043B0004AEB2B3FDE3B2E3FBB85303FC9C8323F27
:1043C000F304353F233A373F4268393F3B8F3B3F49
:1043D000F9AE3D3F67C73F3F70D8413F01E2433FE1
:1043E00003E4453F65DE473F12D1493FF8BB4B3FF1
:1043F000029F4D3F207A4F3F3D4D513F4918533F5B
:1044000031DB543FE595563F5348583F6AF2593FD8
:104410001A945B3F532D5D3F05BE5E3F2146603FD2
:1044200097C5613F5A3C633F59AA643F880F663F76
:10443000D86B673F3CBF683FA7096A3F0C4B6B3F97
:104440005E836C3F93B26D3F9ED86E3F73F56F3FB6
:104450000809713F5213723F4714733FDD0B743FDD
:104460000BFA743FC6DE753F07BA763FC58B773FC0
:10447000F853783F9812793F9DC7793F02737A3F8E
:10448000BE147B3FCDAC7B3F283B7C3FC9BF7C3F0C
:10449000AC3A7D3FCCAB7D3F23137E3FB0707E3F77
:1044A0006DC47E3F580E7F3F6D4E7F3FAB847F3F94
:1044B0000FB17F3F97D37F3F43EC7F3F11FB7F3F9F
:1044C0000000803F11FB7F3F43EC7F3F97D37F3F4E
:1044D0000FB17F3FAB847F3F6D4E7F3F580E7F3FD4
:1044E0006DC47E3FB0707E3F23137E3FCCAB7D3FDB
:1044F000AC3A7D3FC9BF7C3F283B7C3FCDAC7B3F86
:10450000BE147B3F02737A3F9DC7793F9812793F73
:10451000F853783FC58B773F07BA763FC6DE753FC5
:104520000BFA743FDD0B743F4714733F5213723F15
:104530000809713F73F56F3F9ED86E3F93B26D3F90
:104540005E836C3F0C4B6B3FA7096A3F3CBF683FE3
:10455000D86B673F880F663F59AA643F5A3C633F58
:1045600097C5613F2146603F05BE5E3F532D5D3FCD
:104570001A945B3F6AF2593F5348583FE595563FBE
:1045800031DB543F4918533F3D4D513F207A4F3F57
:10459000029F4D3FF8BB4B3F12D1493F65DE473F7D
:1045A00003E4453F01E2433F70D8413F67C73F3FC7
:1045B000F9AE3D3F3B8F3B3F4268393F233A373F9F
:1045C000F304353FC9C8323FBB85303FDE3B2E3F49
:1045D0004AEB2B3F1594293F5636273F25D2243FDF
:1045E0009967223FCBF61F3FD17F1D3FC6021B3F7D
:1045F000C07F183FD9F6153F2A68133FCDD3103F2F
:10460000DA390E3F6B9A0B3F9BF5083F824B063F12
:104610003D9C033FE4E7003F275DFC3ECBE0F63ED8
:10462000EA5AF13EBBCBEB3E7533E63E4F92E03E9D
:1046300080E8DA3E4136D53ECA7BCF3E53B9C93E0B
:1046400015EFC33E491DBE3E2A44B83EEF63B23E5D
:10465000D47CAC3E128FA63EE59AA03E86A09A3E40
:1046600032A0943E229A8E3E938E883EC07D823E3A
:10467000CCCF783E7F9A6C3E135C603E0115543E71
:10468000C2C5473ECF6E3B3EA2102F3EB5AB223E89
:104690008340163E87CF093E73B2FA3D2FBCE13D01
:1046A00036BDC83D80B6AF3D04A9963D752B7B3D18
:1046B0002EFB483D2BC3163DB10AC93C920E493C26
:1046C00000000000920E49BCB10AC9BC2BC316BD44
:1046D0002EFB48BD752B7BBD04A996BD80B6AFBD32
:1046E00036BDC8BD2FBCE1BD73B2FABD87CF09BED0
:1046F000834016BEB5AB22BEA2102FBECF6E3BBE0E
:10470000C2C547BE011554BE135C60BE7F9A6CBE25
:10471000CCCF78BEC07D82BE938E88BE229A8EBEDC
:1047200032A094BE86A09ABEE59AA0BE128FA6BE05
:10473000D47CACBEEF63B2BE2A44B8BE491DBEBE37
:1047400015EFC3BE53B9C9BECA7BCFBE4136D5BE75
:1047500080E8DABE4F92E0BE7533E6BEBBCBEBBE5F
:10476000EA5AF1BECBE0F6BE275DFCBEE4E700BF2F
:104770003D9C03BF824B06BF9BF508BF6B9A0BBFE6
:10478000DA390EBFCDD310BF2A6813BFD9F615BFD3
:10479000C07F18BFC6021BBFD17F1DBFCBF61FBF96
:1047A000996722BF25D224BF563627BF159429BF4B
:1047B0004AEB2BBFDE3B2EBFBB8530BFC9C832BF23
:1047C000F30435BF233A37BF426839BF3B8F3BBF45
:1047D000F9AE3DBF67C73FBF70D841BF01E243BFDD
:1047E00003E445BF65DE47BF12D149BFF8BB4BBFED
:1047F000029F4DBF207A4FBF3D4D51BF491853BF57
:1048000031DB54BFE59556BF534858BF6AF259BFD4
:104810001A945BBF532D5DBF05BE5EBF214660BFCE
:1048200097C561BF5A3C63BF59AA64BF880F66BF72
:10483000D86B67BF3CBF68BFA7096ABF0C4B6BBF93
:104840005E836CBF93B26DBF9ED86EBF73F56FBFB2
:10485000080971BF521372BF471473BFDD0B74BFD9
:104860000BFA74BFC6DE75BF07BA76BFC58B77BFBC
:10487000F85378BF981279BF9DC779BF02737ABF8A
:10488000BE147BBFCDAC7BBF283B7CBFC9BF7CBF08
:10489000AC3A7DBFCCAB7DBF23137EBFB0707EBF73
:1048A0006DC47EBF580E7FBF6D4E7FBFAB847FBF90
:1048B0000FB17FBF97D37FBF43EC7FBF11FB7FBF9B
:1048C000000080BF11FB7FBF43EC7FBF97D37FBF4A
:1048D0000FB17FBFAB847FBF6D4E7FBF580E7FBFD0
:1048E0006DC47EBFB0707EBF23137EBFCCAB7DBFD7
:1048F000AC3A7DBFC9BF7CBF283B7CBFCDAC7BBF82
:10490000BE147BBF02737ABF9DC779BF981279BF6F
:10491000F85378BFC58B77BF07BA76BFC6DE75BFC1
:104920000BFA74BFDD0B74BF471473BF521372BF11
:10493000080971BF73F56FBF9ED86EBF93B26DBF8C
:104940005E836CBF0C4B6BBFA7096ABF3CBF68BFDF
:10495000D86B67BF880F66BF59AA64BF5A3C63BF54
:1049600097C561BF214660BF05BE5EBF532D5DBFC9
:104970001A945BBF6AF259BF534858BFE59556BFBA
:1049800031DB54BF491853BF3D4D51BF207A4FBF53
:10499000029F4DBFF8BB4BBF12D149BF65DE47BF79
:1049A00003E445BF01E243BF70D841BF67C73FBFC3
:1049B000F9AE3DBF3B8F3BBF426839BF233A37BF9B
:1049C000F30435BFC9C832BFBB8530BFDE3B2EBF45
:1049D0004AEB2BBF159429BF563627BF25D224BFDB
:1049E000996722BFCBF61FBFD17F1DBFC6021BBF79
:1049F000C07F18BFD9F615BF2A6813BFCDD310BF2B
:104A0000DA390EBF6B9A0BBF9BF508BF824B06BF0E
:104A10003D9C03BFE4E700BF275DFCBECBE0F6BED4
:104A2000EA5AF1BEBBCBEBBE7533E6BE4F92E0BE99
:104A300080E8DABE4136D5BECA7BCFBE53B9C9BE07
:104A400015EFC3BE491DBEBE2A44B8BEEF63B2BE59
:104A5000D47CACBE128FA6BEE59AA0BE86A09ABE3C
:104A600032A094BE229A8EBE938E88BEC07D82BE36
:104A7000CCCF78BE7F9A6CBE135C60BE011554BE6D
:104A8000C2C547BECF6E3BBEA2102FBEB5AB22BE85
:104A9000834016BE87CF09BE73B2FABD2FBCE1BDFD
:104AA00036BDC8BD80B6AFBD04A996BD752B7BBD14
:104AB0002EFB48BD2BC316BDB10AC9BC920E49BC22
:104AC000000000802D2D2D2D2D2D2D2D2D2D2D2D4A
:104AD0002D2D2D2D2D2D2D2D2D2D2D2D0D0A003D66
:104AE0003D3D20E7BC96E7A081E599A8E69C89E6D4
:104AF0009588E695B0E68DAE203D3D3D0D0A00411E
:104B00004743E580BCEFBC88E7A381E59CBAE5BCE0
:104B1000BAE5BAA6EFBC89EFBC9A25640D0A00E895
:104B2000AFBBE58F96E5A4B1E8B4A5EFBC81E994ED
:104B300099E8AFAFE7B1BBE59E8BEFBC9A25640D5A
:104B40000A00E58E9FE5A78BE8A792E5BAA6EFBC21
:104B50009A256420EFBC88307E3136333833EFBC81
:104B6000890D0A00E69CBAE6A2B0E8A792E5BAA6CB
:104B7000EFBC9A252E326620C2B00D0A000000005C
:104B8000A04B00080000002018000000B439000805
:104B9000B84B000818000020F0050000C4390008D8
:104BA00000000000000020410000003F1000000055
:084BB000010000000024F400E4
:04000005080001D915
:00000001FF
