:020000040800F2
:1000000050070020ED0100088D3000080916000897
:10001000893000086D09000859320008000000000E
:100020000000000000000000000000009530000803
:10003000C509000800000000913000089930000850
:10004000070200080702000807020008070200086C
:10005000070200080702000807020008070200085C
:1000600007020008070200080702000871090008DB
:10007000070200080702000807020008070200083C
:100080000702000800000000F1080008070200084D
:1000900007020008D5090008070200080702000847
:1000A000070200080702000807020008070200080C
:1000B00007020008070200080702000807020008FC
:1000C00007020008070200080702000807020008EC
:1000D00007020008070200080702000807020008DC
:1000E00007020008070200080702000807020008CC
:1000F000070200080702000829320008000000007B
:1001000000000000070200080000000007020008CD
:1001100007020008000000000702000807020008AC
:10012000070200080702000807020008070200088B
:10013000070200080000000000000000070200089D
:10014000070200080702000800000000000000008D
:10015000000000000000000000000000000000009F
:10016000000000000000000000000000070200087E
:10017000070200080000000000000000000000006E
:10018000000000000702000800000000000000005E
:10019000000000000000000000000000000000005F
:1001A000000000000000000007020008070200082D
:1001B000070200080702000807020008000000000C
:1001C000000000000702000800000000000000001E
:1001D0000702000807020008DFF80CD000F060FBFF
:1001E00000480047F93F00085007002006488047B4
:1001F00006480047FEE7FEE7FEE7FEE7FEE7FEE70C
:10020000FEE7FEE7FEE7FEE715320008D901000829
:10021000D2B201E000F8012B491EFBD27047002248
:10022000F6E710B513460A4604461946FFF7F0FFF5
:10023000204610BD2DE9FE4F804681EA0300C00F25
:100240000C46009021F0004123F00045B8EB02007D
:10025000A94105D24046214690461C460B4602461F
:1002600023F00040104347D0270DC7F30A00C3F323
:100270000A510290401A019040286BDAC3F3130030
:1002800040F4801B0098924620B10023D2EB030A71
:1002900063EB0B0B01985946C0F14002504600F049
:1002A00055F906460D4650465946019A00F05DF94B
:1002B00010EB08006141002487EA115284EAE773D9
:1002C0001A4340D0009A62B3019A012A4FEA0752BA
:1002D00015DC001B61EB02014FF0004202EA0752FD
:1002E000CDE90042001C41F5801132462B4600F05A
:1002F000BDF903B0BDE8F08F40462146F9E7001B89
:1003000061EB0201001C41F5801300185B412018CD
:10031000A2F5001747EB030140EAD570B6196D410D
:1003200011E06D084FEA360645EAC0754FEA0752FC
:10033000001B61EB0201001C41F5801149084FEAE6
:1003400030000019514132462B4603B0BDE8F04F52
:1003500000F07DB90098012240000023D0EB02029A
:1003600063EBE073009821464FEAE074B8EB0000BD
:1003700061EB0401E9E783F000435BE781F00041B2
:1003800058E72DE9F04D81EA030404F0004B21F019
:10039000004514464FF0000A23F0004150EA0502E0
:1003A00020D054EA01021DD0C5F30A570246C5F316
:1003B0001303C1F31300C1F30A5640F4801543F44C
:1003C0008013A7EB0608101BD64608F2FD3873EB26
:1003D000050002D308F1010801E092185B41B8F171
:1003E000000F03DA00200146BDE8F08D00204FF435
:1003F0008011064684460EE0171B73EB050705D3F4
:10040000121B63EB050306434CEA010C49084FEA53
:10041000300092185B4150EA0107EDD152EA030027
:1004200012D082EA040083EA0501084305D0101BBC
:10043000AB4106D20122002306E000224FF0004328
:1004400002E06FF0010253101AEB06004CEB08516A
:1004500010EB0A0041EB0B01BDE8F04D00F0F7B8DE
:1004600000F0004230F000400AD0C10D01F560718B
:10047000C0F3160042EA0151C20840071143704719
:1004800000200146704701F0004330B421F00041E4
:1004900050EA010206D00A0DA2F56072C1F3130101
:1004A000002A02DC30BC00207047440F44EAC1043B
:1004B000C100E01830BC00EBC25000F068B830B5A5
:1004C0000B46014600202022012409E021FA02F512
:1004D0009D4205D303FA02F5491B04FA02F52844AC
:1004E000151EA2F10102F1DC30BD2DE9F05F0546D9
:1004F000002092469B4688460646814640241BE0E3
:10050000284641464746224600F0E2F953465A46FD
:10051000C01A914110D311461846224600F016F831
:100520002D1A67EB01084F4622460120002100F0FA
:100530000DF817EB00094E41201EA4F10104DFDC89
:10054000484631462A464346BDE8F09F202A04DB50
:10055000203A00FA02F1002070479140C2F12003D6
:1005600020FA03F3194390407047202A06DBCB178B
:10057000203A41FA02F043EAE07306E041FA02F35E
:10058000D040C2F12002914008431946704700292B
:10059000A8BF7047401C490008BF20F00100704709
:1005A00010B4B0FA80FC00FA0CF050EA010404BF69
:1005B00010BC704749B1CCF1200421FA04F411FABF
:1005C0000CF118BF012121430843A3EB0C01CB1D03
:1005D0004FEA00614FEA102042BF002010BC704774
:1005E00000EBC35010440029A4BF10BC7047401C4E
:1005F000490008BF20F0010010BC7047F0B400F0C3
:10060000004221F0004120F00040CE0DC30DC1F3A7
:10061000160141F40001C0F316004C42154640F4A7
:100620000000761E09E010EB440002D582F0004283
:1006300040428842F7D840005B1EB342F9DA18B155
:10064000F0BC0021FFF7ACBF2846F0BC704710B5E6
:10065000141E73F1000408DA401C41F100019218E5
:100660005B411A4301D120F0010010BD2DE9F04D8E
:1006700092469B4611B1B1FA81F202E0B0FA80F2E3
:1006800020329046FFF762FF04460F4640EA0A0018
:1006900041EA0B0153465A46084313D0114653EA28
:1006A000010019D0C8F14002504600F011F905468A
:1006B0000E46504659464246FFF748FF084305D0CC
:1006C000012004E020463946BDE8F08D00200543B6
:1006D00046EAE0762C4337430A986305E40AA0EB28
:1006E00008000022FD0A44EA47540A3002D50020DF
:1006F0000146E9E7010510196941DDE908450019DE
:100700006941BDE8F04DA2E72DE9FE4F81EA0304FF
:1007100004F0004421F0004100944FF0000B23F05E
:10072000004350EA01045ED052EA03045BD0C3F3F5
:100730000A54C1F30A552C44A4F2F3340194A0FBEB
:100740000254C1F3130141F48011C3F3130343F4C2
:10075000801301FB024400FB034E840A970A44EA1B
:10076000815447EA8357A4FB076802958D0A05FB6D
:1007700007854FEA932C04FB0C542705029D4FEA92
:10078000065847EA1637B5EB08056EEB070C870EDF
:10079000920E47EA811742EA8312A7FB0201B6EBE9
:1007A0000B0164EB00042B0D43EA0C335E1844EBA1
:1007B0001C50DA465146E7FB0201C5F313044FEA29
:1007C0000B3343EA14534FEA0432019C43EA060315
:1007D000A4F10C040294009CCDE900B4FFF746FF9D
:1007E00003B0BDE8F08F00200146F9E70EB5C10F58
:1007F00080EAE0700844CA07002140F233438DE8E4
:100800000E000A460B46FFF731FF03B000BDC1F3EF
:100810000A52C1F3130140F2FF3341F480119A42AE
:1008200002DA00200146704740F233439A42A2F2B6
:10083000334202DC524200F04BB8FFF787BE0000A3
:1008400030B5041E71F1000404DB4FF00044404257
:1008500064EB0101141E73F1000405DB1C464FF02C
:100860000043524263EB04038B4208BF824230BD17
:1008700030B5041E71F1000404DB4FF00044404227
:1008800064EB0101141E73F1000405DB1C464FF0FC
:100890000043524263EB0403994208BF904230BDCB
:1008A0001CB509480090094801900546009C06E0E7
:1008B000E06840F0010394E8070098471034AC4228
:1008C000F6D3FFF78DFC0000EC5B00080C5C000821
:1008D000202A04DB203A21FA02F00021704721FA95
:1008E00002F3D040C2F120029140084319467047FC
:1008F0004FF0A0400168490658BF70474021016091
:100900008020C5F20000016840F21002C1F50061CC
:10091000C2F200021183436809B2C3F50063538336
:1009200080681BB2C0F500600FFA80FC00EE101A60
:100930009FED0D1A02EE103A03EE10CAB8EEC00A8F
:10094000B8EEC22AB8EEC33A20EE010A22EE012A1E
:1009500023EE011A908382ED030A82ED042A82EDD0
:10096000051A03F05FBA00BF0000303BFEE700004D
:100970000020C4F202000168490740F21001C2F2EF
:1009800000010BD5D1F84630D1F84A20B1F84EC05D
:10099000C1E900320422A1F808C04260026892074F
:1009A00009D5B1F844C0D1E90F32A1F808C0C1E9B6
:1009B0000032022141600168090744BF08214160FB
:1009C0007047000070470000EFF3108072B600BF60
:1009D000FEE7000040F24420C2F2000000F0C6B979
:1009E00080B500F051FD02F059FB01F0CFFF02F09D
:1009F00077FA01F04BFC01F063FD01F053FF01F0C9
:100A0000DDFE02F05FF902F01DFE01F0C7FE01F00D
:100A1000ADFF02F065F802F0D7F802F031FF28B11F
:100A2000014605A002F048FEFEE700BF0AA0BDE8AF
:100A3000804002F041BE00BFE7BC96E7A081E59987
:100A4000A8E5889DE5A78BE58C96E5A4B1E8B4A55B
:100A50003A2025640D0A0000E7BC96E7A081E599DD
:100A6000A8E5889DE5A78BE58C96E68890E58A9FAA
:100A70000D0A0000B0B5044600F0F2FC054640F255
:100A80000400C2F200004068611C18BF044400BFAB
:100A900000F0E6FC401BA042FAD3B0BD10B590F8C0
:100AA0005C30013B012B69D800685FEA417ED0F8D9
:100AB00058C00CF0010300D01BB311F0380F02D066
:100AC0001CF002041DD011F4E07F02D01CF00404DD
:100AD00017D011F4F05F02D01CF0080411D011F40B
:100AE000604F02D01CF010040BD011F4403F02D034
:100AF0001CF0200405D011F47C0F06D01CF040043B
:100B000003D1C46D44F00104C465BEF1000F18BFE9
:100B1000002B3BD111F0380F18BF1CF0020335D168
:100B200011F4E07F18BF1CF004032FD111F4F05F23
:100B300018BF1CF0080329D111F4604F18BF1CF036
:100B4000100323D111F4403F18BF1CF020031DD126
:100B500011F47C0F18BF1CF0400317D10B061BD4F7
:100B6000CB0504D5D0F8E0301A43C0F8E02000F1FE
:100B70005402002013681943116010BD00F1600297
:100B80000120022113681943116010BDC36D43F0A9
:100B90000203C3650B06E3D5D0F8DC301343C0F87D
:100BA000DC30CB05DED4E2E790F85C20013A012A84
:100BB00014D880B50A68BAB101F1040E9EE8045059
:100BC000D1E90431406C43EA4E7E41EA8C7100EB7E
:100BD000C20340F832E05960002080BD016E41F050
:100BE0000201016601207047D1E90323D1E901CE5A
:100BF000D206496942EA8E7242EA0342006C11430E
:100C000040F82C10002080BD7047000070470000A5
:100C10002DE9F04390F85C70022F0FD10468402951
:100C2000A44613D15CF8907F3F071BD0DCF800701E
:100C30004FF0480EFF0113D509251CE0016E41F06D
:100C4000080101660120BDE8F08300BF5CF8987FD1
:100C50003F0707D0DCF800704FF04C0EFF0109D4BD
:100C600000240DE0016E41F4807101660120BDE8B1
:100C7000F08300BF0825D4F88040EC4004F0010464
:100C8000DCF80070C7F3012707EB040C50F80E7076
:100C90000CEBCC0657F8365007EBC60E15F0804526
:100CA000556057F8365025F0604408BFC5F38A44B4
:100CB000146057F8365005F00055956057F83640E7
:100CC00004F000441461BEF80440D461BEF806404C
:100CD00014F00F04D460DEF8044004F4801454616E
:100CE000DEF8044004F4001494619EF8074004F018
:100CF0007F041462DEF804404FEAD474546228D0B2
:100D000045F2D8380024C0F6000800BF0EEB0406F8
:100D1000377A651C1F55D76818F80770BD4218D27E
:100D2000757A1F197D70D56818F80590A51C4D457A
:100D30000FD2B57ABD70D56818F80590E51C4D4501
:100D400007D2F57A0434FD70D56818F80550AC4226
:100D5000DCD3006840290CBFC0F894C0C0F89CC028
:100D60000020BDE8F0830000704700002DE9F04F3F
:100D700085B004460068016D426DD0F850B0456DF5
:100D8000076D466D036D01EA02080493436D0393FA
:100D9000036D0293436D0193D0F854A0D0F85090A6
:100DA0005FEA496307D51AF0400104D0402101658C
:100DB0002046FFF7D9FF0BEA050B5FEAC95008F49C
:100DC000E0550ED51AF480700BD02068D0F8D810FA
:100DD000D0F8E02011404FF480720265204600F008
:100DE0005DFA37400BF007062DB1206829460565EE
:100DF000204600F057FA07F038052EB1206831463A
:100E00000665204600F0DEF92DB12068294605650B
:100E1000204600F027FA5FEA895009D51AF40070DD
:100E200006D020684FF400710165204600F03CFABE
:100E30005FEA09600DD51AF080000AD02068D0F86A
:100E4000D410D0F8DC20114080220265204600F04A
:100E500027FA5FEA894009D51AF4005006D02068C5
:100E60004FF400510165204600F016FA5FEA094090
:100E7000DDE9011000EA010509D51AF4004006D0A9
:100E800020684FF400410165204600F003FADDE9D7
:100E9000031008405FEA494105F460210AD51AF4BD
:100EA000804207D022684FF480431365226E42F0DF
:100EB0008002226600F4710521B120680165204698
:100EC000FFF7A4FE25B120680565206E2843206643
:100ED000206E28B1204605B0BDE8F04FFFF794BE64
:100EE00005B0BDE8F08F0000002804BF0120704766
:100EF000F0B581B0044690F85C0028B9002084F871
:100F00005D00204600F018F92068816921F0100189
:100F1000816100F0A5FA054620688169090705D5B9
:100F200000F09EFA401B0B28F6D310E0816941F0D7
:100F30000101816100F094FA054600BF21688869CB
:100F4000C0070FD100F08CFA401B0B28F6D3206E9F
:100F5000032140F001002066012084F85C1001B0FC
:100F6000F0BD00BF4AF200408A69C4F20000A0F55B
:100F7000804342F0020299428A6105D162684CF2D4
:100F80000013CFF6FF73C250227C8B69012A23F035
:100F9000400318BF40338B61627C8B69012A23F4C4
:100FA000804308BF03F580438B61A27C8B69012AD3
:100FB00023F4805318BF03F580538B618D69D4E906
:100FC00002E325F4407545EA0E058D618D6925F033
:100FD000A4058D610D6925F010050D61A3B1012BEC
:100FE0000ED0022B09D08D69032B45F080058D6151
:100FF0000D6945F010050D6106D1202301E000BF09
:1010000004238D692B438B61D4E90535D4E9072688
:101010006FF0FF0C013D0CEB0222002742EA456213
:10102000751ECFF6FF772A4307EB03431A43BEF53D
:10103000407FCA6110D104F124064CCE256B013BE0
:101040000CEB062633436FF00F0606EB0516334311
:1010500007EB02421A43CA6004F134078CCFD1F87F
:10106000C0603743C1F8C0702064D1F880704AF284
:10107000704627F4F817C4F2000647EA0242C1F8A6
:1010800080206664D1F8802022F0706242EA036218
:10109000C1F8802006F14001A16406F58C71E1647D
:1010A00006F5F871216506F502716165002106F506
:1010B000037200BFC0E90011C0E90211C0E90411C8
:1010C000C0E90611C0E90811C0E90A11C0E90C1114
:1010D000C0E90E11C0E91011C0E91211C0E91411E4
:1010E000C0E91611C0E91811C0E91A11C0E91C11B4
:1010F000C0E91E11C0E92011C0E92211C0E9241184
:10110000C0E92611C0E92811C0E92A11C0E92C1153
:10111000C0E92E11C0E93011C0E93211C0F8D01079
:10112000904200F1D400C5D300200121A0652066C3
:1011300084F85C1001B0F0BD80B586B0006846F25E
:101140000042C4F2000200219042CDE90411CDE931
:101150000211019102D006B080BD00BF41F24C00E7
:10116000C4F20200C26B022363F31962C263C26855
:1011700042F00072C260C26802F000720092009AEF
:10118000026842F002020260006800F00200009073
:1011900000984FF44070CDE901030920059040F21A
:1011A0000040CDE90311C4F6000001A900F07EF86B
:1011B00015200021002200F0CBF9152000F0B6F92F
:1011C00006B080BDC90728D0016846F20042C4F2CB
:1011D0000002914218BF7047B0B540F26005C2F2FC
:1011E000000505F138026B1C40210446FFF710FD95
:1011F00020B10AA002F060FAFFF7E6FB20460121C9
:1012000000220124FFF74AFC20B10CA002F054FA9E
:10121000FFF7DAFB2C70BDE8B040704748414C5FE7
:10122000464443414E5F47657452784D6573736120
:101230006765206661696C65640D0A0048414C5F12
:10124000464443414E5F41637469766174654E6FF5
:1012500074696669636174696F6E206661696C6543
:10126000640D0A007047000090F85C1001290BD152
:10127000022180F85C1001688A6922F001028A610B
:101280000021016600207047016E41F004010166F3
:101290000120704770470000704700007047000051
:1012A0007047000070470000704700002DE9F04FC4
:1012B00083B00E68002E00F0CF8000F1200241F2D2
:1012C000004C009200F13847C4F6000C06224FEAA9
:1012D000B725604508BF0522052D38BF4FEAB72264
:1012E000002500274FF0000801920AE00E6808F17F
:1012F000010836FA08F207F1020705F1040500F0CB
:10130000AB80012202FA08FE16EA0E09EED0D1F8EF
:1013100004C003220CF0030BABF1010602FA07F440
:10132000012E6FEA040A11D88468CE6804EA0A0420
:10133000BE4034438460446824EA0E06CCF30014B3
:1013400004FA08F42643466006E000BFBBF1030F31
:1013500002D14FF0030B21E0C6688C6806EA0A064A
:10136000BC402643BBF1020FC66017D16FF00302E9
:10137000009B02EA580605F01C020F2453F806C031
:1013800004FA02FE0C692CEA0E0C04FA02F242EA9C
:101390000C029A51D1F804C00CF0030B02680BFA4E
:1013A00007F302EA0A021A431CF4403F02609DD090
:1013B00041F26003C4F202031A6840F2004E42F0A8
:1013C00001021A601A68C4F2010E02F001020292D0
:1013D000029A28F003024FF6084C7244CFF6FF7CC5
:1013E00052F80C3005F00C060F24B440A343019CC6
:1013F00004FA06F6334342F80C30DEF808204B6856
:1014000042EA090640F20C4CDC0258BF22EA090607
:10141000CEF80860C4F2010CDCF800209C0242EA1D
:10142000090658BF22EA0906CCF80060DEF804205D
:101430009C0342EA090658BF22EA0906CEF8046076
:10144000DEF80020DB0342EA090658BF22EA09065B
:10145000CEF800604AE700BF03B0BDE8F08F00009F
:1014600040F24830C2F200000068704740F20400C9
:1014700040F24831C2F20000C2F2000140680A683E
:10148000104408607047000080B5032000F08CF81D
:101490000F2000F009F800281CBF012080BD00F0DB
:1014A0002BF8002080BD0000B0B540F20405C2F268
:1014B00000056968F1B1044640F20C00C2F2000078
:1014C0004FF47A720068B2FBF1F1B0FBF1F000F07A
:1014D00085F801460F2C4FF001000AD8002918BFEB
:1014E000B0BD4FF0FF302146002200F031F800205F
:1014F0002C60B0BD0120B0BD82B041F25800C4F2F2
:101500000200816841F001018160816801F0010100
:1015100001910199016841F080510160006800F07B
:1015200080500090009802B000F04EB8002848BFEC
:10153000704700F01F01012202FA01F11C2202EAA9
:10154000D0004EF20012CEF200028150704700002F
:1015500010B54EF60C5CCEF2000CDCF80030C3F394
:10156000022E8EF00704042C28BF0424BEF10303CE
:101570004FF0FF3E0EFA04F438BF0023A143994018
:101580000EFA03F39A43114300F00F0200F1604397
:101590000901043A03F564436244002848BF02F19C
:1015A0000C03197010BD00004EF60C51CEF2000174
:1015B0000A684FF6FF031A4060F30A2242F0806087
:1015C00040F0FD700860704747F20800C4F2000068
:1015D000016841F48041016070470000411E002015
:1015E000B0EB116F1CBF012070474EF21002CEF21B
:1015F000000251604EF62351CEF20001F0230B7031
:101600000721906011607047FEE700000822C5F2D4
:1016100000021368D2F800211A43D2071CBF012030
:10162000704780B5D1E900C3826843F2E00ECFF67F
:10163000C07E0EEA020E5BB1D1E90212114341EA0B
:101640000E0141EA0C0119438160002080BD00BFFA
:101650004EEA0C018160002080BD00008268D20744
:101660001CBF0120704780B5D1F804C0C368BCF12D
:10167000000F23F0047E05D0D1E902231A4342EA89
:101680000E0302E0CA684EEA0203C360C26C40F275
:10169000FF1309689A43114341EA0C01C164002019
:1016A00080BD00008268D2071CBF01207047C2685D
:1016B0004CF2180322EA030CD1E90032896843EAAC
:1016C0000C031A431143C160002070478268D2079F
:1016D0001CBF01207047B0B5D1E900C2C3684CF20D
:1016E0001C0ECFF6F07E0EEA030E3AB101F10805AA
:1016F00038CD496923432B4304E000BFD1E90334CB
:1017000049692343194341EA0C0141EA0E01C160D2
:10171000016B21F00F01114301630020B0BD0000F7
:1017200070B5036801F01004E340DB071CBF012023
:1017300070BDD2F808E0D0F800C0BEF1000F21D093
:10174000BEF1C00F24D1C023A34043EA0C030360C1
:10175000D0F860C040F60F73A3402CEA030CD2E926
:1017600000E36FF0C00606EA831343EA9E03D568E0
:10177000A340C1F3C01143EA0C0300EB81010366EF
:101780008D6512E0FC21A14013682CEA010109E0FB
:101790001368D56840F6FC71A1402B432CEA010187
:1017A00043EA0E03A34019430160C16B0723A34022
:1017B0009943D2E90436926933431A43A240114354
:1017C000C163002070BD00002DE9F041D2E9028420
:1017D00002F11007E0CF44EA08042C4319A5D369AD
:1017E00034436D5C3C43D2E900CE2343946A2E58C7
:1017F00047F6F0772343BE432C1833432B50C4F8ED
:101800000CE0C4F808C0136A67684FF6FF76B74368
:101810003B4363606FF0070303EAD01080F40000DD
:1018200080F48060890040F6000301EB8001C4F27F
:101830000203526AC85820F0FF0002430020CA5039
:10184000BDE8F081081C3044586C00002DE9F04FD1
:101850000C6894FAA4F2B2FA82F234FA02F361D07C
:101860004FF001084FF0030B0BE000BFD1E9004738
:101870000568B7402B403B430360013234FA02F362
:1018800050D008FA02F314EA030CF6D0D1F8049011
:10189000A9F10103022B9CFAACF319D2B3FA83F736
:1018A0007E00D0F808A00BFA06F3D1E902BE2AEABE
:1018B000030A0BFA06F545EA0A05856045684FF00C
:1018C000030BA5430EFB04F4DB432543456005E011
:1018D000B3FA83F77E000BFA06F3DB430D69C468A5
:1018E000B5401C402543B9F1020FC560BED14FEA97
:1018F0001C2494FAA4F4D1F814E0BCF5807F28BF2E
:10190000B4FA84F74FF0240438BF202450F804C000
:10191000BF000F25BD402CEA05050EFA07F72F433F
:101920000751A3E70020BDE8F08F0000C0281FD1B9
:1019300041F20C01C4F20201C86FC0F38110032808
:1019400022D0022816D0012826D151F8040C00F02C
:101950000C0242F200400C2AC0F2F4002ED0082AF9
:1019600018BF704741F60030C0F2B700704700BFA3
:101970000020704751F80C0C42F200414005C0F2C3
:10198000F40101EAE0707047D1F884004FF400419F
:1019900001EA8030704700BF51F8040C00F00C02DF
:1019A00042F200400C2AC0F2F40023D0082A3CD1B5
:1019B00041F60030C0F2B70037E000BF0A6802F01D
:1019C0000302032A04BF41F60030C0F2B7000A68E0
:1019D0000B68C2F306225043C3F3031209680132B5
:1019E000B0FBF2F0C1F34161022202EB4101B0FB16
:1019F000F1F070470A6802F00302032A04BF41F6BF
:101A00000030C0F2B7000A680B68C2F306225043E8
:101A1000C3F303120B680132B0FBF2F0C3F341626F
:101A2000022303EB4202B0FBF2F051F8042C45F222
:101A3000C033C2F30312C0F600039A5C51F8041CD1
:101A400045F2D033C1F30221C0F60003595C02F025
:101A50001F02D04001F01F01C8407047302859D004
:101A60000C282DD003281CBF0020704741F20C0128
:101A7000C4F20201C86F4FF4404262F39F00B0F11C
:101A8000031F50D00222C0F20302904238D001223C
:101A9000C0F20302904220D051F8040C00F00C0276
:101AA00042F200400C2AC0F2F40000F09D80082AA7
:101AB00040F0B58041F60030C0F2B700AFE000BFA3
:101AC00041F20C01C4F20201C86FC0F38100032887
:101AD00029D0022814D001282CD151F8040C00F090
:101AE0000C0242F200400C2AC0F2F40034D0082A62
:101AF00018BF704741F60030C0F2B700704700BF12
:101B000051F80C0C42F200414005C0F2F40101EA28
:101B1000E070704741F20C01C4F20201C86FC0F3DB
:101B200001100328D5D1D1F884004FF4004101EA17
:101B30008030704751F8040C00F00C0242F2004073
:101B40000C2AC0F2F40023D0082A3CD141F6003020
:101B5000C0F2B70037E000BF0A6802F00302032AB0
:101B600004BF41F60030C0F2B7000A680B68C2F348
:101B700006225043C3F3031209680132B0FBF2F0AE
:101B8000C1F34161022202EB4101B0FBF1F0704769
:101B90000A6802F00302032A04BF41F60030C0F2D3
:101BA000B7000A680B68C2F306225043C3F303125E
:101BB0000B680132B0FBF2F0C3F34162022303EB86
:101BC0004202B0FBF2F051F8042C45F2C033C2F3EC
:101BD0000312C0F600039A5C51F8041C02F01F02C5
:101BE000C1F302212AE000BF0A6802F00302032ABF
:101BF00004BF41F60030C0F2B7000A680B68C2F3B8
:101C000006225043C3F303120B680132B0FBF2F01B
:101C1000C3F34162022303EB4202B0FBF2F051F83E
:101C2000042C45F2C033C2F30312C0F600039A5CE1
:101C300051F8041C02F01F02C1F3C22145F2D03357
:101C4000C0F60003595CD04001F01F01C840704746
:101C50000246006840063BD42DE9F04710684FF675
:101C6000BF73D1E9009E20EA030CD1E9024A4CEA95
:101C70000905D1E9046701F1180845EA0E0598E85D
:101C8000090145EA0A052E4330431843384340EA28
:101C900008001060506840F60473984340EA17400B
:101CA00000232043B3EBD42F506003D1506840F49D
:101CB00080505060B8F5005FBDE8F04704BF888CE5
:101CC00010610020D16921F40061D161704700BF2B
:101CD0000120D16921F40061D161704740F20C010B
:101CE000C2F200010860704740F2FF7C02460068C3
:101CF000C4F2000C624523DD40F60003C4F2000389
:101D00009A4226D043F20043C4F201039A4220D003
:101D100042F60043C4F201039A421AD043F2FF3361
:101D2000C4F201039A421EDC62452FDCB2F1804FFF
:101D300046D040F20043C4F200039A4240D043E050
:101D4000B2F1804F05D040F20043C4F200039A4242
:101D5000E4D14B6820F07000184343F2FF33C4F223
:101D600001039A42E0DD44F2FF33C4F201039A42D8
:101D70001ADC43F20043C4F201039A4220D044F239
:101D80000003C4F201039A421AD01DE040F600039A
:101D9000C4F200039A4213D042F60043C4F2010396
:101DA0009A420DD010E000BF44F60003C4F20103D4
:101DB0009A4205D044F20043C4F201039A4203D18F
:101DC000CB6820F44070184310608868D062A2F19C
:101DD0008040A0F596300B884FEAB0200728936228
:101DE00007D8012303FA00F010F0E50F1CBF0869C3
:101DF0001063506940F001010020516170470000FC
:101E00002DE9F041B1F5805F4FF0010350DA01296F
:101E100000F08E80102900F01781B1F5807F40F02E
:101E20009681016A40F2FF1621F480710162036A13
:101E30004168D0F81CC0146923F440732402B443F1
:101E40002343A0F18044D2E900E5A4F596344FEA9B
:101E5000B424072C43EA05231CD8012505FA04F411
:101E600014F0E50F16D002F1140898E8600140F272
:101E7000FF77AD0223F440639468BD432B4343EAEC
:101E80008423340142F20F0521F44051AC43214335
:101E900041EA48114FF68C74CFF6FE740CEA040741
:101EA00047EA0E074160C761D168C16303624DE133
:101EB00000F08280B1F5803F00F00E81B1F5801F07
:101EC00040F04581016AA0F1804521F48011016252
:101ED000A5F59635046A036DD2E900EC11694FEA65
:101EE000B525072D0DD8012606FA05F515F0E50FE5
:101EF0001FBF4568966925F4802545EA862518BFE9
:101F000045600025CFF6E07524F4401405EA015140
:101F1000214348F6FF44CFF6FF6404F540742340A4
:101F200043EA0E230365D26841EA0C51C2640CE116
:101F3000016A21F001010162036A4168D0F818C00A
:101F4000146923F0030324F001042343A0F1804427
:101F5000D2E900E5A4F596344FEAB424072C43EA0D
:101F600005031AD8012505FA04F414F0E50F14D07E
:101F700002F1140898E860016FF0040723F00C03E5
:101F8000946807EA85052B4343EA840321F44071F2
:101F900026F40074214341EA48014FF68C74CFF6D1
:101FA000FE740CEA040747EA0E0741608761D168B6
:101FB00041630362CAE000BF016A41F6FF7621F483
:101FC00080510162036A4168D0F81CC0146923F48F
:101FD00040532403B4432343A0F18044D2E900E5F5
:101FE000A4F596344FEAB424072C43EA05331CD8F1
:101FF000012505FA04F414F0E50F16D002F11408D7
:1020000098E8600147F6FF77AD0323F440439468F6
:10201000BD432B4343EA8433B40148F23F0521F426
:102020004041AC43214341EAC81148F6FF44CFF692
:10203000FF640CEA040747EA0E274160C761D168D4
:102040000164036282E000BF016A6FF0100621F0B4
:1020500010010162036A4168D0F818C0146923F0C6
:10206000300306EA04142343A0F18044D2E900E5DA
:10207000A4F596344FEAB424072C43EA05131CD880
:10208000012505FA04F414F0E50F16D002F1140846
:1020900098E860016FF0400723F0C003946807EAF6
:1020A00085152B4343EA8413B40040F6030521F45D
:1020B0004061AC43214341EAC80148F6FF44CFF6F2
:1020C000FF640CEA040747EA0E2741608761D16884
:1020D000816303623AE000BF016AA0F1804521F408
:1020E00080310162A5F59635036AD0F850C0D2E977
:1020F00000E114694FEAB525072D0DD8012606FA2F
:1021000005F515F0E50F1FBF4568966925F4803584
:1021100045EA062518BF45600025CFF6E07505F5B0
:10212000F01523F4403305EA0444234343EA014114
:102130004FF68C73CFF6FE73033303EA0C0343EAC6
:102140000E030365D268836C826401620023184623
:10215000BDE8F08170B504460068C0071CBF0120CF
:1021600070BD0E46206846F6F311CEF6FF710840AA
:10217000D6E9021CD6E904320843F5691843104336
:1021800028432060606820F4405040EA0C00606002
:10219000B069A16821F440710843A06044F6FF30A3
:1021A000C4F2000084424FF0010011DC44F200410F
:1021B000C4F200018C421DD044F60001C4F20001BB
:1021C0008C4244D13020FFF749FCE8B936E000BF2B
:1021D00044F60041C4F200018C4211D043F60001E4
:1021E000C4F201018C4232D10320FFF737FC58B909
:1021F00024E000BF0C20FFF731FC28B91EE000BF2F
:10220000C020FFF793FBC8B17168B9B132680B2ADF
:102210001CD812A353F82220F369B0FBF2F0B3F5F7
:10222000004F0DD1400000EB5100B0FBF1F04FF634
:10223000F0710140C0F34200084406E0012006E0CE
:1022400000EB5100B0FBF1F080B2E060002031887B
:10225000E26A22F00F021143E16270BD010000004A
:10226000020000000400000006000000080000005A
:102270000A0000000C000000100000002000000018
:102280004000000080000000000100002DE9F04146
:1022900092B0002741F24C001097CDE90E77CDE9BE
:1022A0000C77CDE90A77CDE90877CDE90677CDE956
:1022B0000477CDE90277CDE90077C4F20200C16B63
:1022C000022565F31D71C1630168082441F40051C2
:1022D00001600168032601F4005111911199016810
:1022E000C5F2000441F0010101600068694600F098
:1022F000010011901198072000904FF09040019636
:102300000497FFF7A3FA0EA94FF0A040CDE90E778E
:1023100010974FF0A048FFF7C5F94FF44030CDE9D2
:102320000A0704F53E700AA9FFF770F9A82006A96C
:10233000A1C106A94FF0A0400997FFF78FF9606887
:102340004FF6FF71C7F6DF71084000F10040606092
:10235000606C012161F3C810606420684FF6C072A0
:10236000C5F6FF7210402060206802F180521040D4
:1023700000F180502060606C61F34D206064E06883
:10238000102166F3C500E060D4F8A80020F0020038
:10239000C4F8A800606C65F3D3306064E06866F34D
:1023A0008810E060D4F8A80020F00400C4F8A80069
:1023B000606C66F359506064E06866F34B20E0603F
:1023C000D4F8A80020F00800C4F8A8004020C8F8FD
:1023D000000054F8040C40F0400044F8040C4EF2A5
:1023E0001240CEF20000017020684FF6C071C3F6B3
:1023F000FF71084000F10040206000BF2068B0F18C
:10240000FF3F0ADC2068B0F1FF3F06DC2068B0F136
:10241000FF3F02DC20680028F0D4A06D4FF20001DD
:10242000C0F2FF314B220840C8F200421043A065C1
:10243000A06D40F08070A065A06D40F00070A065B8
:10244000E06D0840104300F18060E065E06D40F011
:102450008070E065E06D40F00070E065206E08403F
:10246000104300F100602066206E40F0807020660E
:10247000206E40F00070206621684FF6C070C7F6ED
:10248000FF700140013121604FF0A0410A68D2077E
:1024900009D10A68D20704BF0A685FEAC27202D192
:1024A0000A68D207F2D04FF0A04101220A602168E9
:1024B000084040F00800206012B0BDE8F081000044
:1024C0002DE9F04F9FB00DF118084FF6C07940F29A
:1024D000081640F2080B002740462C21C7F6FF796A
:1024E000C5F20006C4F2020B1D97CDE91B77CDE9BA
:1024F0001977CDE91777CDE91577CDE91377CDE9D0
:102500001177FDF78CFE41F24800CDE90477CDE963
:102510000277CDE90077C4F20200016C022262F377
:102520001D7101644168032441F400514160416818
:1025300001F400511E911E99416841F0040141606F
:10254000416801F004011E911E99016841F00101EA
:102550000160016801F001011E911E99016841F0BE
:10256000040101600068694600F004001E901E9896
:102570001F20009040F60000C4F60000019404976C
:10258000FFF764F9A6F108051BA92846CDE91B77DA
:102590001D97FFF787F80420CDE916074FF4005088
:1025A000CDE918044FF4805A15A928461597CDF89F
:1025B00068A0FFF78BF8D6F8B80043F6FF718843A0
:1025C000C6F8B800B06840F2034120F48030B06033
:1025D000B0688843B06011A92846CDE91377FFF7AA
:1025E0003DF8B06A062161F38A10B062F1680520F7
:1025F00060F39441F160D6F8A810072221F0400161
:10260000C6F8A810B16A62F31031B162F16808220D
:1026100060F35751F160D6F8A81021F08001C6F898
:10262000A810B16A62F39641B162F168092260F3C1
:102630001A61F160D6F8A81021F48071C6F8A810CC
:10264000B16A62F31C61B162F168424660F3DD6118
:10265000F160D6F8A81021F40071C6F8A810F16A4C
:1026600060F30401F162F16860F3D131F160D6F8F2
:10267000A800002120F02000C6F8A80024200F9018
:102680002020CDE9090780200B904FF480700C903A
:102690004FF480600D900A200E9006F138000690ED
:1026A00040F21000C2F200003C300790ABF108008D
:1026B0000897CDF840A0FFF787F8DBF8000030213D
:1026C00040F00400CBF80000DBF8000040F002000E
:1026D000CBF80000DBF8000040F00800CBF8000069
:1026E0004EF20B40CEF2000001704EF20010CEF21E
:1026F00000004FF400610160306809F1604108405A
:102700003060306809F17041084000F1805030605D
:1027100030684FF6C071C3F6FF71084000F1004009
:10272000306000BF3068B0F1FF3F0ADC3068B0F1C4
:10273000FF3F06DC3068B0F1FF3F02DC3068002864
:10274000F0D4DBF8000040F00100CBF800000120DD
:10275000FEF790F9306800EA090040F001003060AF
:1027600056F8080CC0070CD156F8080CC00704BF77
:1027700056F8080C5FEAC07003D156F8080CC00781
:10278000EED0012046F8080C306800EA090040F05D
:10279000040030601FB0BDE8F08F000081B041F24E
:1027A0004800C4F20200016841F0080101600068BD
:1027B00000F008000090009801B0704770B58EB02E
:1027C000002541F24C000C95CDE90A55CDE908559C
:1027D000CDE90655CDE90455CDE90255CDE90055C1
:1027E000C4F2020001686C4641F480310160016866
:1027F000032601F480310D910D99016841F001012A
:1028000001600068214600F001000D900D98102035
:1028100000904FF0904001960495FFF717F82020A4
:10282000CDE900064FF0904021460495FFF70EF8E1
:1028300040F63C06C5F200063068A6F13C0420F4E0
:1028400000703060CDE906550895CDE90A550C9524
:10285000012106ADC0F2112120462A46FEF760FF95
:1028600056F83C0CF22120F0020046F83C0C30688F
:10287000C3F2425120F48070306030682A4620F064
:10288000007030602046FEF74BFF56F83C0C20F4F9
:10289000003046F83C0C306820F0807030600EB09C
:1028A00070BD0000B0B586B040F2442046F2004151
:1028B000C2F20000C4F200010024C0E900140A21A1
:1028C00001250822C0E90244C0F80F40C0E90515FF
:1028D000C0E90722C0E90955C0E90B55C0E90D441C
:1028E000C463FEF701FB002818BFFEF76DF8022055
:1028F000CDE90205049040F2FF70059040F24420BB
:10290000C2F200006946CDE90044FEF74DF9002807
:1029100018BFFEF759F840F26004C2F2000401202B
:102920000021C4E9050140F244200822C2F200005F
:10293000C4E90712C4E90911C4E90B116163FEF788
:1029400093FC002818BFFEF73FF840F24420C2F283
:102950000000012100220025FEF7A0F8002818BF82
:10296000FEF732F8257006B0B0BD000081B041F22C
:102970004800C4F20200016841F0100101600068E3
:1029800000F010000090009801B070472DE9F04F62
:1029900087B0002641F24C00CDE90466CDE902661D
:1029A000CDE90066C4F20200016840F2004441F043
:1029B000200101600168C4F6000401F020010691C5
:1029C00006990168012741F00401016001684FF098
:1029D000020B01F004010691069901684FF0040A08
:1029E00041F00101016001684FF4805801F00101DC
:1029F0000691069901686D4641F002010160006888
:102A00004FF4004100F00200069006984FF628406F
:102A1000CFF6FF70A762C4F828B0C4F828A0C4F8A5
:102A2000288021504020A0628020A0624FF003093E
:102A300020462946CDE90077CDE902960496FEF7B7
:102A400005FF20462946CDE900B7CDE90296049658
:102A5000FEF7FCFE20462946CDE900A7CDE9029607
:102A60000496FEF7F3FE20462946CDE90087CDE91E
:102A700002960496FEF7EAFE4FF48070CDE9000658
:102A80004FF0904029460496FEF7E0FE4FF40070A8
:102A9000CDE900064FF0904029460496FEF7D6FE99
:102AA0004FF400408DE881024FF090402946CDE977
:102AB0000366FEF7CBFE40208DE8810220462946C2
:102AC000CDE90366FEF7C2FE80208DE88102204634
:102AD0002946CDE90366FEF7B9FE07B0BDE8F08FE1
:102AE0002DE9F04F91B00DF1180840462821FDF76F
:102AF00096FB002741F24C00CDE90477CDE902773F
:102B0000CDE90077C4F20200416940F2004541F48A
:102B1000805141614169C4F6000501F48051109172
:102B2000109901686E4641F00201016000684FF0A3
:102B3000020900F0020010901098082000904FF059
:102B4000030A052428463146CDF80490CDE902A7B2
:102B500004970594FEF77AFE4FF0200B2846314685
:102B6000CDE900B9CDE902A7CDE90474FEF76EFE08
:102B70004FF4827007904FF47060CDE90807012090
:102B80000A904FF4007043F20404CDE90B0B0720C8
:102B9000C4F201040F90201F41460697CDE90D773E
:102BA000FFF756F8206820F010002060206840F001
:102BB0000800206054F8040C40F0400044F8040C75
:102BC00011B0BDE8F08F00002DE9F04F91B00DF18C
:102BD000180840462821FDF722FB002741F24C004F
:102BE000CDE90477CDE90277CDE90077C4F20200A0
:102BF000C16840F2004541F48041C160C168C4F63B
:102C0000000501F480411091109901686E4641F071
:102C10000201016000684FF0020900F0020010900C
:102C200010984FF4005000904FF0030A05242846F6
:102C30003146CDF80490CDE902A704970594FEF73C
:102C400005FE4FF480408DE801064FF0010B284649
:102C500031460397CDE904B4FEF7F8FD4FF4004088
:102C60008DE8010628463146CDE903770594FEF745
:102C7000EDFD4FF4827007904FF4706008A981E871
:102C800081084FF4007043F604040B902020C4F236
:102C90000004CDE90C07201F414606970E97FEF76A
:102CA000D7FF206820F010002060206820F0080086
:102CB000206054F8040C40F0400044F8040C11B0BB
:102CC000BDE8F08F2DE9F04F95B0002641F24C0B96
:102CD0001396CDE91166CDE90F66CDE90D66CDE914
:102CE0000B66CDE90966CDE90766CDE90566CDE954
:102CF0000366CDE90166C4F2020BDBF8140043F26F
:102D0000004440F40050CBF81400DBF81400C4F287
:102D1000010400F400501490149841F299006025C9
:102D2000CDE911060FA92046ADF83C601095139629
:102D3000FEF7DAFF20684BF6F87120F08000206083
:102D4000A068CFF6FE710840A060A06940F64C076D
:102D500040F00800A0610795012007ADCDE908000B
:102D6000204601212A46CDE90A76CDE90C660E9669
:102D7000FFF746F8A069102120F00400A061A069C7
:102D80002A4640F40060A06120460A974FF0100ADE
:102D9000FFF736F8A0694FF4807120F48060A061DD
:102DA000E0692A4640F00800E06120460A974FF4A7
:102DB0008078FFF725F8E069702720F00400E061D3
:102DC000E0694FF4805140F40060E06140F6E110AA
:102DD0000A9020462A46CDE9077609964FF4805995
:102DE000FFF70EF8206D4FF4803140F008002065A9
:102DF00041F285000A9020462A46CDE907760996D9
:102E0000FEF7FEFF206A4FF68F7140F4805020627B
:102E10006FF010002061206ACFF6FF5140F480303F
:102E200020626FF480302061606801AD084070302E
:102E300060606068082161F317506060A0684FF41B
:102E4000804120F08000A0604EF22E40CEF20000C3
:102E500080F800A04EF20410CEF200000160DBF812
:102E6000000040F6000440F00400CBF80000DBF85E
:102E70000000C4F6000400F00400149014984020F0
:102E80000190022002900320CDE903060420069061
:102E9000204629460596FEF7D9FC80200190204661
:102EA0002946FEF7D3FC20462946CDF80480FEF7DC
:102EB000CDFC4FF48060019020462946FEF7C6FC09
:102EC0004FF40060019020462946FEF7BFFC2046E3
:102ED0002946CDF80490FEF7B9FC15B0BDE8F08F97
:102EE0002DE9F0438FB0002741F24C00CDE90C777B
:102EF000CDE90A77CDE90877CDE90677CDE9047702
:102F0000CDE90277CDE90077C4F20200C16B40F24F
:102F1000004521F03001C163C168C4F6000541F4E9
:102F20008021C160C1686E4601F480210E910E9926
:102F3000016844F6000441F00201016000684FF0AE
:102F4000020800F002000E900E984FF4806000908E
:102F50004FF0070928463146C4F20004CDE9018745
:102F6000CDE90377CDF81490FEF770FC4FF40060C4
:102F7000CDE9000828463146CDE90277CDE904794C
:102F8000FEF764FC4EF60C50CEF2000000684EF2E4
:102F90002740CEF2000007704EF20410CEF200007F
:102FA0008021016048F28040C0F21E00CDE9070791
:102FB0000820CDE90B0706A920460697CDE9097739
:102FC0000D97FFF7C7F844F60800C4F2000000BFF1
:102FD00050E8001F21F0604140E800125AB350E869
:102FE000001F21F0604140E8001222B350E8001FAA
:102FF00021F0604140E80012EAB150E8001F21F0E2
:10300000604140E80012002AE2D114E050E8001FBD
:1030100021F0606140E80012AAB150E8001F21F0E1
:10302000606140E8001272B150E8001F21F0606159
:1030300040E800123AB150E8001F21F0606140E81A
:103040000012002AE2D1206820F000502060606861
:1030500020F490406060A06820F02A00A060206802
:1030600040F001002060E069800209D4E06980023C
:103070005CBFE0695FEA802002D4E0698002F2D59B
:103080000FB0BDE8F0830000FEE70000FEE700009F
:103090007047000070470000FEF7E8B980B582B0C5
:1030A00042F20000C4F202000168042262F303014C
:1030B000016000BF016801F00F0104290ED0016812
:1030C00001F00F01042909D0016801F00F01042962
:1030D00004D0016801F00F010429EBD147F280010F
:1030E000C4F200010A6841F2080022F48072C4F2BE
:1030F00002000A6050F8081C41F4803140F8081CB6
:1031000050F8081C89030CD450F8081C89035CBFD4
:1031100050F8081C5FEA813103D450F8081C890379
:10312000EED5416848F20C02CFF6FF12114045F28D
:10313000235211434160416841F08071416050F871
:10314000081C41F0807140F8081C50F8081C8901E7
:103150000CD450F8081C89015CBF50F8081C5FEAC9
:10316000811103D450F8081C8901EED501680822AA
:1031700041F003010160016862F30711016000BFC3
:10318000016801F00C010C290ED0016801F00C015E
:103190000C2909D0016801F00C010C2904D0016848
:1031A00001F00C010C29EBD1552101910199A1B13C
:1031B000019901390191019979B10199013901917F
:1031C000019951B1019901390191019929B10199EF
:1031D0000139019101990029EAD1016821F0F0013A
:1031E0000160016821F4E0610160016821F460512F
:1031F00001604FF68060C0F62120FEF76FFD0F20C2
:10320000FEF752F920B102B0BDE88040FDF7DCBB0B
:1032100002B080BD4EF68850CEF20000016841F445
:10322000700101607047000043F21040C4F20100D9
:103230000168C9060ED56FF01001016050F8100C3E
:10324000C00648BF704780B500F058FB00F0BCFADC
:10325000BDE8804070470000FEE7000080B52DED1E
:10326000028B9FED098AF0EE480A01F017F9B5EEDE
:10327000400A30EE081AF1EE10FAB8BFB0EE410A7B
:10328000BDEC028B80BD00BF0000B443B0B500258B
:10329000B5EB930F31D04FEA930C00BF90ED000ACD
:1032A00091ED001A00F1100E30EE010A82ED000AD5
:1032B00090ED010A91ED011A01F1100430EE010ABE
:1032C00082ED010A90ED020A91ED021A02F1100559
:1032D00030EE010A82ED020A90ED030A91ED031A25
:1032E000BCF1010C30EE010A82ED030A70462A4659
:1032F0002146D3D121462A46704613F0030308BF66
:10330000B0BD00BFB0EC010AB1EC011A013B30EED8
:10331000010AA2EC010AF5D1B0BD0000B0B500254C
:10332000B5EB930F31D04FEA930C00BF90ED000A3C
:1033300091ED001A00F1100E20EE010A82ED000A54
:1033400090ED010A91ED011A01F1100420EE010A3D
:1033500082ED010A90ED020A91ED021A02F11005C8
:1033600020EE010A82ED020A90ED030A91ED031AA4
:10337000BCF1010C20EE010A82ED030A70462A46D8
:103380002146D3D121462A46704613F0030308BFD5
:10339000B0BD00BFB0EC010AB1EC011A013B20EE58
:1033A000010AA2EC010AF5D1B0BD000080B50023EE
:1033B000B3EB920F22D0930890ED000A00F1100CAD
:1033C000B1EE400A81ED000A90ED010A01F1100E04
:1033D000B1EE400A81ED010A90ED020A013BB1EE27
:1033E000400A81ED020A90ED030A6046B1EE400A00
:1033F00081ED030A7146DFD17146604612F0030287
:1034000008BF80BDB0EC010A013AB1EE400AA1EC60
:10341000010AF7D180BD00000023B3EB920F20D04A
:10342000930800BF90ED001A90ED012A90ED023A4A
:1034300090ED034A21EE001A22EE002A23EE003A14
:1034400024EE004A01F1100C103081ED001A81EDDC
:10345000012A81ED023A81ED034A013B6146E1D147
:10346000614612F0030208BF704700BFB0EC011ABA
:10347000013A21EE001AA1EC011AF7D170470000C1
:1034800080B59FED441A9FED443A20EE011AB0EE4C
:10349000C11ABDEEC12AB8EEC22A31EE421A21EE9F
:1034A000031ABDEEC12A12EE102A02F1800E6FF34C
:1034B0005F2245F2E83CC0F6000C02EE102A6FF3E2
:1034C0005F2E0CEB8203B8EE422A0CEB8E0231EE3B
:1034D000421A92ED002A92ED013A93ED004A93EDE3
:1034E000015A9FED2E7A33EE426A74EE050A20EE01
:1034F000877A76EE060A74EE041ADFED292A37EE93
:10350000607AF0EE080A75EE211A26EE206A61EE66
:10351000A21A21EE077A36EE216A36EE076A21EE0C
:10352000066A24EE227A36EE476A21EE066A32EE09
:10353000066A81ED006A35EE445A32EE036A26EEE1
:10354000226A35EE057A36EE476A32EE027A33EEBB
:10355000073A25EE205A23EE223A21EE066A35EE8E
:10356000433A33EE063A21EE033A22EE222A32EEB5
:10357000032A21EE021A34EE011AB5EE400AB1EE2A
:10358000412AF1EE10FAB8BFB0EE421A80ED001AEF
:1035900080BD00BF610B363B00000044DB0F49BC1F
:1035A000DB0F493CB0B50025B5EB930F31D04FEAA6
:1035B000930C00BF90ED000A91ED001A00F1100E7F
:1035C00030EE410A82ED000A90ED010A91ED011AF8
:1035D00001F1100430EE410A82ED010A90ED020A79
:1035E00091ED021A02F1100530EE410A82ED020A55
:1035F00090ED030A91ED031ABCF1010C30EE410A83
:1036000082ED030A70462A462146D3D121462A4636
:10361000704613F0030308BFB0BD00BFB0EC010A51
:10362000B1EC011A013B30EE410AA2EC010AF5D1DE
:10363000B0BD000043F23443C4F201031860596086
:103640009A60704743F22040C4F2010050F8081C11
:1036500041F0080140F8081C50F8081C41F40061D2
:1036600040F8081C50F8041C41F0080140F8041C04
:1036700050F8201C41F0010140F8201C016841F085
:1036800001010160016841F010010160016841F42D
:1036900080710160016841F004010160016841F03E
:1036A00040010160016841F480610160416A41F4B8
:1036B000004141627047000083B070B581B040F2B4
:1036C0004416044605A8C2F200060EC005AB3046FB
:1036D0004FF480712246009300F0C6FE00286ED0A1
:1036E00044F61C01FD2828BFFD2040F60D22C4F23F
:1036F0000001325202300022325400BFB35C4FF658
:10370000F0740D682D0635D40D682D0634D40D687F
:103710002D0633D40D682D0632D40D682D0631D414
:103720000D682D0630D40D682D062FD40D682D069A
:103730002ED40D682D062DD40D682D062CD40D68C1
:103740002D062BD40D682D062AD40D682D0629D4FC
:103750000D682D0628D40D682D0627D40D682D067A
:1037600026D4103C14F11005CBD1CB60013282423B
:10377000C4D124E00F341BE00E3419E00D3417E0FF
:103780000C3415E00B3413E00A3411E009340FE077
:1037900008340DE007340BE0063409E0053407E097
:1037A000043405E0033403E0023401E0013400BFD7
:1037B000002C18BFCB60013282427FF49FAF01B072
:1037C000BDE8704003B0704740F21810C2F200002C
:1037D0000178B9B181680131132981609CBF90EDF6
:1037E000090A704790ED030A90ED061A9FED1D2A15
:1037F00030EE410AB4EE420AF1EE10FA0CDD9FED14
:103800001C2A12E0816900229FED150AC0E903120B
:1038100001214262017070479FED132AB4EE420A03
:10382000F1EE10FA03DA9FED112A30EE020A9FED55
:10383000112A9FED113A80EE020A90ED042A9FEDC5
:103840000F4A22EE032A002180ED031A816020EE48
:10385000040A30EE020A80ED040A80ED090A70477E
:103860000000000000003443000034C30000B443F3
:103870000000B4C36F12833AEC51783F8FC2F53C1D
:1038800010B543F6FD7000F091F84FF6FF718842D5
:1038900010D00BA2C1B204461046FFF70DFFE005A1
:1038A00009A00BA158BF01460BA0FFF705FF0020A0
:1038B00010BD00BF0AA0FFF7FFFE012010BD00BF32
:1038C0004147433A202564006661696C00000000AE
:1038D00073756363657373004F43463A2025730025
:1038E0005B4552524F525D2072656164206469618C
:1038F00067206661696C65642100000010B543F6BD
:10390000FF7000F053F840F218144FF6FF71C2F246
:1039100000048842A08213D000EE100A9FED0A1A1C
:10392000B8EE400A20EE010ABAEE061A84ED060A45
:1039300020EE010AFFF792FC84ED080A10BD00BFDB
:10394000BFEE000A10BD00BFD002B43C40F2181018
:10395000C2F2000090ED010A90ED061A9FED0F2AC9
:1039600031EE400AB4EE420AF1EE10FA02DD9FEDAC
:103970000E2A08E09FED0A2AB4EE420AF1EE10FA90
:1039800003DA9FED082A30EE020A90ED072A80ED57
:10399000011A32EE400A80ED070A704700003443F6
:1039A000000034C30000B4430000B4C32DE9F04F5D
:1039B00081B040F2184B43F60806C4F6000B4FF0F6
:1039C000000CC4F200064FF001094FF480584FF488
:1039D000404A00BFC7B2B90881EA570181EAD7015E
:1039E00081EA171181EA571181EA971189EAD717FD
:1039F000C0F30025C0F340247D4081EA000EC0F3EF
:103A000080216C40024683B2C0F3C0206140484030
:103A100080EA133080EA533080EA0E006FF39F3261
:103A2000C003CBF810803168890709D43168890751
:103A30005CBF31685FEA817102D431688907F2D5D1
:103A4000104340F48040B0803068C0070AD130682D
:103A5000C00704BF30685FEAC07003D13068C00798
:103A6000F2D000BF70683068000609D530680006E3
:103A700044BF30685FEA006002D530680006F2D4C7
:103A8000CBF8008000BF00BF00BF00BF00BF00BF79
:103A900000BF00BF00BF00BF00BF00BF00BF00BF2E
:103AA00000BF00BF00BF00BF00BF00BF00BF00BF1E
:103AB00000BF00BF00BF00BF00BF00BF00BF00BF0E
:103AC00000BF00BF00BF00BF00BF00BF00BF00BFFE
:103AD00000BF00BF00BF00BF00BF00BF00BF00BFEE
:103AE00000BF00BF00BF00BF00BF00BF00BF00BFDE
:103AF00000BF00BF00BF00BF00BF00BFCBF81080F9
:103B0000306880070AD4306880075CBF30685FEA9D
:103B1000807003D430688007F2D500BFA6F804A0F7
:103B20003068C0070AD13068C00704BF30685FEA58
:103B3000C07003D13068C007F2D000BF7068316830
:103B4000090609D53168090644BF31685FEA016199
:103B500002D531680906F2D44104CBF8008007D5BC
:103B600008A0FFF7A9FD01204FF0010C32E700BFCC
:103B70006FF39F305FEACC7118BF4FF6FF7001B052
:103B8000BDE8F08F6572726F7220666C616721000C
:103B9000B0B51620002100F027F81720002100F012
:103BA00023F80320FFF702FF43F6FF70FFF7FEFE46
:103BB000C0F3871504461620294600F015F8162094
:103BC000294600F011F804F03F041720214600F0C8
:103BD0000BF81720214600F007F804460320FFF7F2
:103BE000E5FE2046B0BD00002DE9F0478946C1B290
:103BF0008D0885EA510585EAD10585EA111585EA22
:103C00005115C0F3002685EA9115C0F3402786EAD6
:103C1000D111C0F380247940C0F3C02361405940E2
:103C200000F4005E81EA1031454081EA5E3169406E
:103C30004FEAC13A5FFA89F18F0887EA510787EAAC
:103C4000D10787EA111787EA511787EA911787EAA0
:103C5000090E5FEA9937C9F3002618BF012787EAE2
:103C6000D111C9F340257140C9F380246940C9F3DB
:103C7000C0236140594081EA193181EA593140F24B
:103C8000184C43F60802804681EA0E01C4F6000C87
:103C9000C4F200026FF39F384FEAC13E4FF48051E7
:103CA000CCF810101168890709D4116889075CBF26
:103CB00011685FEA817102D411688907F2D54AEA76
:103CC000080191801168C90709D11168C90704BFAB
:103CD00011685FEAC17102D11168C907F2D0516859
:103CE0001168090609D51168090644BF11685FEA21
:103CF000016102D511680906F2D44FF48051CCF865
:103D0000001000BF00BF00BF00BF00BF00BF00BF6A
:103D100000BF00BF00BF00BF00BF00BF00BF00BFAB
:103D200000BF00BF00BF00BF00BF00BF00BF00BF9B
:103D300000BF00BF00BF00BF00BF00BF00BF00BF8B
:103D400000BF00BF00BF00BF00BF00BF00BF00BF7B
:103D500000BF00BF00BF00BF00BF00BF00BF00BF6B
:103D600000BF00BF00BF00BF00BF00BF00BF00BF5B
:103D700000BF00BF00BF00BF00BFCCF8101011682B
:103D8000890709D4116889075CBF11685FEA8171EE
:103D900002D411688907F2D54EEA090191801168B1
:103DA000C90709D11168C90704BF11685FEAC17169
:103DB00002D11168C907F2D051681168090609D506
:103DC0001168090644BF11685FEA016102D51168F4
:103DD0000906F2D44FF48051CCF80010FFF7E6FD4D
:103DE000484504BF0020BDE8F087024603A04946CD
:103DF000FFF762FC0120BDE8F08700BF5B4552522F
:103E00004F525D206578706563743A3078253034A0
:103E1000582C41637475616C3A3078253034580DF4
:103E20000A0000007047000040F2A820C2F2000023
:103E3000002180ED000A80ED011AC0ED041AC16076
:103E400040F2D020C2F20000C0EC020AC0ED041A19
:103E5000C160704740F2F820C2F20000002180ECFF
:103E6000030AC0ED041AC1604161C0E90711416253
:103E70007047000040F22030C2F20000002180ECC8
:103E8000020A80ED041AC1607047000070B540F26C
:103E9000C0040020C2F20004C4F2F0204CF6CD466B
:103EA000A064C3F64C66002025469FED2E0A45F817
:103EB0002C0F45F62941C4E90C6000209FED2A1A19
:103EC000CBF60F61C4F20C30F1EE0C1AF0EE400AA2
:103ED000A163E064FFF7A8FF9FED240ADFED240A49
:103EE0009FED241AFFF7C6FF9FED230ADFED230A9B
:103EF0009FED231ADFED231AFFF7ACFF266304F1D1
:103F000014069FED210A2846314600F053F830464A
:103F100000F0FAF92073B2EE0A0A3046214600F0AA
:103F20008BF8204600F074F9E089218A628AFFF755
:103F300081FB4FF47A70FCF79DFDFFF729FE6420AA
:103F4000FCF798FD4EF20010CEF200004FF48021F5
:103F5000016043F20C40C4F20100016841F010011D
:103F6000016070BD9A99993F000061456F12033B53
:103F700000000000CDCC4C3E8FC2753DCDCCCC3D79
:103F80006F12833A9A99193E0000B44270470000BC
:103F900040F21000C2F20000C1889FED051A00EE49
:103FA000101AB8EE400A20EE010A80ED0D0A7047A3
:103FB0003333053CB0B582B00C46054601A86946CE
:103FC000FFF75EFA9DED000A95ED011A9DED012ABD
:103FD00095ED003A22EE014A23EE005A20EE010A46
:103FE00023EE021A35EE444A31EE000A84ED004A0F
:103FF00084ED010A02B0B0BDFCF7F2FCFFF746FF0A
:1040000008A0FFF759FB00BFFFF7C0FFFFF79EFCBA
:10401000FFF7BEFF00F0AEF900F0D2F90120FCF787
:1040200029FDF1E753797374656D20496E69742039
:1040300053756363657373002DE9F04381B02DED13
:10404000048B8AB009AC8846014622460123B0EEB3
:10405000408A0646FFF762F9351D08AF2846294613
:104060003A460123FFF75AF907AA204639460123A9
:10407000FFF70CF99DED070AB5EE400AF1EE10FAD4
:1040800021DBB1EEC00A9FED5D1A28EE011AB4EEF5
:10409000410AF1EE10FA16DD9FED592AB4EE420AFC
:1040A000F1EE10FA0FDD81EE009A30463146012222
:1040B000B0EE490AFFF7B0F92846B0EE490A2946A2
:1040C0000122FFF7A9F99FED4F0AB6EE001A80EE24
:1040D000080A06A92846012220EE018AFFF79CF96A
:1040E0004BF2D730C3F6DD7096ED000A0DF10409EE
:1040F00003AF0190484639460122FFF78DF902AC23
:104100003846294622460123FFF7C0F805A9204674
:10411000B0EE480A0122FFF77FF996ED000A484603
:1041200039460122FFF778F938462946224601230D
:10413000FFF738FA04AD2046B0EE480A29460122BE
:10414000FFF76AF9284629460122FFF72FF998F868
:104150000C000138052839D8DFE800F00426161CC9
:104160000E2E00BF9DED040A9DED061AB1EE400A29
:1041700088ED010A31E000BF9DED050A9DED041AAE
:10418000B1EE400A1CE000BF9DED060A9DED051A48
:1041900016E000BF9DED060A9DED041AB1EE400A3F
:1041A00088ED010A19E000BF9DED040A9DED051A96
:1041B00088ED010A11E000BF9DED050A9DED061A8C
:1041C00088ED010AB1EE411A07E000BF9FED0E1A1B
:1041D0000020B0EE410AC8F804009FED0C2A88EDDB
:1041E000021A32EE400A30EE410A88ED000A0AB0A7
:1041F000BDEC048B01B0BDE8F08300BF3ACD133FA6
:10420000BD378635629EB5380000000017B75138BB
:10421000017B90ED000AB6EE001A0139052920EE67
:10422000010A53D8DFE801F004361E2A104400BF0B
:1042300090ED011A90ED023A30EE014A30EE031A89
:10424000B0EE402A3EE000BF90ED011A90ED022A48
:1042500030EE013AB0EE401A30EE020A32EE032A96
:1042600038E000BF90ED011A90ED022A30EE011AFD
:1042700031EE021A30EE022A2CE000BF90ED013A36
:1042800090ED022A30EE033A30EE021A32EE032AA3
:1042900020E000BF90ED011A90ED023A30EE011AD5
:1042A000B0EE402A30EE030A33EE011A12E000BFEE
:1042B00090ED011A90ED023A30EE014A30EE032AF9
:1042C000B0EE401A34EE030A04E000BFB0EE401A2C
:1042D000B0EE402A9FED0B3A20EE030ABDEEC00A75
:1042E00010EE101A21EE030ABDEEC00AC18110EED5
:1042F000101A22EE030ABDEEC00A018210EE101A57
:10430000418270472416A24C90ED000A9FED141ACA
:104310009FED143A90ED012A20EE011A20EE030AD7
:104320009FED113A31EE421A0020B4EE432A30EEEE
:10433000420AF1EE10FAC8BF0120B4EE431AF1EEC2
:1043400010FAC8BF0230B4EE430AF1EE10FAC8BF4B
:104350000430013805288EBF012004A1085C704795
:10436000D7B3DD3FD7B3DDBFBD37863502060104C5
:104370000305000040F21000C2F2000001889FED2A
:104380000E1A00EE101A4188B8EE400A02EE101A1A
:104390008188B8EE422A03EE101AB8EE433A20EEB6
:1043A000010A22EE012A23EE011A80ED0A0A80EDAD
:1043B0000B2A80ED0C1A70473333053C00000000D7
:1043C00010B540F21004C2F2000420899FED221AB9
:1043D00000EE100AB8EE400A9FED202A20EE010AF6
:1043E00080EE020A9FED1E2A20EE023A31EE400ACC
:1043F00083EE000A80EE020A10EE100AFCF730F895
:1044000041EC100B00F0A4F851EC100B9FED0E0BDB
:1044100053EC102BFBF7B5FF9FED0D0B53EC102B5E
:10442000FBF708FFFCF72FF800EE100AB7EE001AB2
:1044300081EE000A9FED0B1A30EE010A84ED0E0AA0
:1044400010BD00BF00BF00BF000000000068AA4010
:10445000000000E0E1796B3F3333534000F07F45CB
:1044600000401C46339388C37CB50C001D4616469D
:10447000014601D0601E00E00020CDE90010064B8F
:104480006A462946304600F0D7FB002C02D0009A3D
:10449000002111707CBD00006753000810B52DEDA0
:1044A000028BF0EE408A18EE900AB0EE608A20F09F
:1044B0000040C0F1FF40C00F07D118EE100A20F0F5
:1044C0000040C0F1FF40C00F2BD018EE101A18EEBC
:1044D000900AFCF793F800EE100A10EE100A6FEA4B
:1044E000D05010F0FF0F04BFBDEC028B10BD18EED2
:1044F000900A00F0004110EE100A00F000408142E6
:1045000004BFBDEC028B10BD18EE101A10EE100A9D
:10451000BDEC028B61F31E0000EE900A30EE600AE3
:1045200010BD18EE900A4FF07F41B1EB400F1CBF59
:1045300018EE100A5FEA4000C7D1012000F0B4FA7B
:10454000BDEC028BBDE8104000F096BA0000000000
:1045500070B5D94B00242DED020B2DED108BDDE94C
:104560001010984205DA20F000429A4201D809D191
:1045700041B19DED100BBDEC108B02B0BDE8704059
:1045800000F05EBAB0F5801F26DA11430BD0002888
:1045900013DA012000F088FABDEC108B02B0BDE800
:1045A000704000F059BA022000F07EFA00F030FAB4
:1045B00051EC100B81F000419EE06FF035049FED4F
:1045C000C00B53EC102B9DED100B51EC100BFCF7B6
:1045D0009BF8CDE91001084604EB2051C0F3130409
:1045E000B948A1F2FF31204400F4801080F07F62CE
:1045F00082F04052224301EB20559FEDB50B119202
:1046000053EC102B9DED100B51EC100BFBF7B3FE90
:1046100041EC180BA01CC0F313009FEDAFDB9FED26
:10462000B0EBB14E7E4403286CD296ED000B51ECFA
:10463000180B53EC102BFCF703F91DD1002D01BF13
:1046400096ED000BBDEC108B02B070BD2846FCF758
:10465000CDF841EC180B53EC1D2BFCF755F841EC51
:10466000190B53EC1E2B51EC180BFCF74DF853ECC7
:10467000192BFBF7DFFD3FE09FED9D0B51EC180B75
:1046800053EC102BFCF740F89FED9B1B53EC112BC8
:10469000FBF774FE41EC190B53EC182B51EC180B83
:1046A000FCF732F853EC192BFCF72EF841EC190B00
:1046B000002D04BF53EC192B51EC180B1AD02846CF
:1046C000FCF794F841EC1A0B53EC1D2BFCF71CF88B
:1046D00053EC192BFBF752FE53EC182BFBF74BFE58
:1046E00041EC180B53EC1E2B51EC1A0BFCF70CF899
:1046F00053EC182BFBF73FFEBDEC108B02B041ECE6
:10470000100B70BD9FED7E0B51EC180B53EC102B72
:10471000FBF790FD41EC100B51EC180B53EC102BF8
:10472000FBF72FFE41EC190B2846FCF75FF841EC34
:104730001B0B53EC192B51EC190BFBF7E5FF41EC6C
:104740001A0B714853EC1A2B261851EC1A0BFBF775
:10475000DBFF41EC1F0B6D48C4F1510404F5D72475
:10476000B0EE4F0AF0EE6F0A0321784400F0D2F861
:1047700053EC1F2B51EC100BFBF7C6FF41EC1C0B4D
:104780006348B0EE4F0AF0EE6F0A0421784400F05F
:10479000C1F853EC1A2B51EC100BFBF7B5FF344367
:1047A00053EC1C2BFBF746FD41EC1C0B002C4CDDA5
:1047B0009FED510B51EC180B53EC102BFBF7A4FFA2
:1047C00053EC182BFBF7A0FF41EC1A0B55B353EC3D
:1047D0001D2B51EC1B0BFBF797FF41EC1D0B53EC12
:1047E0001C2B51EC1A0BFBF725FD53EC192BFBF797
:1047F0008BFF53EC1D2BFBF71DFD53EC1A2BFBF726
:10480000BDFD53EC182BFBF7B6FD41EC180B53EC38
:104810001E2B51EC1B0BFBF777FF53EC182BFBF710
:10482000AAFD69E753EC1C2B51EC1A0BFBF702FDB8
:1048300053EC192BFBF768FF53EC1A2BFBF79EFD8B
:1048400053EC182BFBF79AFD56E735B353EC1D2BB1
:1048500051EC1B0BFBF758FF41EC1A0B53EC1C2BD4
:1048600051EC180BFBF787FD53EC192BFBF74CFFB2
:1048700053EC1A2BFBF77FFD53EC182BFBF77BFD5A
:1048800041EC180B53EC1E2B51EC1B0BFBF73CFFC0
:1048900053EC182BFBF76FFD2EE753EC1C2B51EC60
:1048A000180BFBF768FD53EC192BFBF72DFF53ECAE
:1048B000182BFBF763FD1FE70000F07F00000000EE
:1048C0000000000000005043645F09000000000089
:1048D000000000000000F03F763C7935EF39EA3DFA
:1048E0000000E0FE422EE63F900D000000000000B8
:1048F000555555555555D53F000000000000E03F87
:10490000000000000000004086EBF9FF120C0000E0
:10491000080C000070B504462DED028B4D1E00EB17
:10492000C500B0EE408AF0EE608A90ED000B35F0E5
:10493000060017D053EC182B51EC100BFBF7E4FEDC
:1049400041EC100B6D1E04EBC50090ED001B51EC0B
:10495000100B53EC112BFBF76DFC41EC100B35F0F9
:104960000600E7D1022D36D0042D1CD0062D1CBF29
:10497000BDEC028B70BD53EC182B51EC100BFBF708
:10498000C3FE94ED0A1B53EC112BFBF753FC53ECC5
:10499000182BFBF7B9FE94ED081B53EC112BFBF71A
:1049A00049FC41EC100B53EC182B51EC100BFBF7AE
:1049B000ABFE94ED061B53EC112BFBF73BFC53ECC9
:1049C000182BFBF7A1FE94ED040B53EC102BFBF717
:1049D00031FC41EC100B53EC182B51EC100BFBF796
:1049E00093FE94ED021B53EC112BFBF723FC53ECCD
:1049F000182BFBF789FE94ED001B53EC112BFBF7F2
:104A000019FCBDEC028B41EC100B70BD00000000E6
:104A10009FED070B10B553EC102B9FED070B51ECDE
:104A2000100BFBF7AEFC41EC100B10BD00000000BA
:104A30000000000000000000000000000000F03F47
:104A400010B553EC102B51EC100BFBF7F3FB41ECC2
:104A5000100B10BD000000009FED050B10B553ECCE
:104A6000102B51EC100BFBF78CFC41EC100B10BD24
:104A70000000000000000000DFED020A80EEA00A46
:104A8000704700000000000002E008C8121F08C1C3
:104A9000002AFAD170477047002001E001C1121FBF
:104AA000002AFBD1704700000149086070470000F0
:104AB000000000202DE9FF5F82B00021DDE9043015
:104AC000020DDDF840B0034318D044F61050A2F2B6
:104AD000FF3242431514119801281FD0A5EB0B009B
:104AE000401C5FEA000A4FF000064E4FDFF8389195
:104AF000B046504615D5CAF1000413E011980124C0
:104B00004AA3012801D16FEA0B010298119AC0E96A
:104B10000031C0E9024206B0BDE8F09FCBF10000D1
:104B2000DFE704460021404A491842EB0450CDE932
:104B3000001012E0E00707D032463B4640464946A7
:104B4000FBF7E2FD8046894632463B461046194651
:104B5000FBF7DAFD06460F466410002CEAD1DDE9CA
:104B60000401DDE90023BAF1000F06DAFBF7CCFD02
:104B700042464B46FBF7C8FD05E0FBF702FC424608
:104B80004B46FBF7FEFB04460E460022284BFBF784
:104B90006FFE03D84FF0FF30014607E00022254B9F
:104BA00020463146FBF746FBFBF731FE102409E0B7
:104BB000002C0ADB0A220023FBF797FC039B303210
:104BC0001A55641E50EA0102F2D1641C039AC4F122
:104BD00011031444119A012A03D0012208430DD174
:104BE0000AE0084304D000204FF0110B119072E747
:104BF000A3EB0B056D1E0DE05B4504DD4FF00002DD
:104C000005F1010504E003DA4FF00002A5F101050A
:104C1000002AECD002981199C0E90231C0E90045A0
:104C200079E70000000014400000F03F3000000071
:104C30000000F0430000E03F2DE9FF4F95B09B4698
:104C40008946064600250FE2252877D1002427460D
:104C5000F84A0121059400E0044316F8013F203B87
:104C600001FA03F01042F7D130782A2811D06FF002
:104C70002F033078A0F13002092A16D8059A44F0A3
:104C8000020402EB820203EB42021044761C059000
:104C9000EFE759F8042B0592002A03DA504244F456
:104CA0000054059044F00204761C30782E2816D16A
:104CB00016F8010F44F004042A280DD06FF02F02DB
:104CC0003078A0F13003092B09D807EB870302EBFA
:104CD0004303C718761CF3E759F8047B761C307839
:104CE0006C280FD006DC4C2817D068280DD06A2815
:104CF00014D104E0742810D07A280FD10DE044F4C8
:104D000000140AE044F4801401E044F44014727882
:104D1000824202D104F58014761C761C3078662815
:104D20000BD013DC582877D009DC002875D0452833
:104D3000F6D04628F4D047281AD19DE118E0632820
:104D400035D0642879D0652812D195E1702873D0C8
:104D500008DC6728F1D069286FD06E280DD06F2845
:104D600006D1B5E073282CD0752875D0782874D07A
:104D70005A46179990476D1C75E1C4F302500228FA
:104D800009D003280DD0D9F8001004280DD00D60EB
:104D900009F1040967E1D9F80010EA17C1E90052E6
:104DA000F6E7D9F800100D80F2E70D70F0E719F87A
:104DB000041B8DF8001000208DF80100EA46012048
:104DC00003E059F804AB4FF0FF3061074FF00001EA
:104DD00002D40DE008F101018846B9420FDA80459E
:104DE000F8DB1AF808100029F4D108E008F10101F5
:104DF00088468142FADB1AF808100029F6D1059896
:104E00005B46A0EB080721463846179A00F094FA53
:104E1000284400EB080507E04DE029E10DE01AF811
:104E2000010B5A4617999047B8F10108F7D25B4633
:104E300021463846179A13E142E00A220092C4F351
:104E400002524FF0000A022A08D059F804CB032A74
:104E50004FEAEC710AD00DE029E02AE009F10701E0
:104E600021F00702F2E802C1914609E00FFA8CFC3A
:104E70004FEAEC71042A03D14FFA8CFC4FEAEC7133
:104E8000002907DA0A460021DCF1000C61EB02017F
:104E90002D2202E0220504D52B228DF804200122C8
:104EA00003E0E20701D02022F7E7904659E00A210B
:104EB00002E010220DE010214FF0000A00910BE0FB
:104EC00010224FF0000A44F004040827009203E087
:104ED00008224FF0000A0092C4F30252022A05D0C1
:104EE00059F804CB0021032A08D009E009F1070191
:104EF00021F00702F2E802C1914605E01FFA8CFC9E
:104F0000042A01D10CF0FF0C4FF00008220728D52D
:104F1000702806D0009B83F0100353EA0A0305D0E3
:104F20000EE040228DF80420012208E05CEA010234
:104F300006D030228DF804208DF80500022290461C
:104F4000009B83F0080353EA0A030AD15CEA0102DA
:104F500001D1620705D530228DF804204FF00108F9
:104F60007F1E582804D034A003900EA802900DE0B4
:104F700036A0F9E753466046009AFBF7B6FA844636
:104F80000398825C0298401E029002705CEA010065
:104F9000F0D1029806A9081A00F1200A600702D58C
:104FA00024F4803400E00127574502DDA7EB0A0016
:104FB00000E0002000EB0A01009005984144401AEF
:104FC0000590E00306D45B462146179A059800F049
:104FD000B3F90544002706E001A85A46C05D1799B9
:104FE00090476D1C7F1C4745F6DBE0030CD55B4604
:104FF0002146179A059800F09FF9054404E03020F7
:105000005A46179990476D1C0099481E0090002938
:10501000F5DC08E0029802995A460078491C029192
:10502000179990476D1CBAF10001AAF1010AF1DC51
:1050300065E100000928010030313233343536375C
:1050400038396162636465660000000030313233D4
:105050003435363738394142434445460000000074
:1050600000F058F90544761C307800287FF4ECAD48
:1050700019B02846BDE8F08F620700D4062709F171
:10508000070222F0070CFCE80223E14603F0004887
:105090005FEA080C02D00FF2702C0DE05FEA045CAE
:1050A00002D50FF2682C07E05FEAC47C02D00FF251
:1050B000602C01E0AFF2700C4FF0FF3823F000439A
:1050C000CDF850C065280CD006DC452809D046280C
:1050D0001DD047283DD13DE0662818D067287ED1F5
:1050E00038E00021112F01DB112000E0781CCDE910
:1050F000000106A90EA8FFF7DDFCDDE90F010E9AFD
:1051000003910021009207F1010A04914DE04FF054
:1051100000400097CDE9011006A90EA8FFF7CAFCD0
:10512000DDE90F0203920E9B11990022DDF80CA01D
:105130000093049211B9791C00EB010AB7EB0A0045
:1051400004D4C0F1FF3007F1010A0490AAEB070074
:10515000019044E0012F00DA01270021112F01DD29
:10516000112000E03846CDE9000106A90EA8FFF79E
:10517000A1FCDDE90F010E9A039100210491009238
:10518000BA4621070CD40399514500DA8A46BAF190
:10519000010F05DD009AAAF10101515C302908D008
:1051A000B84202DA10F1040F06DA0121CDE901104C
:1051B00015E0AAF10101E9E7002805DC04990144A2
:1051C0000491AAEB000102E0411C514500DD8A4632
:1051D0000499401A401C01904FF0004002902007B3
:1051E00004D40198504501DBCDF8048000208DF8EF
:1051F0004F0002980DF14F07B0F1004F25D02B2042
:105200000E9002984FF0020800280CDA40420290FB
:105210002D200E9007E00A210298FBF750F930315B
:10522000029007F8011DB8F10001A8F10108F2DCB5
:1052300002980028EFD1791E0E980870307800F09F
:10524000200040F0450007F8020D12A8C01B00F135
:1052500007081498007800B1012000EB0A010198BA
:1052600001EBE07105984144401A401E0590E003AF
:1052700006D45B462146179A059800F05DF8054470
:105280001498007818B15A46179990476D1CE0039E
:1052900024D55B462146179A059800F04DF8054441
:1052A0001CE00498002807DBDDE90301884203DDE8
:1052B0000098405C179901E0179930205A469047B2
:1052C000049805F10105401C04900198401E0190CE
:1052D00004D12E205A46179990476D1CBAF100014F
:1052E000AAF1010ADDDC05E017F8010B5A4617990F
:1052F00090476D1CB8F10001A8F10108F4DC5B4691
:105300002146179A0598ABE62D0000002B000000FF
:10531000200000002DE9F041044600251E461746F6
:10532000880404D405E039462020B0476D1C641E73
:10533000F9D52846BDE8F0812DE9F0410446002565
:105340001E469046C80301D5302700E02027880478
:1053500004D505E041463846B0476D1C641EF9D5BA
:105360002846BDE8F0814A68002A06D00A68531C26
:105370000B6010704868401E4860704700000000D5
:1053800004FA97999999D93FAF788E1DC571CC3F92
:105390009FC678D0099AC33F935555555555E53F5B
:1053A000599322942449D23FDE03CB966446C73FEB
:1053B00044523EDF12F1C23F000000000000000036
:1053C00000000000000000000102030406070809B5
:1053D00000000000010203040001020304050607A7
:1053E000080C10141820304000000000920E493CB8
:1053F000B10AC93C2BC3163D2EFB483D752B7B3DA6
:1054000004A9963D80B6AF3D36BDC83D2FBCE13DF9
:1054100073B2FA3D87CF093E8340163EB5AB223EBC
:10542000A2102F3ECF6E3B3EC2C5473E0115543EF3
:10543000135C603E7F9A6C3ECCCF783EC07D823E4E
:10544000938E883E229A8E3E32A0943E86A09A3E4B
:10545000E59AA03E128FA63ED47CAC3EEF63B23EEE
:105460002A44B83E491DBE3E15EFC33E53B9C93E5E
:10547000CA7BCF3E4136D53E80E8DA3E4F92E03ED1
:105480007533E63EBBCBEB3EEA5AF13ECBE0F63E4F
:10549000275DFC3EE4E7003F3D9C033F824B063F17
:1054A0009BF5083F6B9A0B3FDA390E3FCDD3103F87
:1054B0002A68133FD9F6153FC07F183FC6021B3F2D
:1054C000D17F1D3FCBF61F3F9967223F25D2243F56
:1054D0005636273F1594293F4AEB2B3FDE3B2E3FA4
:1054E000BB85303FC9C8323FF304353F233A373FCD
:1054F0004268393F3B8F3B3FF9AE3D3F67C73F3F77
:1055000070D8413F01E2433F03E4453F65DE473F3A
:1055100012D1493FF8BB4B3F029F4D3F207A4F3F8E
:105520003D4D513F4918533F31DB543FE595563FC0
:105530005348583F6AF2593F1A945B3F532D5D3FE1
:1055400005BE5E3F2146603F97C5613F5A3C633FC1
:1055500059AA643F880F663FD86B673F3CBF683FDE
:10556000A7096A3F0C4B6B3F5E836C3F93B26D3F64
:105570009ED86E3F73F56F3F0809713F5213723F1B
:105580004714733FDD0B743F0BFA743FC6DE753F63
:1055900007BA763FC58B773FF853783F9812793F2B
:1055A0009DC7793F02737A3FBE147B3FCDAC7B3FF2
:1055B000283B7C3FC9BF7C3FAC3A7D3FCCAB7D3FB5
:1055C00023137E3FB0707E3F6DC47E3F580E7F3FF9
:1055D0006D4E7F3FAB847F3F0FB17F3F97D37F3FBF
:1055E00043EC7F3F11FB7F3F0000803F11FB7F3F7B
:1055F00043EC7F3F97D37F3F0FB17F3FAB847F3F2B
:105600006D4E7F3F580E7F3F6DC47E3FB0707E3F32
:1056100023137E3FCCAB7D3FAC3A7D3FC9BF7C3F7F
:10562000283B7C3FCDAC7B3FBE147B3F02737A3F6F
:105630009DC7793F9812793FF853783FC58B773FE4
:1056400007BA763FC6DE753F0BFA743FDD0B743F39
:105650004714733F5213723F0809713F73F56F3F50
:105660009ED86E3F93B26D3F5E836C3F0C4B6B3F99
:10567000A7096A3F3CBF683FD86B673F880F663F0A
:1056800059AA643F5A3C633F97C5613F2146603F3A
:1056900005BE5E3F532D5D3F1A945B3F6AF2593F52
:1056A0005348583FE595563F31DB543F4918533F27
:1056B0003D4D513F207A4F3F029F4D3FF8BB4B3F3E
:1056C00012D1493F65DE473F03E4453F01E2433FD6
:1056D00070D8413F67C73F3FF9AE3D3F3B8F3B3FEF
:1056E0004268393F233A373FF304353FC9C8323F58
:1056F000BB85303FDE3B2E3F4AEB2B3F1594293FC5
:105700005636273F25D2243F9967223FCBF61F3FCD
:10571000D17F1D3FC6021B3FC07F183FD9F6153F02
:105720002A68133FCDD3103FDA390E3F6B9A0B3FF7
:105730009BF5083F824B063F3D9C033FE4E7003F5B
:10574000275DFC3ECBE0F63EEA5AF13EBBCBEB3E9A
:105750007533E63E4F92E03E80E8DA3E4136D53E74
:10576000CA7BCF3E53B9C93E15EFC33E491DBE3E6D
:105770002A44B83EEF63B23ED47CAC3E128FA63EC4
:10578000E59AA03E86A09A3E32A0943E229A8E3E92
:10579000938E883EC07D823ECCCF783E7F9A6C3E11
:1057A000135C603E0115543EC2C5473ECF6E3B3E82
:1057B000A2102F3EB5AB223E8340163E87CF093E56
:1057C00073B2FA3D2FBCE13D36BDC83D80B6AF3D5A
:1057D00004A9963D752B7B3D2EFB483D2BC3163D02
:1057E000B10AC93C920E493C00000000920E49BC2F
:1057F000B10AC9BC2BC316BD2EFB48BD752B7BBDA2
:1058000004A996BD80B6AFBD36BDC8BD2FBCE1BDF5
:1058100073B2FABD87CF09BE834016BEB5AB22BEB8
:10582000A2102FBECF6E3BBEC2C547BE011554BEEF
:10583000135C60BE7F9A6CBECCCF78BEC07D82BE4A
:10584000938E88BE229A8EBE32A094BE86A09ABE47
:10585000E59AA0BE128FA6BED47CACBEEF63B2BEEA
:105860002A44B8BE491DBEBE15EFC3BE53B9C9BE5A
:10587000CA7BCFBE4136D5BE80E8DABE4F92E0BECD
:105880007533E6BEBBCBEBBEEA5AF1BECBE0F6BE4B
:10589000275DFCBEE4E700BF3D9C03BF824B06BF13
:1058A0009BF508BF6B9A0BBFDA390EBFCDD310BF83
:1058B0002A6813BFD9F615BFC07F18BFC6021BBF29
:1058C000D17F1DBFCBF61FBF996722BF25D224BF52
:1058D000563627BF159429BF4AEB2BBFDE3B2EBFA0
:1058E000BB8530BFC9C832BFF30435BF233A37BFC9
:1058F000426839BF3B8F3BBFF9AE3DBF67C73FBF73
:1059000070D841BF01E243BF03E445BF65DE47BF36
:1059100012D149BFF8BB4BBF029F4DBF207A4FBF8A
:105920003D4D51BF491853BF31DB54BFE59556BFBC
:10593000534858BF6AF259BF1A945BBF532D5DBFDD
:1059400005BE5EBF214660BF97C561BF5A3C63BFBD
:1059500059AA64BF880F66BFD86B67BF3CBF68BFDA
:10596000A7096ABF0C4B6BBF5E836CBF93B26DBF60
:105970009ED86EBF73F56FBF080971BF521372BF17
:10598000471473BFDD0B74BF0BFA74BFC6DE75BF5F
:1059900007BA76BFC58B77BFF85378BF981279BF27
:1059A0009DC779BF02737ABFBE147BBFCDAC7BBFEE
:1059B000283B7CBFC9BF7CBFAC3A7DBFCCAB7DBFB1
:1059C00023137EBFB0707EBF6DC47EBF580E7FBFF5
:1059D0006D4E7FBFAB847FBF0FB17FBF97D37FBFBB
:1059E00043EC7FBF11FB7FBF000080BF11FB7FBF77
:1059F00043EC7FBF97D37FBF0FB17FBFAB847FBF27
:105A00006D4E7FBF580E7FBF6DC47EBFB0707EBF2E
:105A100023137EBFCCAB7DBFAC3A7DBFC9BF7CBF7B
:105A2000283B7CBFCDAC7BBFBE147BBF02737ABF6B
:105A30009DC779BF981279BFF85378BFC58B77BFE0
:105A400007BA76BFC6DE75BF0BFA74BFDD0B74BF35
:105A5000471473BF521372BF080971BF73F56FBF4C
:105A60009ED86EBF93B26DBF5E836CBF0C4B6BBF95
:105A7000A7096ABF3CBF68BFD86B67BF880F66BF06
:105A800059AA64BF5A3C63BF97C561BF214660BF36
:105A900005BE5EBF532D5DBF1A945BBF6AF259BF4E
:105AA000534858BFE59556BF31DB54BF491853BF23
:105AB0003D4D51BF207A4FBF029F4DBFF8BB4BBF3A
:105AC00012D149BF65DE47BF03E445BF01E243BFD2
:105AD00070D841BF67C73FBFF9AE3DBF3B8F3BBFEB
