:020000040800F2
:1000000038170020ED0100085D370008B91B000813
:1000100059370008510E0008413A0008000000005E
:10002000000000000000000000000000653700082C
:10003000A90E0008000000006137000869370008B9
:10004000070200080702000807020008070200086C
:10005000070200080702000807020008070200085C
:10006000070200080702000807020008550E0008F2
:10007000070200080702000807020008070200083C
:100080000702000800000000D50D00080702000864
:1000900007020008B90E000807020008070200085E
:1000A000070200080702000807020008070200080C
:1000B00007020008F93800080702000807020008D4
:1000C00007020008070200080702000807020008EC
:1000D0000702000807020008070200088539000827
:1000E00007020008070200080702000807020008CC
:1000F0000702000807020008553900080000000048
:1001000000000000070200080000000007020008CD
:1001100007020008000000000702000807020008AC
:10012000070200080702000807020008070200088B
:10013000070200080000000000000000070200089D
:10014000070200080702000800000000000000008D
:10015000000000000000000000000000000000009F
:10016000000000000000000000000000070200087E
:10017000070200080000000000000000000000006E
:10018000000000000702000800000000000000005E
:10019000000000000000000000000000000000005F
:1001A000000000000000000007020008070200082D
:1001B000070200080702000807020008000000000C
:1001C000000000000702000800000000000000001E
:1001D0000702000807020008DFF80CD000F088FBD7
:1001E000004800477D410008381700200648804736
:1001F00006480047FEE7FEE7FEE7FEE7FEE7FEE70C
:10020000FEE7FEE7FEE7FEE7E5380008D901000853
:1002100040EA01039B0703D009E008C9121F08C088
:10022000042AFAD203E011F8013B00F8013B521E08
:10023000F9D27047D2B201E000F8012B491EFBD27F
:1002400070470022F6E710B513460A4604461946E1
:10025000FFF7F0FF204610BD30B505462A460B4695
:1002600012F8010B13F8014B08B1A042F8D01CB1F1
:10027000002802D06D1CF1E7284630BD2DE9FE4F65
:10028000804681EA0300C00F0C46009021F0004137
:1002900023F00045B8EB0200A94105D240462146B3
:1002A00090461C460B46024623F00040104347D0C0
:1002B000270DC7F30A00C3F30A510290401A0190B8
:1002C00040286BDAC3F3130040F4801B0098924679
:1002D00020B10023D2EB030A63EB0B0B01985946C4
:1002E000C0F14002504600F055F906460D46504612
:1002F0005946019A00F05DF910EB080061410024B5
:1003000087EA115284EAE7731A4340D0009A62B335
:10031000019A012A4FEA075215DC001B61EB02012A
:100320004FF0004202EA0752CDE90042001C41F5BD
:10033000801132462B4600F0C1F903B0BDE8F08FC2
:1003400040462146F9E7001B61EB0201001C41F524
:10035000801300185B412018A2F5001747EB03013A
:1003600040EAD570B6196D4111E06D084FEA3606C6
:1003700045EAC0754FEA0752001B61EB0201001C01
:1003800041F5801149084FEA3000001951413246C9
:100390002B4603B0BDE8F04F00F081B90098012270
:1003A00040000023D0EB020263EBE073009821468B
:1003B0004FEAE074B8EB000061EB0401E9E783F079
:1003C00000435BE781F0004158E72DE9F04D81EAF9
:1003D000030404F0004B21F0004514464FF0000ADE
:1003E00023F0004150EA050220D054EA01021DD05A
:1003F000C5F30A570246C5F31303C1F31300C1F353
:100400000A5640F4801543F48013A7EB0608101B2E
:10041000D64608F2FD3873EB050002D308F1010857
:1004200001E092185B41B8F1000F03DA00200146A9
:10043000BDE8F08D00204FF48011064684460EE0A2
:10044000171B73EB050705D3121B63EB050306436C
:100450004CEA010C49084FEA300092185B4150EA1F
:100460000107EDD152EA030012D082EA040083EAC8
:100470000501084305D0101BAB4106D20122002321
:1004800006E000224FF0004302E06FF0010253103B
:100490001AEB06004CEB085110EB0A0041EB0B0184
:1004A000BDE8F04D00F0FBB800F0004230F0004035
:1004B0000AD0C10D01F56071C0F3160042EA015186
:1004C000C20840071143704700200146704701F001
:1004D000004330B421F0004150EA010206D00A0D79
:1004E000A2F56072C1F31301002A02DC30BC0020C7
:1004F0007047440F44EAC104C100E01830BC00EB6F
:10050000C25000F06CB830B50B46014600202022E6
:10051000012409E021FA02F59D4205D303FA02F510
:10052000491B04FA02F52844151EA2F10102F1DC70
:1005300030BD2DE9F05F0546002092469B46884677
:100540000646814640241BE028464146474622464F
:1005500000F0E6F953465A46C01A914110D31146AD
:100560001846224600F016F82D1A67EB01084F4690
:1005700022460120002100F00DF817EB00094E4142
:10058000201EA4F10104DFDC484631462A464346DA
:10059000BDE8F09F202A04DB203A00FA02F1002097
:1005A00070479140C2F1200320FA03F319439040B1
:1005B0007047202A06DBCB17203A41FA02F043EAC3
:1005C000E07306E041FA02F3D040C2F1200291400C
:1005D0000843194670470023036000F0D0B9002992
:1005E000A8BF7047401C490008BF20F001007047B9
:1005F00010B4B0FA80FC00FA0CF050EA010404BF19
:1006000010BC704749B1CCF1200421FA04F411FA6E
:100610000CF118BF012121430843A3EB0C01CB1DB2
:100620004FEA00614FEA102042BF002010BC704723
:1006300000EBC35010440029A4BF10BC7047401CFD
:10064000490008BF20F0010010BC7047F0B400F072
:10065000004221F0004120F00040CE0DC30DC1F357
:10066000160141F40001C0F316004C42154640F457
:100670000000761E09E010EB440002D582F0004233
:1006800040428842F7D840005B1EB342F9DA18B105
:10069000F0BC0021FFF7ACBF2846F0BC704710B596
:1006A000141E73F1000408DA401C41F10001921895
:1006B0005B411A4301D120F0010010BD2DE9F04D3E
:1006C00092469B4611B1B1FA81F202E0B0FA80F293
:1006D00020329046FFF75EFF04460F4640EA0A00CC
:1006E00041EA0B0153465A46084313D0114653EAD8
:1006F000010019D0C8F14002504600F011F905463A
:100700000E46504659464246FFF744FF084305D07F
:10071000012004E020463946BDE8F08D0020054365
:1007200046EAE0762C4337430A986305E40AA0EBD7
:1007300008000022FD0A44EA47540A3002D500208E
:100740000146E9E7010510196941DDE9084500198D
:100750006941BDE8F04DA2E72DE9FE4F81EA0304AF
:1007600004F0004421F0004100944FF0000B23F00E
:10077000004350EA01045ED052EA03045BD0C3F3A5
:100780000A54C1F30A552C44A4F2F3340194A0FB9B
:100790000254C1F3130141F48011C3F3130343F472
:1007A000801301FB024400FB034E840A970A44EACB
:1007B000815447EA8357A4FB076802958D0A05FB1D
:1007C00007854FEA932C04FB0C542705029D4FEA42
:1007D000065847EA1637B5EB08056EEB070C870E8F
:1007E000920E47EA811742EA8312A7FB0201B6EB99
:1007F0000B0164EB00042B0D43EA0C335E1844EB51
:100800001C50DA465146E7FB0201C5F313044FEAD8
:100810000B3343EA14534FEA0432019C43EA0603C4
:10082000A4F10C040294009CCDE900B4FFF746FF4C
:1008300003B0BDE8F08F00200146F9E70EB5C10F07
:1008400080EAE0700844CA07002140F233438DE893
:100850000E000A460B46FFF731FF03B000BDC1F39F
:100860000A52C1F3130140F2FF3341F480119A425E
:1008700002DA00200146704740F233439A42A2F266
:10088000334202DC524200F04BB8FFF783BE000057
:1008900030B5041E71F1000404DB4FF00044404207
:1008A00064EB0101141E73F1000405DB1C464FF0DC
:1008B0000043524263EB04038B4208BF824230BDC7
:1008C00030B5041E71F1000404DB4FF000444042D7
:1008D00064EB0101141E73F1000405DB1C464FF0AC
:1008E0000043524263EB0403994208BF904230BD7B
:1008F0001CB509480090094801900546009C06E097
:10090000E06840F0010394E8070098471034AC42D7
:10091000F6D3FFF765FC00003C5600085C56000863
:10092000202A04DB203A21FA02F00021704721FA44
:1009300002F3D040C2F120029140084319467047AB
:100940000FB40B0010B58AB00FA900910E994FF0AB
:100950000004234ACC60214CCDE9064200D0042398
:100960006FF00042CDE901321E4A089202466B4602
:10097000002000F0D3F80AB010BC5DF814FBF0B50D
:1009800085B007464FF0FF300091CDE901011E46CA
:10099000002015460C4604903B466A46314604A8A2
:1009A000FFF7CEFF04990346601825B109B102464E
:1009B00000E022462A6000290ED0002B02DD0099BB
:1009C000814209D00094001BCDE901043B466A46F0
:1009D000314604A8FFF7B4FF05B0F0BD550D00087F
:1009E000730D0008E9090008C0B24FF4F05100F09F
:1009F000D1B900002DE9FF4F087883B09946FF2850
:100A000005D0491C2D2804D00024002008E0002037
:100A10000BE00124F9E700EB800003EB4000491CE8
:100A20000B78FF2BF7D104B14042002302931478D6
:100A300019461D462D2C01D02B2C04D1521C2D2CD7
:100A400013D000240294AA461478FF2C0FD00A2554
:100A5000A3FB057801FB05814FF0000C03FB0C1193
:100A6000521CE3194AEB0101EEE70124EAE7814455
:100A700053EA010002D019F5C87F06DA0398002175
:100A8000C0E9001107B0BDE8F08F0025AE4E2F463B
:100A9000DFF8B882184600F091F9CDE90001B9F10C
:100AA000000002DAC9F1000400E004460023A74A6E
:100AB0001AEB030B42EB045A12E0E00707D02A4678
:100AC000334638464146FFF747FE074688462A46E2
:100AD000334610461946FFF73FFE05460E466410A2
:100AE000002CEAD1DDE90001B9F1000F5A46534666
:100AF00006DAFFF76AFC3A464346FFF766FC05E074
:100B0000FFF72AFE3A464346FFF726FE029A0AB14D
:100B100081F00041039AC2E90001B3E72DE9FF4FDC
:100B20001F468DB0D7E901464FF0FF382E204546CD
:100B30004FF000090B90B9696D1C0E988847396A0F
:100B4000824688470028F6D1BAF1FF3F0AD024F444
:100B5000D064002E11DDBAF12B0F08D0BAF12D0FA1
:100B60000BD102E0404611B08DE744F48064B969CE
:100B70006D1C0E9888478246761E6946600501D531
:100B80002D2000E02B208DF8000001F1010B0DF16C
:100B9000200809E0B9696D1C0E98884782460F98B5
:100BA00044F40074761E0560002E02DDBAF1300FA9
:100BB000F0D00B998A453ED144F0800406E00F99AD
:100BC000681CA9F1010944F400740860B9696D1C3E
:100BD000761E0E98884782463028F0D02BE00B997D
:100BE0008A4505D1200603D444F08004761E18E01F
:100BF000504604F00DF908B30DF11302761EAAF168
:100C0000300044F40074934506D20BF8010B200623
:100C100007D5A9F1010003E0200602D409F1010083
:100C20008146A00502D50F99681C0860B9696D1C42
:100C30000E9888478246002ED1DC53E0002E51DD0D
:100C4000BAF1650F02D0BAF1450F4BD1A00549D5D5
:100C5000B9696D1C24F44074761E0E98884782464C
:100C6000002E0CDD2B2804D0BAF12D0F07D144F44F
:100C70008074B9696D1C0E9888478246761EE0051F
:100C800001D52D2100E02B2108F8011BCDF82C8087
:100C900021E00DF12901761E44F4007488450CD240
:100CA000AAF1300010F0FF0088F8000002D10B9983
:100CB000884509D908F1010806E0E00501D5244876
:100CC00001E042F20F708146B9696D1C0E988847A9
:100CD00082460F980560002E04DD504604F098F817
:100CE0000028D6D1F9690E988847FF208BF80000BC
:100CF00088F800000020069007904B466A4608A935
:100D000006A8FFF777FEA00502D46FF001002AE7DE
:100D100014F0240F0AD0E00714D1DDE90612386878
:100D2000031D3B600068C0E900120BE0DDE906012D
:100D3000FFF7CDFB0146E00704D13868021D3A6099
:100D40000068016028460EE7000014400000F03FF4
:100D5000F1D8FFFF426842B1016811F8013B23B1AD
:100D6000521EC0E90012184670470121C160881E5A
:100D7000704742685AB1C368016843B983688B42BF
:100D800005D0491E521CC0E90012002070474FF0E8
:100D9000FF3070477F2801D9002208E0064A02EBA5
:100DA0005002C007127800D1120902F00F02012090
:100DB0009040084070470000A85500080EB540F26A
:100DC000334202920022CDE900221346FFF776FC5F
:100DD00003B000BD4FF0A0400168490658BF7047FE
:100DE000402101608020C5F20000016840F2280225
:100DF000C1F50061C2F200021183436809B2C3F574
:100E00000063538380681BB2C0F500600FFA80FC5A
:100E100000EE101A9FED0D1A02EE103A03EE10CA02
:100E2000B8EEC00AB8EEC22AB8EEC33A20EE010A04
:100E300022EE012A23EE011A908382ED030A82ED4D
:100E4000042A82ED051A03F097B800BF000B303B6F
:100E5000FEE700000020C4F202000168490740F2EA
:100E60002801C2F200010BD5D1F84630D1F84A2052
:100E7000B1F84EC0C1E900320422A1F808C04260B6
:100E80000268920709D5B1F844C0D1E90F32A1F840
:100E900008C0C1E90032022141600168090744BF6E
:100EA000082141607047000070470000EFF3108098
:100EB00072B600BFFEE7000041F20020C2F200005F
:100EC00000F0F8B92DE9F04F81B040F27805C2F298
:100ED0000005A8786978884202D101B0BDE8F08F9A
:100EE00040F2804840F2803BC2F200084FF06C09AB
:100EF000C2F2000B4FF0000A09E000BFA8780130F1
:100F000000F01F00A870A87869788842E5D0A8781A
:100F100010FB098797F868000028EFD007F1280632
:100F2000002409E0E9680131E960A5F804A000BFE8
:100F30000134C1B28C42E1D2315D002918BF0D29C4
:100F4000F6D00A2910D1A9880029F1D0FF2924BFA1
:100F5000FF21A9800BF801A0C9B2584603F06CFA32
:100F600097F86800E1E700BFAA88FE2ADAD8531C88
:100F7000AB800BF80210DBE780B500F05DFD02F0FE
:100F8000F5FB01F0E1FF02F0D1FA01F057FC01F0AE
:100F90006FFD01F061FF01F0E9FE02F0B9F902F026
:100FA0006FF902F067FD01F0D1FE01F0BDFF02F024
:100FB00075F8BDE8804002F0E5B80000B0B5044621
:100FC00000F026FD054640F20400C2F20000406831
:100FD000611C18BF044400BF00F01AFD401BA04272
:100FE000FAD3B0BD10B590F85C30013B012B69D845
:100FF00000685FEA417ED0F858C00CF0010300D0D1
:101000001BB311F0380F02D01CF002041DD011F4F4
:10101000E07F02D01CF0040417D011F4F05F02D07E
:101020001CF0080411D011F4604F02D01CF0100421
:101030000BD011F4403F02D01CF0200405D011F475
:101040007C0F06D01CF0400403D1C46D44F00104B1
:10105000C465BEF1000F18BF002B3BD111F0380F53
:1010600018BF1CF0020335D111F4E07F18BF1CF04B
:1010700004032FD111F4F05F18BF1CF0080329D12D
:1010800011F4604F18BF1CF0100323D111F4403F3E
:1010900018BF1CF020031DD111F47C0F18BF1CF0E9
:1010A000400317D10B061BD4CB0504D5D0F8E03094
:1010B0001A43C0F8E02000F15402002013681943DD
:1010C000116010BD00F16002012002211368194374
:1010D000116010BDC36D43F00203C3650B06E3D579
:1010E000D0F8DC301343C0F8DC30CB05DED4E2E7C7
:1010F00090F85C20013A012A14D880B50A68BAB188
:1011000001F1040E9EE80450D1E90431406C43EA39
:101110004E7E41EA8C7100EBC20340F832E0596028
:10112000002080BD016E41F0020101660120704780
:10113000D1E90323D1E901CED206496942EA8E7290
:1011400042EA0342006C114340F82C10002080BD9D
:1011500070470000704700002DE9F04390F85C7084
:10116000022F0FD104684029A44613D15CF8907F68
:101170003F071BD0DCF800704FF0480EFF0113D57D
:1011800009251CE0016E41F0080101660120BDE85F
:10119000F08300BF5CF8987F3F0707D0DCF8007051
:1011A0004FF04C0EFF0109D400240DE0016E41F414
:1011B000807101660120BDE8F08300BF0825D4F8E6
:1011C0008040EC4004F00104DCF80070C7F3012714
:1011D00007EB040C50F80E700CEBCC0657F83650A9
:1011E00007EBC60E15F08045556057F8365025F0D0
:1011F000604408BFC5F38A44146057F8365005F0C0
:101200000055956057F8364004F000441461BEF86C
:101210000440D461BEF8064014F00F04D460DEF838
:10122000044004F480145461DEF8044004F4001413
:1012300094619EF8074004F07F041462DEF80440D5
:101240004FEAD474546228D045F200680024C0F6F6
:10125000000800BF0EEB0406377A651C1F55D768DF
:1012600018F80770BD4218D2757A1F197D70D568BD
:1012700018F80590A51C4D450FD2B57ABD70D568FC
:1012800018F80590E51C4D4507D2F57A0434FD7039
:10129000D56818F80550AC42DCD3006840290CBF73
:1012A000C0F894C0C0F89CC00020BDE8F0830000E6
:1012B000704700002DE9F04F85B004460068016DCD
:1012C000426DD0F850B0456D076D466D036D01EA73
:1012D00002080493436D0393036D0293436D0193DE
:1012E000D0F854A0D0F850905FEA496307D51AF0BF
:1012F000400104D0402101652046FFF7D9FF0BEAE9
:10130000050B5FEAC95008F4E0550ED51AF4807059
:101310000BD02068D0F8D810D0F8E02011404FF45E
:1013200080720265204600F091FA37400BF0070604
:101330002DB1206829460565204600F08BFA07F09C
:1013400038052EB1206831460665204600F0DEF9EA
:101350002DB1206829460565204600F05BFA5FEA5A
:10136000895009D51AF4007006D020684FF4007136
:101370000165204600F070FA5FEA09600DD51AF0A9
:1013800080000AD02068D0F8D410D0F8DC201140BA
:1013900080220265204600F05BFA5FEA894009D5A9
:1013A0001AF4005006D020684FF400510165204621
:1013B00000F04AFA5FEA0940DDE9011000EA0105A0
:1013C00009D51AF4004006D020684FF400410165A9
:1013D000204600F037FADDE9031008405FEA494192
:1013E00005F460210AD51AF4804207D022684FF430
:1013F00080431365226E42F08002226600F471057C
:1014000021B1206801652046FFF7A4FE25B12068C0
:101410000565206E28432066206E28B1204605B061
:10142000BDE8F04FFFF794BE05B0BDE8F08F0000B7
:10143000002804BF01207047F0B581B0044690F841
:101440005C0028B9002084F85D00204600F018F9FF
:101450002068816921F01001816100F0D9FA054608
:1014600020688169090705D500F0D2FA401B0B28D6
:10147000F6D310E0816941F00101816100F0C8FA02
:10148000054600BF21688869C0070FD100F0C0FA87
:10149000401B0B28F6D3206E032140F0010020668C
:1014A000012084F85C1001B0F0BD00BF4AF200409A
:1014B0008A69C4F20000A0F5804342F0020299421A
:1014C0008A6105D162684CF20013CFF6FF73C250F7
:1014D000227C8B69012A23F0400318BF40338B61C3
:1014E000627C8B69012A23F4804308BF03F58043A3
:1014F0008B61A27C8B69012A23F4805318BF03F50A
:1015000080538B618D69D4E902E325F4407545EA87
:101510000E058D618D6925F0A4058D610D6925F09D
:1015200010050D61A3B1012B0ED0022B09D08D69DE
:10153000032B45F080058D610D6945F010050D61A7
:1015400006D1202301E000BF04238D692B438B616A
:10155000D4E90535D4E907266FF0FF0C013D0CEB0B
:101560000222002742EA4562751ECFF6FF772A4322
:1015700007EB03431A43BEF5407FCA6110D104F163
:1015800024064CCE256B013B0CEB062633436FF053
:101590000F0606EB0516334307EB02421A43CA60F7
:1015A00004F134078CCFD1F8C0603743C1F8C07064
:1015B0002064D1F880704AF2704627F4F817C4F21C
:1015C000000647EA0242C1F880206664D1F8802014
:1015D00022F0706242EA0362C1F8802006F1400105
:1015E000A16406F58C71E16406F5F871216506F5D4
:1015F00002716165002106F5037200BFC0E90011A8
:10160000C0E90211C0E90411C0E90611C0E90811DE
:10161000C0E90A11C0E90C11C0E90E11C0E91011AE
:10162000C0E91211C0E91411C0E91611C0E918117E
:10163000C0E91A11C0E91C11C0E91E11C0E920114E
:10164000C0E92211C0E92411C0E92611C0E928111E
:10165000C0E92A11C0E92C11C0E92E11C0E93011EE
:10166000C0E93211C0F8D010904200F1D400C5D3C7
:1016700000200121A065206684F85C1001B0F0BD57
:1016800080B586B0006846F20042C4F20002002134
:101690009042CDE90411CDE90211019102D006B0CA
:1016A00080BD00BF41F24C00C4F20200C26B0223B5
:1016B00063F31962C263C26842F00072C260C2681A
:1016C00002F000720092009A026842F00202026088
:1016D000006800F00200009000984FF44070CDE9DF
:1016E00001030920059040F20040CDE90311C4F642
:1016F000000001A900F0B2F815200021002200F03E
:10170000FFF9152000F0EAF906B080BDC90700F026
:101710008080016846F20042C4F20002914218BF84
:1017200070472DE9F0479AB010AA6B464021FFF7A9
:1017300013FD002840F06A80139801380E2817D84E
:10174000DFE800F0081E141A0E20241C2812260CB4
:1017500010220A0001221EE040221CE018221AE09A
:10176000052218E0202216E0102214E0032212E0E5
:1017700000224FF0010C10E004220CE008220AE0E5
:10178000022208E0062206E0302204E0072202E0FE
:10179000142200E00C224FF0000C40F27804C2F258
:1017A00000046378A078591C01F01F05854203D11D
:1017B000A0680130A06029E040F2804EC2F2000E25
:1017C0006C200DF1400A13FB00E158439AE808062B
:1017D000199EDDF84C804EF80030DDE914E3169FC9
:1017E0004E62DDE91706BCF1000FC1E9019AC1E9BB
:1017F000038EC1E90537C1E9070681F8682004D1E5
:1018000001F128006946FEF703FD65701AB0BDE8D6
:10181000F04770477047000090F85C1001290BD129
:10182000022180F85C1001688A6922F001028A6155
:101830000021016600207047016E41F0040101663D
:10184000012070477047000070470000704700009B
:101850007047000070470000704700002DE9F04F0E
:1018600083B00E68002E00F0CF8000F1200241F21C
:10187000004C009200F13847C4F6000C06224FEAF3
:10188000B725604508BF0522052D38BF4FEAB722AE
:10189000002500274FF0000801920AE00E6808F1C9
:1018A000010836FA08F207F1020705F1040500F015
:1018B000AB80012202FA08FE16EA0E09EED0D1F83A
:1018C00004C003220CF0030BABF1010602FA07F48B
:1018D000012E6FEA040A11D88468CE6804EA0A046B
:1018E000BE4034438460446824EA0E06CCF30014FE
:1018F00004FA08F42643466006E000BFBBF1030F7C
:1019000002D14FF0030B21E0C6688C6806EA0A0694
:10191000BC402643BBF1020FC66017D16FF0030233
:10192000009B02EA580605F01C020F2453F806C07B
:1019300004FA02FE0C692CEA0E0C04FA02F242EAE6
:101940000C029A51D1F804C00CF0030B02680BFA98
:1019500007F302EA0A021A431CF4403F02609DD0DA
:1019600041F26003C4F202031A6840F2004E42F0F2
:1019700001021A601A68C4F2010E02F0010202921A
:10198000029A28F003024FF6084C7244CFF6FF7C0F
:1019900052F80C3005F00C060F24B440A343019C10
:1019A00004FA06F6334342F80C30DEF808204B68A0
:1019B00042EA090640F20C4CDC0258BF22EA090652
:1019C000CEF80860C4F2010CDCF800209C0242EA68
:1019D000090658BF22EA0906CCF80060DEF80420A8
:1019E0009C0342EA090658BF22EA0906CEF80460C1
:1019F000DEF80020DB0342EA090658BF22EA0906A6
:101A0000CEF800604AE700BF03B0BDE8F08F0000E9
:101A100041F23430C2F200000068704740F2040026
:101A200041F23431C2F20000C2F2000140680A689B
:101A3000104408607047000080B5032000F08CF867
:101A40000F2000F009F800281CBF012080BD00F025
:101A50002BF8002080BD0000B0B540F20405C2F2B2
:101A600000056968F1B1044640F20C00C2F20000C2
:101A70004FF47A720068B2FBF1F1B0FBF1F000F0C4
:101A800085F801460F2C4FF001000AD8002918BF35
:101A9000B0BD4FF0FF302146002200F031F80020A9
:101AA0002C60B0BD0120B0BD82B041F25800C4F23C
:101AB0000200816841F001018160816801F001014B
:101AC00001910199016841F080510160006800F0C6
:101AD00080500090009802B000F04EB8002848BF37
:101AE000704700F01F01012202FA01F11C2202EAF4
:101AF000D0004EF20012CEF200028150704700007A
:101B000010B54EF60C5CCEF2000CDCF80030C3F3DE
:101B1000022E8EF00704042C28BF0424BEF1030318
:101B20004FF0FF3E0EFA04F438BF0023A143994062
:101B30000EFA03F39A43114300F00F0200F16043E1
:101B40000901043A03F564436244002848BF02F1E6
:101B50000C03197010BD00004EF60C51CEF20001BE
:101B60000A684FF6FF031A4060F30A2242F08060D1
:101B700040F0FD700860704747F20800C4F20000B2
:101B8000016841F48041016070470000411E00205F
:101B9000B0EB116F1CBF012070474EF21002CEF265
:101BA000000251604EF62351CEF20001F0230B707B
:101BB0000721906011607047FEE700000822C5F21F
:101BC00000021368D2F800211A43D2071CBF01207B
:101BD000704780B5D1E900C3826843F2E00ECFF6CA
:101BE000C07E0EEA020E5BB1D1E90212114341EA56
:101BF0000E0141EA0C0119438160002080BD00BF45
:101C00004EEA0C018160002080BD00008268D2078E
:101C10001CBF0120704780B5D1F804C0C368BCF177
:101C2000000F23F0047E05D0D1E902231A4342EAD3
:101C30000E0302E0CA684EEA0203C360C26C40F2BF
:101C4000FF1309689A43114341EA0C01C164002063
:101C500080BD00008268D2071CBF01207047C268A7
:101C60004CF2180322EA030CD1E90032896843EAF6
:101C70000C031A431143C160002070478268D207E9
:101C80001CBF01207047B0B5D1E900C2C3684CF257
:101C90001C0ECFF6F07E0EEA030E3AB101F10805F4
:101CA00038CD496923432B4304E000BFD1E9033415
:101CB00049692343194341EA0C0141EA0E01C1601D
:101CC000016B21F00F01114301630020B0BD000042
:101CD00070B5036801F01004E340DB071CBF01206E
:101CE00070BDD2F808E0D0F800C0BEF1000F21D0DE
:101CF000BEF1C00F24D1C023A34043EA0C0303600C
:101D0000D0F860C040F60F73A3402CEA030CD2E970
:101D100000E36FF0C00606EA831343EA9E03D5682A
:101D2000A340C1F3C01143EA0C0300EB8101036639
:101D30008D6512E0FC21A14013682CEA010109E045
:101D40001368D56840F6FC71A1402B432CEA0101D1
:101D500043EA0E03A34019430160C16B0723A3406C
:101D60009943D2E90436926933431A43A24011439E
:101D7000C163002070BD00002DE9F041D2E902846A
:101D800002F11007E0CF44EA08042C4319A5D369F7
:101D900034436D5C3C43D2E900CE2343946A2E5811
:101DA00047F6F0772343BE432C1833432B50C4F837
:101DB0000CE0C4F808C0136A67684FF6FF76B743B3
:101DC0003B4363606FF0070303EAD01080F4000028
:101DD00080F48060890040F6000301EB8001C4F2CA
:101DE0000203526AC85820F0FF0002430020CA5084
:101DF000BDE8F081081C3044586C00002DE9F04F1C
:101E00000C6894FAA4F2B2FA82F234FA02F361D0C6
:101E10004FF001084FF0030B0BE000BFD1E9004782
:101E20000568B7402B403B430360013234FA02F3AC
:101E300050D008FA02F314EA030CF6D0D1F804905B
:101E4000A9F10103022B9CFAACF319D2B3FA83F780
:101E50007E00D0F808A00BFA06F3D1E902BE2AEA08
:101E6000030A0BFA06F545EA0A05856045684FF056
:101E7000030BA5430EFB04F4DB432543456005E05B
:101E8000B3FA83F77E000BFA06F3DB430D69C468EF
:101E9000B5401C402543B9F1020FC560BED14FEAE1
:101EA0001C2494FAA4F4D1F814E0BCF5807F28BF78
:101EB000B4FA84F74FF0240438BF202450F804C04B
:101EC000BF000F25BD402CEA05050EFA07F72F438A
:101ED0000751A3E70020BDE8F08F0000C0281FD104
:101EE00041F20C01C4F20201C86FC0F38110032853
:101EF00022D0022816D0012826D151F8040C00F077
:101F00000C0242F200400C2AC0F2F4002ED0082A43
:101F100018BF704741F60030C0F2B700704700BFED
:101F20000020704751F80C0C42F200414005C0F20D
:101F3000F40101EAE0707047D1F884004FF40041E9
:101F400001EA8030704700BF51F8040C00F00C0229
:101F500042F200400C2AC0F2F40023D0082A3CD1FF
:101F600041F60030C0F2B70037E000BF0A6802F067
:101F70000302032A04BF41F60030C0F2B7000A682A
:101F80000B68C2F306225043C3F3031209680132FF
:101F9000B0FBF2F0C1F34161022202EB4101B0FB60
:101FA000F1F070470A6802F00302032A04BF41F609
:101FB0000030C0F2B7000A680B68C2F30622504333
:101FC000C3F303120B680132B0FBF2F0C3F34162BA
:101FD000022303EB4202B0FBF2F051F8042C45F26D
:101FE000E853C2F30312C0F600039A5C51F8041CD4
:101FF00045F2F853C1F30221C0F60003595C02F028
:102000001F02D04001F01F01C8407047302859D04E
:102010000C282DD003281CBF0020704741F20C0172
:10202000C4F20201C86F4FF4404262F39F00B0F166
:10203000031F50D00222C0F20302904238D0012286
:10204000C0F20302904220D051F8040C00F00C02C0
:1020500042F200400C2AC0F2F40000F09D80082AF1
:1020600040F0B58041F60030C0F2B700AFE000BFED
:1020700041F20C01C4F20201C86FC0F381000328D1
:1020800029D0022814D001282CD151F8040C00F0DA
:102090000C0242F200400C2AC0F2F40034D0082AAC
:1020A00018BF704741F60030C0F2B700704700BF5C
:1020B00051F80C0C42F200414005C0F2F40101EA73
:1020C000E070704741F20C01C4F20201C86FC0F326
:1020D00001100328D5D1D1F884004FF4004101EA62
:1020E0008030704751F8040C00F00C0242F20040BE
:1020F0000C2AC0F2F40023D0082A3CD141F600306B
:10210000C0F2B70037E000BF0A6802F00302032AFA
:1021100004BF41F60030C0F2B7000A680B68C2F392
:1021200006225043C3F3031209680132B0FBF2F0F8
:10213000C1F34161022202EB4101B0FBF1F07047B3
:102140000A6802F00302032A04BF41F60030C0F21D
:10215000B7000A680B68C2F306225043C3F30312A8
:102160000B680132B0FBF2F0C3F34162022303EBD0
:102170004202B0FBF2F051F8042C45F2E853C2F3EE
:102180000312C0F600039A5C51F8041C02F01F020F
:10219000C1F302212AE000BF0A6802F00302032A09
:1021A00004BF41F60030C0F2B7000A680B68C2F302
:1021B00006225043C3F303120B680132B0FBF2F066
:1021C000C3F34162022303EB4202B0FBF2F051F889
:1021D000042C45F2E853C2F30312C0F600039A5CE4
:1021E00051F8041C02F01F02C1F3C22145F2F8535A
:1021F000C0F60003595CD04001F01F01C840704791
:102200000246006840063BD42DE9F04710684FF6BF
:10221000BF73D1E9009E20EA030CD1E9024A4CEADF
:102220000905D1E9046701F1180845EA0E0598E8A7
:10223000090145EA0A052E4330431843384340EA72
:1022400008001060506840F60473984340EA174055
:1022500000232043B3EBD42F506003D1506840F4E7
:1022600080505060B8F5005FBDE8F04704BF888C2F
:1022700010610020D16921F40061D161704700BF75
:102280000120D16921F40061D161704740F20C0155
:10229000C2F200010860704740F2FF7C024600680D
:1022A000C4F2000C624523DD40F60003C4F20003D3
:1022B0009A4226D043F20043C4F201039A4220D04E
:1022C00042F60043C4F201039A421AD043F2FF33AC
:1022D000C4F201039A421EDC62452FDCB2F1804F4A
:1022E00046D040F20043C4F200039A4240D043E09B
:1022F000B2F1804F05D040F20043C4F200039A428D
:10230000E4D14B6820F07000184343F2FF33C4F26D
:1023100001039A42E0DD44F2FF33C4F201039A4222
:102320001ADC43F20043C4F201039A4220D044F283
:102330000003C4F201039A421AD01DE040F60003E4
:10234000C4F200039A4213D042F60043C4F20103E0
:102350009A420DD010E000BF44F60003C4F201031E
:102360009A4205D044F20043C4F201039A4203D1D9
:10237000CB6820F44070184310608868D062A2F1E6
:102380008040A0F596300B884FEAB0200728936272
:1023900007D8012303FA00F010F0E50F1CBF08690D
:1023A0001063506940F00101002051617047000046
:1023B0002DE9F041B1F5805F4FF0010350DA0129BA
:1023C00000F08E80102900F01781B1F5807F40F079
:1023D0009681016A40F2FF1621F480710162036A5E
:1023E0004168D0F81CC0146923F440732402B4433C
:1023F0002343A0F18044D2E900E5A4F596344FEAE6
:10240000B424072C43EA05231CD8012505FA04F45B
:1024100014F0E50F16D002F1140898E8600140F2BC
:10242000FF77AD0223F440639468BD432B4343EA36
:102430008423340142F20F0521F44051AC4321437F
:1024400041EA48114FF68C74CFF6FE740CEA04078B
:1024500047EA0E074160C761D168C16303624DE17D
:1024600000F08280B1F5803F00F00E81B1F5801F51
:1024700040F04581016AA0F1804521F4801101629C
:10248000A5F59635046A036DD2E900EC11694FEAAF
:10249000B525072D0DD8012606FA05F515F0E50F2F
:1024A0001FBF4568966925F4802545EA862518BF33
:1024B00045600025CFF6E07524F4401405EA01518B
:1024C000214348F6FF44CFF6FF6404F540742340EF
:1024D00043EA0E230365D26841EA0C51C2640CE161
:1024E000016A21F001010162036A4168D0F818C055
:1024F000146923F0030324F001042343A0F1804472
:10250000D2E900E5A4F596344FEAB424072C43EA57
:1025100005031AD8012505FA04F414F0E50F14D0C8
:1025200002F1140898E860016FF0040723F00C032F
:10253000946807EA85052B4343EA840321F440713C
:1025400026F40074214341EA48014FF68C74CFF61B
:10255000FE740CEA040747EA0E0741608761D16800
:1025600041630362CAE000BF016A41F6FF7621F4CD
:1025700080510162036A4168D0F81CC0146923F4D9
:1025800040532403B4432343A0F18044D2E900E53F
:10259000A4F596344FEAB424072C43EA05331CD83B
:1025A000012505FA04F414F0E50F16D002F1140821
:1025B00098E8600147F6FF77AD0323F44043946841
:1025C000BD432B4343EA8433B40148F23F0521F471
:1025D0004041AC43214341EAC81148F6FF44CFF6DD
:1025E000FF640CEA040747EA0E274160C761D1681F
:1025F0000164036282E000BF016A6FF0100621F0FF
:1026000010010162036A4168D0F818C0146923F010
:10261000300306EA04142343A0F18044D2E900E524
:10262000A4F596344FEAB424072C43EA05131CD8CA
:10263000012505FA04F414F0E50F16D002F1140890
:1026400098E860016FF0400723F0C003946807EA40
:1026500085152B4343EA8413B40040F6030521F4A7
:102660004061AC43214341EAC80148F6FF44CFF63C
:10267000FF640CEA040747EA0E2741608761D168CE
:10268000816303623AE000BF016AA0F1804521F452
:1026900080310162A5F59635036AD0F850C0D2E9C1
:1026A00000E114694FEAB525072D0DD8012606FA79
:1026B00005F515F0E50F1FBF4568966925F48035CF
:1026C00045EA062518BF45600025CFF6E07505F5FB
:1026D000F01523F4403305EA0444234343EA01415F
:1026E0004FF68C73CFF6FE73033303EA0C0343EA11
:1026F0000E030365D268836C82640162002318466E
:10270000BDE8F08170B504460068C0071CBF012019
:1027100070BD0E46206846F6F311CEF6FF710840F4
:10272000D6E9021CD6E904320843F5691843104380
:1027300028432060606820F4405040EA0C0060604C
:10274000B069A16821F440710843A06044F6FF30ED
:10275000C4F2000084424FF0010011DC44F2004159
:10276000C4F200018C421DD044F60001C4F2000105
:102770008C4244D13020FFF749FCE8B936E000BF75
:1027800044F60041C4F200018C4211D043F600012E
:10279000C4F201018C4232D10320FFF737FC58B953
:1027A00024E000BF0C20FFF731FC28B91EE000BF79
:1027B000C020FFF793FBC8B17168B9B132680B2A2A
:1027C0001CD812A353F82220F369B0FBF2F0B3F542
:1027D000004F0DD1400000EB5100B0FBF1F04FF67F
:1027E000F0710140C0F34200084406E0012006E019
:1027F00000EB5100B0FBF1F080B2E06000203188C6
:10280000E26A22F00F021143E16270BD0100000094
:1028100002000000040000000600000008000000A4
:102820000A0000000C000000100000002000000062
:102830004000000080000000000100002DE9F04190
:1028400092B0002741F24C001097CDE90E77CDE908
:102850000C77CDE90A77CDE90877CDE90677CDE9A0
:102860000477CDE90277CDE90077C4F20200C16BAD
:10287000022565F31D71C1630168082441F400510C
:1028800001600168032601F400511191119901685A
:10289000C5F2000441F0010101600068694600F0E2
:1028A000010011901198072000904FF09040019680
:1028B0000497FFF7A3FA0EA94FF0A040CDE90E77D9
:1028C00010974FF0A048FFF7C5F94FF44030CDE91D
:1028D0000A0704F53E700AA9FFF770F9A82006A9B7
:1028E000A1C106A94FF0A0400997FFF78FF96068D2
:1028F0004FF6FF71C7F6DF71084000F100406060DD
:10290000606C012161F3C810606420684FF6C072EA
:10291000C5F6FF7210402060206802F1805210401E
:1029200000F180502060606C61F34D206064E068CD
:10293000102166F3C500E060D4F8A80020F0020082
:10294000C4F8A800606C65F3D3306064E06866F397
:102950008810E060D4F8A80020F00400C4F8A800B3
:10296000606C66F359506064E06866F34B20E06089
:10297000D4F8A80020F00800C4F8A8004020C8F847
:10298000000054F8040C40F0400044F8040C4EF2EF
:102990001240CEF20000017020684FF6C071C3F6FD
:1029A000FF71084000F10040206000BF2068B0F1D6
:1029B000FF3F0ADC2068B0F1FF3F06DC2068B0F181
:1029C000FF3F02DC20680028F0D4A06D4FF2000128
:1029D000C0F2FF314B220840C8F200421043A0650C
:1029E000A06D40F08070A065A06D40F00070A06503
:1029F000E06D0840104300F18060E065E06D40F05C
:102A00008070E065E06D40F00070E065206E084089
:102A1000104300F100602066206E40F08070206658
:102A2000206E40F00070206621684FF6C070C7F637
:102A3000FF700140013121604FF0A0410A68D207C8
:102A400009D10A68D20704BF0A685FEAC27202D1DC
:102A50000A68D207F2D04FF0A04101220A60216833
:102A6000084040F00800206012B0BDE8F08100008E
:102A70002DE9F04F9FB00DF118084FF6C07940F2E4
:102A8000081640F2080B002740462C21C7F6FF79B4
:102A9000C5F20006C4F2020B1D97CDE91B77CDE904
:102AA0001977CDE91777CDE91577CDE91377CDE91A
:102AB0001177FDF7C6FB41F24800CDE90477CDE977
:102AC0000277CDE90077C4F20200016C022262F3C2
:102AD0001D7101644168032441F400514160416863
:102AE00001F400511E911E99416841F004014160BA
:102AF000416801F004011E911E99016841F0010135
:102B00000160016801F001011E911E99016841F008
:102B1000040101600068694600F004001E901E98E0
:102B20001F20009040F60000C4F6000001940497B6
:102B3000FFF764F9A6F108051BA92846CDE91B7724
:102B40001D97FFF787F80420CDE916074FF40050D2
:102B5000CDE918044FF4805A15A928461597CDF8E9
:102B600068A0FFF78BF8D6F8B80043F6FF718843EA
:102B7000C6F8B800B06840F2034120F48030B0607D
:102B8000B0688843B06011A92846CDE91377FFF7F4
:102B90003DF8B06A062161F38A10B062F168052041
:102BA00060F39441F160D6F8A810072221F04001AB
:102BB000C6F8A810B16A62F31031B162F168082258
:102BC00060F35751F160D6F8A81021F08001C6F8E3
:102BD000A810B16A62F39641B162F168092260F30C
:102BE0001A61F160D6F8A81021F48071C6F8A81017
:102BF000B16A62F31C61B162F168424660F3DD6163
:102C0000F160D6F8A81021F40071C6F8A810F16A96
:102C100060F30401F162F16860F3D131F160D6F83C
:102C2000A800002120F02000C6F8A80024200F9062
:102C30002020CDE9090780200B904FF480700C9084
:102C40004FF480600D900A200E9006F13800069037
:102C500040F22800C2F200003C300790ABF10800BF
:102C60000897CDF840A0FFF787F8DBF80000302187
:102C700040F00400CBF80000DBF8000040F0020058
:102C8000CBF80000DBF8000040F00800CBF80000B3
:102C90004EF20B40CEF2000001704EF20010CEF268
:102CA00000004FF400610160306809F160410840A4
:102CB0003060306809F17041084000F180503060A8
:102CC00030684FF6C071C3F6FF71084000F1004054
:102CD000306000BF3068B0F1FF3F0ADC3068B0F10F
:102CE000FF3F06DC3068B0F1FF3F02DC30680028AF
:102CF000F0D4DBF8000040F00100CBF80000012028
:102D0000FEF75CF9306800EA090040F0010030602D
:102D100056F8080CC0070CD156F8080CC00704BFC1
:102D200056F8080C5FEAC07003D156F8080CC007CB
:102D3000EED0012046F8080C306800EA090040F0A7
:102D4000040030601FB0BDE8F08F000081B041F298
:102D50004800C4F20200016841F008010160006807
:102D600000F008000090009801B0704770B58EB078
:102D7000002541F24C000C95CDE90A55CDE90855E6
:102D8000CDE90655CDE90455CDE90255CDE900550B
:102D9000C4F2020001686C4641F4803101600168B0
:102DA000032601F480310D910D99016841F0010174
:102DB00001600068214600F001000D900D98102080
:102DC00000904FF0904001960495FFF717F82020EF
:102DD000CDE900064FF0904021460495FFF70EF82C
:102DE00040F60004C5F20004E06B012120F40070FD
:102DF000E063CDE906550895CDE90A550C9506AD79
:102E0000C0F2112120462A46FEF762FF2068F22117
:102E100020F002002060E06BC3F2425120F4807089
:102E2000E063E06B2A4620F00070E0632046FEF786
:102E30004FFF206820F400302060E06B20F08070AD
:102E4000E063206840F001002060206840F480309A
:102E500020600EB070BD000070B586B041F2002059
:102E600046F20041C2F20000C4F2000100244FF417
:102E70008072C0E900140A210226C0E9022401255B
:102E80000D220323C0E9051600F11C01058284749C
:102E90004CC1C0E90A62C0E90C35C0E90E44FEF736
:102EA000C7FA002818BFFEF701F840F2FF7005903E
:102EB00041F20020C2F200006946CDE90044CDE9AC
:102EC00002650496FEF714F9002818BFFDF7EEFF1F
:102ED00040F27804C2F2000401200021C4E9040198
:102EE00041F2002008224FF40013C2F20000C4E9AE
:102EF0000612C4E90811C4E90A312163FEF78CFC0B
:102F0000002818BFFDF7D2FF41F20020C2F20000F6
:102F1000012100220025FEF765F8002818BFFDF703
:102F2000C5FF257006B070BD81B041F24800C4F203
:102F30000200016841F010010160006800F010001B
:102F40000090009801B070472DE9F04F87B000263F
:102F500041F24C00CDE90466CDE90266CDE9006698
:102F6000C4F20200016840F2004441F02001016017
:102F70000168C4F6000401F0200106910699016879
:102F8000012741F00401016001684FF0020B01F0DC
:102F900004010691069901684FF0040A41F001010D
:102FA000016001684FF4805801F001010691069913
:102FB00001686D4641F00201016000684FF4004174
:102FC00000F00200069006984FF61840CFF6FF700A
:102FD000A762C4F828B0C4F828A0C4F828802150FB
:102FE0004020A0628020A0624FF0030920462946BD
:102FF000CDE90077CDE902960496FEF7FFFE204664
:103000002946CDE900B7CDE902960496FEF7F6FE13
:1030100020462946CDE900A7CDE902960496FEF7A1
:10302000EDFE20462946CDE90087CDE902960496BB
:10303000FEF7E4FE4FF48070CDE900064FF09040BB
:1030400029460496FEF7DAFE4FF40070CDE900063B
:103050004FF0904029460496FEF7D0FE4FF4004012
:103060008DE881024FF090402946CDE90366FEF7D6
:10307000C5FE40208DE8810220462946CDE9036641
:10308000FEF7BCFE80208DE8810220462946CDE96E
:103090000366FEF7B3FE07B0BDE8F08F2DE9F04FF1
:1030A00091B00DF1180840462821FDF7CAF8002715
:1030B00041F24C00CDE90477CDE90277CDE9007704
:1030C000C4F20200416940F2004541F4805141617F
:1030D0004169C4F6000501F480511091109901680E
:1030E0006E4641F00201016000684FF0020900F0F5
:1030F000020010901098082000904FF0030A052459
:1031000028463146CDF80490CDE902A704970594EE
:10311000FEF774FE4FF0200B28463146CDE900B98A
:10312000CDE902A7CDE90474FEF768FE4FF4827082
:1031300007904FF47060CDE9080701200A904FF422
:10314000007043F20404CDE90B0B0720C4F2010424
:103150000F90201F41460697CDE90D77FFF750F8F5
:10316000206820F010002060206840F008002060F7
:1031700054F8040C40F0400044F8040C11B0BDE8D1
:10318000F08F00002DE9F04F91B00DF11808404686
:103190002821FDF756F8002741F24C00CDE90477CD
:1031A000CDE90277CDE90077C4F20200C16840F2B0
:1031B000004541F48041C160C168C4F6000501F4D6
:1031C00080411091109901686E4641F00201016042
:1031D00000684FF0020900F00200109010984FF4C0
:1031E000005000904FF0030A052428463146CDF8E0
:1031F0000490CDE902A704970594FEF7FFFD4FF474
:1032000080408DE801064FF0010B284631460397B8
:10321000CDE904B4FEF7F2FD4FF400408DE801065D
:1032200028463146CDE903770594FEF7E7FD4FF4D4
:10323000827007904FF4706008A981E881084FF40C
:10324000007043F604040B902020C4F20004CDE982
:103250000C07201F414606970E97FEF7D1FF206806
:1032600020F010002060206820F00800206054F852
:10327000040C40F0400044F8040C11B0BDE8F08F9D
:1032800010B586B000200490CDE90200CDE9000021
:1032900041F25800C4F20200016840F2004441F0DB
:1032A000020101600068C4F2000400F00200059011
:1032B0000598A920ADF8000040F2E7300290694679
:1032C0002046FEF7E9FF20684BF6F87120F08000F9
:1032D0002060A068CFF6FE710840A060E068402141
:1032E00040F00100E0606FF0010020614EF21D40EF
:1032F000CEF2000001704EF20010CEF200004FF04E
:1033000000510160206840F00100206006B010BD4F
:103310002DE9F04F95B0002641F24C0B1396CDE904
:103320001166CDE90F66CDE90D66CDE90B66CDE9F5
:103330000966CDE90766CDE90566CDE90366CDE905
:103340000166C4F2020BDBF8140043F2004440F4BF
:103350000050CBF81400DBF81400C4F2010400F4B0
:1033600000501490149841F299006025CDE911069F
:103370000FA92046ADF83C6010951396FEF78CFF20
:1033800020684BF6F87120F080002060A068CFF62E
:10339000FE710840A060A06940F64C0740F00800AC
:1033A000A0610795012007ADCDE908002046012165
:1033B0002A46CDE90A76CDE90C660E96FEF7F8FFAF
:1033C000A069102120F00400A061A0692A4640F401
:1033D0000060A06120460A974FF0100AFEF7E8FF50
:1033E000A0694FF4807120F48060A061E0692A46F2
:1033F00040F00800E06120460A974FF48078FEF71D
:10340000D7FFE069702720F00400E061E0694FF425
:10341000805140F40060E06140F6E1100A902046DF
:103420002A46CDE9077609964FF48059FEF7C0FF8A
:10343000206D4FF4803140F00800206541F2850096
:103440000A9020462A46CDE907760996FEF7B0FF96
:10345000206A4FF68F7140F4805020626FF01000A8
:103460002061206ACFF6FF5140F4803020626FF473
:1034700080302061606801AD084070306060606835
:10348000082161F317506060A0684FF4804120F07C
:103490008000A0604EF22E40CEF2000080F800A026
:1034A0004EF20410CEF200000160DBF8000040F69E
:1034B000000440F00400CBF80000DBF80000C4F684
:1034C000000400F0040014901498402001900220A1
:1034D00002900320CDE903060420069020462946E9
:1034E0000596FEF78BFC8020019020462946FEF7CA
:1034F00085FC20462946CDF80480FEF77FFC4FF47A
:103500008060019020462946FEF778FC4FF4006069
:10351000019020462946FEF771FC20462946CDF849
:103520000490FEF76BFC15B0BDE8F08F2DE9F04F6D
:103530008FB0002741F24C00CDE90C77CDE90A7736
:10354000CDE90877CDE90677CDE90477CDE90277B3
:10355000CDE90077C4F20200C16B40F2004521F0D2
:103560003001C163C168C4F6000541F48021C16027
:10357000C1686E4601F480210E910E99016844F6EF
:10358000000441F00201016000684FF0020A00F0FF
:1035900002000E900E984FF4806000904FF0030BE5
:1035A0004FF001084FF0070928463146C4F20004E5
:1035B000CDF804A0CDE902B7CDF81080CDF8149075
:1035C000FEF71CFC4FF400608DE8010C03A880E8B6
:1035D000800328464EF2274531464EF20416CEF2BD
:1035E0000005CEF20006FEF709FC4EF60C50CEF2B6
:1035F000000000682F70802030604AF22010C0F276
:103600000700CDE907070C20CDE90B0706A92046E6
:103610000697CDE909770D97FFF774F844F608008F
:10362000C4F2000050E8001F21F0604140E80012A1
:103630005AB350E8001F21F0604140E8001222B365
:1036400050E8001F21F0604140E80012EAB150E864
:10365000001F21F0604140E80012002AE2D114E08E
:1036600050E8001F21F0606140E80012AAB150E864
:10367000001F21F0606140E8001272B150E8001FA5
:1036800021F0606140E800123AB150E8001F21F0DB
:10369000606140E80012002AE2D1216821F0005167
:1036A0002160616821F490416160A16821F02A01E4
:1036B000A160216841F001012160E169890209D41A
:1036C000E16989025CBFE1695FEA812102D4E169B5
:1036D0008902F2D5402129708021316054E8001F11
:1036E00041F0200144E800125AB354E8001F41F0B1
:1036F000200144E8001222B354E8001F41F02001E9
:1037000044E80012EAB154E8001F41F0200144E807
:103710000012002AE2D114E050E8001F41F001013C
:1037200040E80012AAB150E8001F41F0010140E852
:10373000001272B150E8001F41F0010140E8001290
:103740003AB150E8001F41F0010140E80012002AA0
:10375000E2D10FB0BDE8F08FFEE70000FEE7000009
:103760007047000070470000FEF758B980B582B07E
:1037700042F20000C4F202000168042262F3030175
:10378000016000BF016801F00F0104290ED001683B
:1037900001F00F01042909D0016801F00F0104298B
:1037A00004D0016801F00F010429EBD147F2800138
:1037B000C4F200010A6841F2080022F48072C4F2E7
:1037C00002000A6050F8081C41F4803140F8081CDF
:1037D00050F8081C89030CD450F8081C89035CBFFE
:1037E00050F8081C5FEA813103D450F8081C8903A3
:1037F000EED5416848F20C02CFF6FF12114045F2B7
:10380000235211434160416841F08071416050F89A
:10381000081C41F0807140F8081C50F8081C890110
:103820000CD450F8081C89015CBF50F8081C5FEAF2
:10383000811103D450F8081C8901EED501680822D3
:1038400041F003010160016862F30711016000BFEC
:10385000016801F00C010C290ED0016801F00C0187
:103860000C2909D0016801F00C010C2904D0016871
:1038700001F00C010C29EBD1552101910199A1B165
:10388000019901390191019979B1019901390191A8
:10389000019951B1019901390191019929B1019918
:1038A0000139019101990029EAD1016821F0F00163
:1038B0000160016821F4E0610160016821F4605158
:1038C00001604FF68060C0F62120FEF7DFFC0F207C
:1038D000FEF7C2F820B102B0BDE88040FDF7E6BABD
:1038E00002B080BD4EF68850CEF20000016841F46F
:1038F000700101607047000040F21040C4F2000007
:103900000168C90725D06FF00101016040F26C1019
:10391000C2F200000168013101600121C1718268B9
:103920000132642A826022BF002282600171C16874
:103930000131C16003D20021C160012141710169DF
:1039400001310529016138BF704700210161012162
:103950008171704743F21040C4F201000168C9064A
:103960000ED56FF01001016050F8100CC00648BF72
:10397000704780B500F080F900F0ACF9BDE88040F8
:1039800070470000B0B544F61C00C4F200000168A6
:1039900089062FD40168C9070AD1016889075CBF6D
:1039A00001685FEA417103D40168090758BFB0BDDF
:1039B00050F81C1CC90544BF0121416050F8141C7B
:1039C000C9071CBF0221416050F8141CC9071CBF65
:1039D0000421416050F8141CC9071CBF0821416034
:1039E00014A000F081F840F2AC00C2F20000002107
:1039F0000170B0BD806840F2AC04C2F20004C2B2F3
:103A000021780A2A0AD10029F3D02178601C0025E8
:103A10004554217800F010FD2570B0BD3E2905D831
:103A200021784A1C214422704870B0BD00202070CB
:103A3000B0BD00BF55415254204572726F722100D3
:103A4000FEE7000080B52DED028B9FED098AF0EEB8
:103A5000480A00F0FFFDB5EE400A30EE081AF1EE1C
:103A600010FAB8BFB0EE410ABDEC028B80BD00BFBA
:103A70000000B44343F22040C4F2010050F8081C97
:103A800041F0080140F8081C50F8081C41F400619E
:103A900040F8081C50F8041C41F0080140F8041CD0
:103AA00050F8201C41F0010140F8201C016841F051
:103AB00001010160016841F010010160016841F4F9
:103AC00080710160016841F004010160016841F00A
:103AD00040010160016841F480610160416A41F484
:103AE000004141627047000083B070B581B040F280
:103AF0008016044605A8C2F200060EC005AB30468B
:103B00004FF400712246009300F08AFD002800F077
:103B1000708044F61C01B0F5FE7F88BF40F2FD10B6
:103B200040F60D22C4F2000132520230002232541B
:103B3000B35C4FF6F0740D682D0635D40D682D0674
:103B400034D40D682D0633D40D682D0632D40D689B
:103B50002D0631D40D682D0630D40D682D062FD4D6
:103B60000D682D062ED40D682D062DD40D682D065A
:103B70002CD40D682D062BD40D682D062AD40D6883
:103B80002D0629D40D682D0628D40D682D0627D4BE
:103B90000D682D0626D4103C14F11005CBD1CB6056
:103BA00001328242C4D124E00F341BE00E3419E00C
:103BB0000D3417E00C3415E00B3413E00A3411E037
:103BC00009340FE008340DE007340BE0063409E057
:103BD000053407E0043405E0033403E0023401E077
:103BE000013400BF002C18BFCB60013282427FF449
:103BF0009FAF01B0BDE8704003B0704710B543F609
:103C0000FD7000F0CDF84FF6FF71884210D00BA286
:103C1000C1B204461046FFF767FFE00509A00BA1FB
:103C200058BF01460BA0FFF75FFF012010BD00BF8A
:103C30000AA0FFF759FF012010BD00BF4147433ADA
:103C4000202564006661696C000000007375636381
:103C5000657373004F43463A202573005B4552520B
:103C60004F525D20726561642064696167206661FE
:103C7000696C65642100000010B543F6FF7000F028
:103C80008FF840F234144FF6FF71C2F200048842FC
:103C9000208417D000EE100A9FED0C1AB8EE400AEF
:103CA0009FED0B2A20EE010A30EE020AB2EE061A50
:103CB00084ED090A20EE010AFFF7C4FE84ED0B0A29
:103CC00010BD00BFBFEE000A10BD00BFD002B43C63
:103CD000439CCFC140F23410C2F2000090ED010AC3
:103CE00090ED091A9FED262A31EE400AB4EE420A01
:103CF000F1EE10FA02DD9FED252A08E09FED212A62
:103D0000B4EE420AF1EE10FA03DA9FED1F2A30EE0C
:103D1000020A90ED0A2A017F32EE400A80ED0A0A7B
:103D200080ED011AF1B190ED061A9FED192A90ED80
:103D3000053A21EE022A32EE032A9FED163A30EEC2
:103D4000424A9FED155A24EE033A33EE022A24EE3E
:103D5000053A33EE011A80ED052A80ED061A80ED52
:103D60000C1A704701219FED0D1A0177B0EE402A21
:103D700080ED052A80ED061A80ED0C1A704700BF11
:103D800000003443000034C30000B4430000B4C357
:103D900017B75138FDAD003DE6E99D400000000039
:103DA0002DE9F04F40F2184E43F60803C4F6000E1A
:103DB0000026C4F200034FF0010C4FF4805A4FF478
:103DC000404807E001204A044FF00106CEF800A069
:103DD00040F1C880C7B2BC0884EA570484EAD7041B
:103DE00084EA171484EA571484EA97148CEAD717E4
:103DF000C0F30025C0F340227D4084EA000BC0F3ED
:103E000080246A40B146014686B2C0F3C0206240B9
:103E1000504080EA163080EA563080EA0B006FF39B
:103E20009F31C003CEF810A01A6892070AD41A680E
:103E300092075CBF1A685FEA827203D41A6892071D
:103E4000F2D500BF084340F4804098801868C0074E
:103E50000AD11868C00704BF18685FEAC07003D1B0
:103E60001868C007F2D000BF58681868000609D566
:103E70001868000644BF18685FEA006002D5186839
:103E80000006F2D4CEF800A000BF00BF00BF00BF04
:103E900000BF00BF00BF00BF00BF00BF00BF00BF2A
:103EA00000BF00BF00BF00BF00BF00BF00BF00BF1A
:103EB00000BF00BF00BF00BF00BF00BF00BF00BF0A
:103EC00000BF00BF00BF00BF00BF00BF00BF00BFFA
:103ED00000BF00BF00BF00BF00BF00BF00BF00BFEA
:103EE00000BF00BF00BF00BF00BF00BF00BF00BFDA
:103EF00000BF00BF00BF00BF00BF00BF00BF00BFCA
:103F0000CEF810A0186880070AD4186880075CBF34
:103F100018685FEA807003D418688007F2D500BF84
:103F2000A3F804801868C0070AD11868C00704BF46
:103F300018685FEAC07003D11868C007F2D000BFEC
:103F40005968186800067FF53DAF1868000644BF41
:103F500018685FEA00607FF535AF18680006F0D496
:103F600030E700BF6FF39F315FEAC97018BF4FF6AB
:103F7000FF710846BDE8F08F7047000080B500F083
:103F8000F7F8027940F2F001C2F2000148601AB17C
:103F900002688A6300220271027B1AB182684A6356
:103FA00000220273027D002A1CBF00220275027FDC
:103FB0001AB182694A6200220277087850B391ED03
:103FC000020A9FED1F4A9FED1F5A91ED031A20EE42
:103FD000040A30EE050A9FED1C5A91ED042A21EEE9
:103FE000041A31EE051A9FED195A91ED053A22EEA9
:103FF000042A32EE052A9FED165A23EE043A33EED8
:10400000053A81ED020A81ED031A81ED042A81ED62
:10401000053A80BD49F6A6334CF6CD4049F69A1CC8
:10402000C3F64433C3F64C50C3F6196C4FF08042CC
:10403000C1E902030120C1E9042C087080BD00BF62
:104040006666663F0BD7A33B52499D39CDCC4C3EAB
:1040500090C2753C41F26420C2F20000002180ED64
:10406000000A80ED011AC0ED041AC16041F29020EF
:10407000C2F20000C0EC020AC0ED041AC160704731
:104080007047000041F2DC20C2F20000002180EC09
:10409000030AC0ED041AC1604161C0E90711416221
:1040A0007047000041F20830C2F20000002180ECAD
:1040B000020A80ED041AC1607047000080B540F22A
:1040C000F0000021C2F20000C4F2F02141634CF67E
:1040D000CD41C3F64C6100229FED150A45F62943F8
:1040E000C0E9062100219FED131AC3F60F63C4F245
:1040F0000C31F1EE0C1AF0EE400AC0E9082381639E
:10410000FFF7A8FF9FED0C0ADFED0C0A9FED0C1ADC
:10411000FFF7C8FF9FED0B0A9FED0B1AF7EE000AA1
:10412000F6EE001AFFF7AEFFBDE8804000F00EB8D3
:104130009A99993F00001645A69BC43B00000000D9
:10414000CDCC4C3E8FC2F53D0AD7A33B40F22800B0
:10415000C2F20000C1889FED051A00EE101AB8EEF9
:10416000400A20EE010A80ED0D0A7047873B053CAE
:1041700041F2BC20C2F200007047000086B04EF24F
:104180000014CEF20004FCF7F7FE4FF4802020600C
:1041900040F2340540F25008C2F20005C2F20008B5
:1041A00095ED000A95ED01AA95ED029A98ED038A26
:1041B00040F2100A40F27019C2F2000AC2F200097D
:1041C0004FF0020B002400BF10EE100AFCF76CF950
:1041D00006461AEE100A0F46FCF766F941EC1A0B78
:1041E00019EE100AFCF760F941EC190B18EE100AF1
:1041F000FCF75AF941EC100B6EA032463B468DEDB0
:1042000000AB8DED029B8DED040BFFF76DFC9AF872
:10421000000003283ED8DFE800F0033B253300BF51
:10422000FFF7ECFC0646FFF749FF002E1CBF40F2EB
:104230000250AAF800004EF20010CEF200004FF437
:104240008021016043F20C41C4F20101086840F092
:104250001000086001208AF8000099F80000E0B919
:104260001FE000BF9AF80110052900F2938059A0C1
:10427000DFE801F096049488868E00BF68A08DE088
:1042800052A0FFF731FC99F8000030B909E000BFF7
:10429000FFF774FE99F8000018B189F80040FFF7A5
:1042A00055FF99F8010018B189F8014000F03EF976
:1042B00099F8020018B189F8024000F05DF999F808
:1042C000030028B189F80340FFF7DAFEFCF7FAFD96
:1042D00098ED038A9AED020AB4EE408AF1EE10FAE4
:1042E00007DD9AF800008AF801B0012808BF8AF8B3
:1042F00000B09AED030AB4EE408AF1EE10FA09DA42
:104300009AF8000001284FF003008AF8010008BF66
:104310008AF800B095ED000A9AED041A95ED01AA0D
:1043200095ED029AB4EE410AF1EE10FA09DCB4EE12
:1043300041AAF1EE10FA04DCB4EE419AF1EE10FA63
:1043400009DD9AF8000001284FF001008AF8010009
:1043500008BF8AF800B098ED041A9AED012AB4EE6D
:10436000421AF1EE10FA7FF72FAF9AF800000128F9
:104370004FF004008AF8010008BF8AF800B023E774
:104380001AA00BE045F21060C0F6000006E000BF86
:104390001DA003E045F22660C0F60000FFF7A4FB75
:1043A00003208AF8000099F8000000287FF475AF18
:1043B00077E700BF252E34662C20252E34662C206E
:1043C000252E34662C20252E346600005B45525283
:1043D0004F525D005B4552524F525D204F56455241
:1043E0005F564F4C54414745000000005B45525218
:1043F0004F525D204F5645525F54454D50455241F6
:1044000054555245000000005B4552524F525D200A
:10441000454E434F4445525F4552524F52000000B3
:104420005B4552524F525D204F5645525F435552A5
:1044300052454E5400000000B0B582B02CA1044695
:10444000FBF70AFF80B100F1100501A9284600F032
:104450003DFB0198A84207D041F2BC20C2F2000007
:10446000012180ED000A017126A12046FBF7F4FE30
:1044700080B100F10D0501A9284600F027FB019845
:10448000A84207D041F2BC20C2F20000012180ED19
:10449000020A01731FA12046FBF7DEFE80B100F186
:1044A0000A0501A9284600F011FB0198A84207D08F
:1044B00041F2BC20C2F20000012180ED040A017526
:1044C00017A12046FBF7C8FE80B100F1090401A93D
:1044D000204600F0FBFA0198A04207D041F2BC2030
:1044E000C2F20000012180ED060A017702B0B0BDE2
:1044F0007461726765745F706F736974696F6E3A27
:10450000000000007461726765745F7370656564B4
:104510003A00000063757272656E745F713A000054
:104520007461726765745F713A00000040F22800A0
:10453000C2F2000001889FED0E1A00EE101A4188A9
:10454000B8EE400A02EE101A8188B8EE422A03EE55
:10455000101AB8EE433A20EE010A22EE012A23EEA9
:10456000011A80ED0A0A80ED0B2A80ED0C1A7047C3
:10457000873B053C0000000010B540F22804C2F261
:10458000000420899FED221A00EE100AB8EE400ABE
:104590009FED202A20EE010A80EE020A9FED1E2ADE
:1045A00020EE023A31EE400A83EE000A80EE020A63
:1045B00010EE100AFBF778FF41EC100B00F0A4F8A6
:1045C00051EC100B9FED0E0B53EC102BFBF7FDFE87
:1045D0009FED0D0B53EC102BFBF750FEFBF777FF15
:1045E00000EE100AB7EE001A81EE000A9FED0B1ADA
:1045F00030EE010A84ED0E0A10BD00BF00BF00BFFF
:10460000000000000068AA40000000E0E1796B3F74
:104610003333534000F07F4500401C46339388C33A
:104620007CB50C001D461646014601D0601E00E018
:104630000020CDE90010064B6A462946304600F0BE
:10464000EFFB002C02D0009A002111707CBD00000D
:104650004F55000810B52DED028BF0EE408A18EE94
:10466000900AB0EE608A20F00040C0F1FF40C00F19
:1046700007D118EE100A20F00040C0F1FF40C00F33
:104680002BD018EE101A18EE900AFBF7DFFF00EEA1
:10469000100A10EE100A6FEAD05010F0FF0F04BF9E
:1046A000BDEC028B10BD18EE900A00F0004110EE38
:1046B000100A00F00040814204BFBDEC028B10BD27
:1046C00018EE101A10EE100ABDEC028B61F31E00FA
:1046D00000EE900A30EE600A10BD18EE900A4FF01E
:1046E0007F41B1EB400F1CBF18EE100A5FEA40009B
:1046F000C7D1012000F0C4FABDEC028BBDE8104028
:1047000000F0A6BA0000000070B5D94B00242DEDD2
:10471000020B2DED108BDDE91010984205DA20F028
:1047200000429A4201D809D141B19DED100BBDEC78
:10473000108B02B0BDE8704000F06EBAB0F5801F7B
:1047400026DA11430BD0002813DA012000F098FA82
:10475000BDEC108B02B0BDE8704000F069BA0220D9
:1047600000F08EFA00F040FA51EC100B81F000419D
:104770009EE06FF035049FEDC00B53EC102B9DEDC8
:10478000100B51EC100BFBF7E7FFCDE910010846C9
:1047900004EB2051C0F31304B948A1F2FF312044C7
:1047A00000F4801080F07F6282F04052224301EBDF
:1047B00020559FEDB50B119253EC102B9DED100B76
:1047C00051EC100BFBF7FBFD41EC180BA01CC0F3E8
:1047D00013009FEDAFDB9FEDB0EBB14E7E4403289D
:1047E0006CD296ED000B51EC180B53EC102BFCF730
:1047F0004FF81DD1002D01BF96ED000BBDEC108BC5
:1048000002B070BD2846FCF719F841EC180B53ECC8
:104810001D2BFBF7A1FF41EC190B53EC1E2B51ECA8
:10482000180BFBF799FF53EC192BFBF727FD3FE023
:104830009FED9D0B51EC180B53EC102BFBF78CFFED
:104840009FED9B1B53EC112BFBF7BCFD41EC190BAF
:1048500053EC182B51EC180BFBF77EFF53EC192B84
:10486000FBF77AFF41EC190B002D04BF53EC192B19
:1048700051EC180B1AD02846FBF7E0FF41EC1A0B5D
:1048800053EC1D2BFBF768FF53EC192BFBF79AFD3C
:1048900053EC182BFBF793FD41EC180B53EC1E2B3C
:1048A00051EC1A0BFBF758FF53EC182BFBF787FD65
:1048B000BDEC108B02B041EC100B70BD9FED7E0B78
:1048C00051EC180B53EC102BFBF7D8FC41EC100B00
:1048D00051EC180B53EC102BFBF777FD41EC190B47
:1048E0002846FBF7ABFF41EC1B0B53EC192B51ECAB
:1048F000190BFBF731FF41EC1A0B714853EC1A2BE3
:10490000261851EC1A0BFBF727FF41EC1F0B6D48E3
:10491000C4F1510404F5D724B0EE4F0AF0EE6F0A4B
:104920000321784400F0E2F853EC1F2B51EC100BFC
:10493000FBF712FF41EC1C0B6348B0EE4F0AF0EEA0
:104940006F0A0421784400F0D1F853EC1A2B51EC93
:10495000100BFBF701FF344353EC1C2BFBF78EFCD1
:1049600041EC1C0B002C4CDD9FED510B51EC180B56
:1049700053EC102BFBF7F0FE53EC182BFBF7ECFE7F
:1049800041EC1A0B55B353EC1D2B51EC1B0BFBF7F1
:10499000E3FE41EC1D0B53EC1C2B51EC1A0BFBF707
:1049A0006DFC53EC192BFBF7D7FE53EC1D2BFBF7DB
:1049B00065FC53EC1A2BFBF705FD53EC182BFBF7AA
:1049C000FEFC41EC180B53EC1E2B51EC1B0BFBF7C0
:1049D000C3FE53EC182BFBF7F2FC69E753EC1C2BDE
:1049E00051EC1A0BFBF74AFC53EC192BFBF7B4FE06
:1049F00053EC1A2BFBF7E6FC53EC182BFBF7E2FC0D
:104A000056E735B353EC1D2B51EC1B0BFBF7A4FE03
:104A100041EC1A0B53EC1C2B51EC180BFBF7CFFCA1
:104A200053EC192BFBF798FE53EC1A2BFBF7C7FC42
:104A300053EC182BFBF7C3FC41EC180B53EC1E2B6B
:104A400051EC1B0BFBF788FE53EC182BFBF7B7FC64
:104A50002EE753EC1C2B51EC180BFBF7B0FC53EC7E
:104A6000192BFBF779FE53EC182BFBF7ABFC1FE778
:104A70000000F07F00000000000000000000504334
:104A8000645F090000000000000000000000F03F2B
:104A9000763C7935EF39EA3D0000E0FE422EE63FF4
:104AA000C00D000000000000555555555555D53F27
:104AB000000000000000E03F000000000000004097
:104AC00086EBF9FF420C0000380C000008B59FEDA2
:104AD000060A0A4601468DED000A6846FBF77BFD93
:104AE0009DED000A08BD00000000000070B50446FE
:104AF0002DED028B4D1E00EBC500B0EE408AF0EEAE
:104B0000608A90ED000B35F0060017D053EC182B9F
:104B100051EC100BFBF720FE41EC100B6D1E04EB6B
:104B2000C50090ED001B51EC100B53EC112BFBF763
:104B3000A5FB41EC100B35F00600E7D1022D36D075
:104B4000042D1CD0062D1CBFBDEC028B70BD53EC98
:104B5000182B51EC100BFBF7FFFD94ED0A1B53ECE7
:104B6000112BFBF78BFB53EC182BFBF7F5FD94EDAA
:104B7000081B53EC112BFBF781FB41EC100B53ECA2
:104B8000182B51EC100BFBF7E7FD94ED061B53ECD3
:104B9000112BFBF773FB53EC182BFBF7DDFD94EDAA
:104BA000040B53EC102BFBF769FB41EC100B53EC9F
:104BB000182B51EC100BFBF7CFFD94ED021B53ECBF
:104BC000112BFBF75BFB53EC182BFBF7C5FD94EDAA
:104BD000001B53EC112BFBF751FBBDEC028B41EC9E
:104BE000100B70BD000000009FED070B10B553ECDB
:104BF000102B9FED070B51EC100BFBF7E6FB41EC84
:104C0000100B10BD000000000000000000000000BC
:104C1000000000000000F03F10B553EC102B51ECE9
:104C2000100BFBF72BFB41EC100B10BD000000003C
:104C30009FED050B10B553EC102B51EC100BFBF74F
:104C4000C4FB41EC100B10BD000000000000000090
:104C5000DFED020A80EEA00A7047000000000000AD
:104C600002E008C8121F08C1002AFAD17047704735
:104C7000002001E001C1121F002AFBD17047000093
:104C80000149086070470000000000202DE9FF5F27
:104C900082B00021DDE90430020DDDF840B00343AD
:104CA00018D044F61050A2F2FF3242431514119866
:104CB00001281FD0A5EB0B00401C5FEA000A4FF053
:104CC00000064E4FDFF83891B046504615D5CAF170
:104CD000000413E0119801244AA3012801D16FEACE
:104CE0000B010298119AC0E90031C0E9024206B0F6
:104CF000BDE8F09FCBF10000DFE704460021404A09
:104D0000491842EB0450CDE9001012E0E00707D04B
:104D100032463B4640464946FBF71EFD80468946E3
:104D200032463B4610461946FBF716FD06460F462F
:104D30006410002CEAD1DDE90401DDE90023BAF1B9
:104D4000000F06DAFBF708FD42464B46FBF704FD71
:104D500005E0FBF73AFB42464B46FBF736FB0446C1
:104D60000E460022284BFBF7ABFD03D84FF0FF3077
:104D7000014607E00022254B20463146FBF77EFA2C
:104D8000FBF76DFD102409E0002C0ADB0A2200234A
:104D9000FBF7CFFB039B30321A55641E50EA010229
:104DA000F2D1641C039AC4F111031444119A012A2C
:104DB00003D0012208430DD10AE0084304D00020AB
:104DC0004FF0110B119072E7A3EB0B056D1E0DE078
:104DD0005B4504DD4FF0000205F1010504E003DA54
:104DE0004FF00002A5F10105002AECD002981199BC
:104DF000C0E90231C0E9004579E700000000144035
:104E00000000F03F300000000000F0430000E03FF1
:104E100030380A2801D20120704700207047000076
:104E20002DE9FF4F95B09B468946064600250FE2C7
:104E3000252877D100242746F84A0121059400E06F
:104E4000044316F8013F203B01FA03F01042F7D16A
:104E500030782A2811D06FF02F033078A0F130027B
:104E6000092A16D8059A44F0020402EB820203EBE9
:104E700042021044761C0590EFE759F8042B059286
:104E8000002A03DA504244F40054059044F002042E
:104E9000761C30782E2816D116F8010F44F0040441
:104EA0002A280DD06FF02F023078A0F13003092BA3
:104EB00009D807EB870302EB4303C718761CF3E717
:104EC00059F8047B761C30786C280FD006DC4C280F
:104ED00017D068280DD06A2814D104E0742810D0A7
:104EE0007A280FD10DE044F400140AE044F4801451
:104EF00001E044F440147278824202D104F5801437
:104F0000761C761C307866280BD013DC582877D0B6
:104F100009DC002875D04528F6D04628F4D047286B
:104F20001AD19DE118E0632835D0642879D065282E
:104F300012D195E1702873D008DC6728F1D0692878
:104F40006FD06E280DD06F2806D1B5E073282CD015
:104F5000752875D0782874D05A46179990476D1CDB
:104F600075E1C4F30250022809D003280DD0D9F806
:104F7000001004280DD00D6009F1040967E1D9F88B
:104F80000010EA17C1E90052F6E7D9F800100D80C9
:104F9000F2E70D70F0E719F8041B8DF800100020FF
:104FA0008DF80100EA46012003E059F804AB4FF008
:104FB000FF3061074FF0000102D40DE008F101015C
:104FC0008846B9420FDA8045F8DB1AF80810002944
:104FD000F4D108E008F1010188468142FADB1AF8B1
:104FE00008100029F6D105985B46A0EB080721467A
:104FF0003846179A00F094FA284400EB080507E0B9
:105000004DE029E10DE01AF8010B5A461799904737
:10501000B8F10108F7D25B4621463846179A13E1EA
:1050200042E00A220092C4F302524FF0000A022A20
:1050300008D059F804CB032A4FEAEC710AD00DE0EE
:1050400029E02AE009F1070121F00702F2E802C194
:10505000914609E00FFA8CFC4FEAEC71042A03D167
:105060004FFA8CFC4FEAEC71002907DA0A4600215E
:10507000DCF1000C61EB02012D2202E0220504D5D7
:105080002B228DF80420012203E0E20701D0202228
:10509000F7E7904659E00A2102E010220DE01021C6
:1050A0004FF0000A00910BE010224FF0000A44F08C
:1050B00004040827009203E008224FF0000A00923F
:1050C000C4F30252022A05D059F804CB0021032A66
:1050D00008D009E009F1070121F00702F2E802C156
:1050E000914605E01FFA8CFC042A01D10CF0FF0C5C
:1050F0004FF00008220728D5702806D0009B83F0C7
:10510000100353EA0A0305D00EE040228DF8042074
:10511000012208E05CEA010206D030228DF804206A
:105120008DF8050002229046009B83F0080353EAA5
:105130000A030AD15CEA010201D1620705D53022D7
:105140008DF804204FF001087F1E582804D034A0A9
:1051500003900EA802900DE036A0F9E75346604692
:10516000009AFBF7E6F984460398825C0298401E99
:10517000029002705CEA0100F0D1029806A9081AB8
:1051800000F1200A600702D524F4803400E00127F2
:10519000574502DDA7EB0A0000E0002000EB0A0102
:1051A000009005984144401A0590E00306D45B4600
:1051B0002146179A059800F0B3F90544002706E048
:1051C00001A85A46C05D179990476D1C7F1C474542
:1051D000F6DBE0030CD55B462146179A059800F0F4
:1051E0009FF9054404E030205A46179990476D1CFA
:1051F0000099481E00900029F5DC08E00298029909
:105200005A460078491C0291179990476D1CBAF1D3
:105210000001AAF1010AF1DC65E1000009280100A2
:10522000303132333435363738396162636465661C
:1052300000000000303132333435363738394142DE
:10524000434445460000000000F058F90544761C30
:10525000307800287FF4ECAD19B02846BDE8F08F17
:10526000620700D4062709F1070222F0070CFCE8C8
:105270000223E14603F000485FEA080C02D00FF277
:10528000702C0DE05FEA045C02D50FF2682C07E099
:105290005FEAC47C02D00FF2602C01E0AFF2700C28
:1052A0004FF0FF3823F00043CDF850C065280CD0F4
:1052B00006DC452809D046281DD047283DD13DE0D1
:1052C000662818D067287ED138E00021112F01DB35
:1052D000112000E0781CCDE9000106A90EA8FFF717
:1052E000D5FCDDE90F010E9A03910021009207F130
:1052F000010A04914DE04FF000400097CDE9011004
:1053000006A90EA8FFF7C2FCDDE90F0203920E9B6F
:1053100011990022DDF80CA00093049211B9791CB8
:1053200000EB010AB7EB0A0004D4C0F1FF3007F12B
:10533000010A0490AAEB0700019044E0012F00DA73
:1053400001270021112F01DD112000E03846CDE9B1
:10535000000106A90EA8FFF799FCDDE90F010E9ADE
:105360000391002104910092BA4621070CD40399BD
:10537000514500DA8A46BAF1010F05DD009AAAF11B
:105380000101515C302908D0B84202DA10F1040F53
:1053900006DA0121CDE9011015E0AAF10101E9E7E2
:1053A000002805DC049901440491AAEB000102E005
:1053B000411C514500DD8A460499401A401C019069
:1053C0004FF000400290200704D40198504501DBC3
:1053D000CDF8048000208DF84F0002980DF14F07A2
:1053E000B0F1004F25D02B200E9002984FF002080C
:1053F00000280CDA404202902D200E9007E00A218E
:105400000298FBF780F83031029007F8011DB8F1DF
:105410000001A8F10108F2DC02980028EFD1791E02
:105420000E980870307800F0200040F0450007F832
:10543000020D12A8C01B00F107081498007800B1F3
:10544000012000EB0A01019801EBE071059841444D
:10545000401A401E0590E00306D45B462146179A89
:10546000059800F05DF805441498007818B15A4684
:10547000179990476D1CE00324D55B462146179A87
:10548000059800F04DF805441CE00498002807DB5F
:10549000DDE90301884203DD0098405C179901E0D3
:1054A000179930205A469047049805F10105401C91
:1054B00004900198401E019004D12E205A4617995D
:1054C00090476D1CBAF10001AAF1010ADDDC05E08C
:1054D00017F8010B5A46179990476D1CB8F1000157
:1054E000A8F10108F4DC5B462146179A0598ABE663
:1054F0002D0000002B000000200000002DE9F041ED
:10550000044600251E461746880404D405E03946A3
:105510002020B0476D1C641EF9D52846BDE8F081F7
:105520002DE9F041044600251E469046C80301D5EA
:10553000302700E02027880404D505E0414638469E
:10554000B0476D1C641EF9D52846BDE8F0814A6855
:10555000002A06D00A68531C0B6010704868401E71
:10556000486070470000000004FA97999999D93F64
:10557000AF788E1DC571CC3F9FC678D0099AC33FC6
:10558000935555555555E53F599322942449D23F9B
:10559000DE03CB966446C73F44523EDF12F1C23F62
:1055A0000000000000000000DDDDDDDDDCBBBBDD58
:1055B000DDDDDDDDDDDDDDDD9888888888888888B3
:1055C00077777777778888888555555666666666D3
:1055D00066666666666888888333333222222222B2
:1055E000222222222228888D0000000000000000D4
:1055F0000102030406070809000000000102030479
:105600000001020304050607080C1014182030409E
:105610005B4552524F525D20554E4445525F564FA6
:105620004C54414745005B4552524F525D20554E08
:105630004B4E4F574E5F4552524F52006056000836
:105640000000002028000000604C00088856000878
:105650002800002010170000704C00080000000017
:105660000000000010000000010000000024F40011
:10567000000000000000A0420000F04100002041B6
:085680000000A0400000000042
:04000005080001D915
:00000001FF
