:020000040800F2
:10000000A8180020ED01000861390008411D000812
:100010005D390008810D0008653C00080000000003
:100020000000000000000000000000006939000826
:10003000D10E000800000000653900086D39000885
:10004000070200080702000807020008070200086C
:10005000070200080702000807020008070200085C
:10006000070200080702000807020008850D0008C3
:10007000DD0D00080702000807020008070200085B
:10008000070200080000000007020008070200083D
:1000900007020008E10E0008070200080702000836
:1000A000070200080702000807020008070200080C
:1000B00007020008FD3A00080702000807020008CE
:1000C00007020008070200080702000807020008EC
:1000D000070200080702000807020008A93B000801
:1000E00007020008070200080702000807020008CC
:1000F0000702000807020008793B00080000000022
:1001000000000000070200080000000007020008CD
:1001100007020008000000000702000807020008AC
:10012000070200080702000807020008070200088B
:10013000070200080000000000000000070200089D
:10014000070200080702000800000000000000008D
:10015000000000000000000000000000000000009F
:10016000000000000000000000000000070200087E
:10017000070200080000000000000000000000006E
:10018000000000000702000800000000000000005E
:10019000000000000000000000000000000000005F
:1001A000000000000000000007020008070200082D
:1001B000070200080702000807020008000000000C
:1001C000000000000702000800000000000000001E
:1001D0000702000807020008DFF80CD000F05EFB01
:1001E00000480047114B0008A81800200648804727
:1001F00006480047FEE7FEE7FEE7FEE7FEE7FEE70C
:10020000FEE7FEE7FEE7FEE7E93A0008D90100084D
:1002100040EA01039B0703D009E008C9121F08C088
:10022000042AFAD203E011F8013B00F8013B521E08
:10023000F9D27047D2B201E000F8012B491EFBD27F
:1002400070470022F6E710B513460A4604461946E1
:10025000FFF7F0FF204610BD30B505462A460B4695
:1002600012F8010B13F8014B08B1A042F8D01CB1F1
:10027000002802D06D1CF1E7284630BD2DE9FE4F65
:10028000804681EA0300C00F0C46009021F0004137
:1002900023F00045B8EB0200A94105D240462146B3
:1002A00090461C460B46024623F00040104347D0C0
:1002B000270DC7F30A00C3F30A510290401A0190B8
:1002C00040286BDAC3F3130040F4801B0098924679
:1002D00020B10023D2EB030A63EB0B0B01985946C4
:1002E000C0F14002504600F066F906460D46504601
:1002F0005946019A00F06EF910EB080061410024A4
:1003000087EA115284EAE7731A4340D0009A62B335
:10031000019A012A4FEA075215DC001B61EB02012A
:100320004FF0004202EA0752CDE90042001C41F5BD
:10033000801132462B4600F0A9F903B0BDE8F08FDA
:1003400040462146F9E7001B61EB0201001C41F524
:10035000801300185B412018A2F5001747EB03013A
:1003600040EAD570B6196D4111E06D084FEA3606C6
:1003700045EAC0754FEA0752001B61EB0201001C01
:1003800041F5801149084FEA3000001951413246C9
:100390002B4603B0BDE8F04F00F069B90098012288
:1003A00040000023D0EB020263EBE073009821468B
:1003B0004FEAE074B8EB000061EB0401E9E783F079
:1003C00000435BE781F0004158E72DE9F04D81EAF9
:1003D000030404F0004B21F0004514464FF0000ADE
:1003E00023F0004150EA050220D054EA01021DD05A
:1003F000C5F30A570246C5F31303C1F31300C1F353
:100400000A5640F4801543F48013A7EB0608101B2E
:10041000D64608F2FD3873EB050002D308F1010857
:1004200001E092185B41B8F1000F03DA00200146A9
:10043000BDE8F08D00204FF48011064684460EE0A2
:10044000171B73EB050705D3121B63EB050306436C
:100450004CEA010C49084FEA300092185B4150EA1F
:100460000107EDD152EA030012D082EA040083EAC8
:100470000501084305D0101BAB4106D20122002321
:1004800006E000224FF0004302E06FF0010253103B
:100490001AEB06004CEB085110EB0A0041EB0B0184
:1004A000BDE8F04D00F0E3B80EB5C10F80EAE07092
:1004B0000844CA07002140F233438DE80E000A4683
:1004C0000B4600F0E3F803B000BD00F0004230F04E
:1004D00000400AD0C10D01F56071C0F3160042EA78
:1004E0000151C20840071143704700200146704780
:1004F00001F0004330B421F0004150EA010206D07F
:100500000A0DA2F56072C1F31301002A02DC30BCAF
:1005100000207047440F44EAC104C100E01830BC19
:1005200000EBC25000F06CB830B50B46014600201D
:100530002022012409E021FA02F59D4205D303FAA5
:1005400002F5491B04FA02F52844151EA2F1010226
:10055000F1DC30BD2DE9F05F0546002092469B4658
:1005600088460646814640241BE0284641464746C9
:10057000224600F0ABF953465A46C01A914110D3B7
:1005800011461846224600F016F82D1A67EB0108AE
:100590004F4622460120002100F00DF817EB00091C
:1005A0004E41201EA4F10104DFDC484631462A46B4
:1005B0004346BDE8F09F202A04DB203A00FA02F10E
:1005C000002070479140C2F1200320FA03F3194341
:1005D00090407047202A06DBCB17203A41FA02F000
:1005E00043EAE07306E041FA02F3D040C2F1200290
:1005F00091400843194670470023036000F095B905
:100600000029A8BF7047401C490008BF20F0010026
:10061000704710B4B0FA80FC00FA0CF050EA010404
:1006200004BF10BC704749B1CCF1200421FA04F496
:1006300011FA0CF118BF012121430843A3EB0C016F
:10064000CB1D4FEA00614FEA102042BF002010BCD2
:10065000704700EBC35010440029A4BF10BC704782
:10066000401C490008BF20F0010010BC704710B5C5
:10067000141E73F1000408DA401C41F100019218C5
:100680005B411A4301D120F0010010BD2DE9F04D6E
:1006900092469B4611B1B1FA81F202E0B0FA80F2C3
:1006A00020329046FFF787FF04460F4640EA0A00D3
:1006B00041EA0B0153465A46084313D0114653EA08
:1006C000010019D0C8F14002504600F0FFF805467D
:1006D0000E46504659464246FFF76DFF084305D087
:1006E000012004E020463946BDE8F08D0020054396
:1006F00046EAE0762C4337430A986305E40AA0EB08
:1007000008000022FD0A44EA47540A3002D50020BE
:100710000146E9E7010510196941DDE908450019BD
:100720006941BDE8F04DA2E72DE9FE4F81EA0304DF
:1007300004F0004421F0004100944FF0000B23F03E
:10074000004350EA01045ED052EA03045BD0C3F3D5
:100750000A54C1F30A552C44A4F2F3340194A0FBCB
:100760000254C1F3130141F48011C3F3130343F4A2
:10077000801301FB024400FB034E840A970A44EAFB
:10078000815447EA8357A4FB076802958D0A05FB4D
:1007900007854FEA932C04FB0C542705029D4FEA72
:1007A000065847EA1637B5EB08056EEB070C870EBF
:1007B000920E47EA811742EA8312A7FB0201B6EBC9
:1007C0000B0164EB00042B0D43EA0C335E1844EB81
:1007D0001C50DA465146E7FB0201C5F313044FEA09
:1007E0000B3343EA14534FEA0432019C43EA0603F5
:1007F000A4F10C040294009CCDE900B4FFF746FF7D
:1008000003B0BDE8F08F00200146F9E7C1F30A52BA
:10081000C1F3130140F2FF3341F480119A4202DA2E
:1008200000200146704740F233439A42A2F233421D
:1008300002DC524200F04AB8FFF7BDBE30B5041EDC
:1008400071F1000404DB4FF00044404264EB01010D
:10085000141E73F1000405DB1C464FF000435242A6
:1008600063EB04038B4208BF824230BD30B5041EE7
:1008700071F1000404DB4FF00044404264EB0101DD
:10088000141E73F1000405DB1C464FF00043524276
:1008900063EB0403994208BF904230BD1CB5094880
:1008A0000090094801900546009C06E0E06840F091
:1008B000010394E8070098471034AC42F6D3FFF7E1
:1008C0008FFC0000E46D0008046E0008202A04DBA1
:1008D000203A21FA02F00021704721FA02F3D040B9
:1008E000C2F1200291400843194670470FB40B0033
:1008F00010B58AB00FA900910E994FF00004234A59
:10090000CC60214CCDE9064200D004236FF00042B8
:10091000CDE901321E4A089202466B46002000F0E3
:10092000D3F80AB010BC5DF814FBF0B585B00746EB
:100930004FF0FF300091CDE901011E460020154621
:100940000C4604903B466A46314604A8FFF7CEFFAA
:1009500004990346601825B109B1024600E0224619
:100960002A6000290ED0002B02DD0099814209D0B7
:100970000094001BCDE901043B466A46314604A8B9
:10098000FFF7B4FF05B0F0BD010D00081F0D000812
:1009900095090008C0B24FF4F05100F0D1B9000041
:1009A0002DE9FF4F087883B09946FF2805D0491CF0
:1009B0002D2804D00024002008E000200BE00124B2
:1009C000F9E700EB800003EB4000491C0B78FF2B9C
:1009D000F7D104B1404200230293147819461D4612
:1009E0002D2C01D02B2C04D1521C2D2C13D00024E3
:1009F0000294AA461478FF2C0FD00A25A3FB057891
:100A000001FB05814FF0000C03FB0C11521CE31994
:100A10004AEB0101EEE70124EAE7814453EA0100D1
:100A200002D019F5C87F06DA03980021C0E9001149
:100A300007B0BDE8F08F0025AE4E2F46DFF8B88234
:100A4000184600F091F9CDE90001B9F1000002DA91
:100A5000C9F1000400E004460023A74A1AEB030B87
:100A600042EB045A12E0E00707D02A4633463846E4
:100A70004146FFF759FE074688462A463346104648
:100A80001946FFF751FE05460E466410002CEAD1C8
:100A9000DDE90001B9F1000F5A46534606DAFFF7C7
:100AA00094FC3A464346FFF790FC05E0FFF73CFE16
:100AB0003A464346FFF738FE029A0AB181F00041F8
:100AC000039AC2E90001B3E72DE9FF4F1F468DB03D
:100AD000D7E901464FF0FF382E2045464FF0000978
:100AE0000B90B9696D1C0E988847396A8246884711
:100AF0000028F6D1BAF1FF3F0AD024F4D064002ECA
:100B000011DDBAF12B0F08D0BAF12D0F0BD102E095
:100B1000404611B08DE744F48064B9696D1C0E98AD
:100B200088478246761E6946600501D52D2000E083
:100B30002B208DF8000001F1010B0DF1200809E0D8
:100B4000B9696D1C0E98884782460F9844F400746A
:100B5000761E0560002E02DDBAF1300FF0D00B9941
:100B60008A453ED144F0800406E00F99681CA9F143
:100B7000010944F400740860B9696D1C761E0E9872
:100B8000884782463028F0D02BE00B998A4505D162
:100B9000200603D444F08004761E18E0504605F089
:100BA000DDF808B30DF11302761EAAF1300044F40B
:100BB0000074934506D20BF8010B200607D5A9F166
:100BC000010003E0200602D409F101008146A005DE
:100BD00002D50F99681C0860B9696D1C0E9888478A
:100BE0008246002ED1DC53E0002E51DDBAF1650FB4
:100BF00002D0BAF1450F4BD1A00549D5B9696D1C9A
:100C000024F44074761E0E9888478246002E0CDD30
:100C10002B2804D0BAF12D0F07D144F48074B969A0
:100C20006D1C0E9888478246761EE00501D52D2161
:100C300000E02B2108F8011BCDF82C8021E00DF1FC
:100C40002901761E44F4007488450CD2AAF13000C4
:100C500010F0FF0088F8000002D10B99884509D9EF
:100C600008F1010806E0E00501D5244801E042F260
:100C70000F708146B9696D1C0E98884782460F989F
:100C80000560002E04DD504605F068F80028D6D136
:100C9000F9690E988847FF208BF8000088F800005B
:100CA0000020069007904B466A4608A906A8FFF761
:100CB00077FEA00502D46FF001002AE714F0240F9C
:100CC0000AD0E00714D1DDE906123868031D3B6045
:100CD0000068C0E900120BE0DDE90601FFF708FC3F
:100CE0000146E00704D13868021D3A6000680160DF
:100CF00028460EE7000014400000F03FF1D8FFFF47
:100D0000426842B1016811F8013B23B1521EC0E9AB
:100D10000012184670470121C160881E7047426862
:100D20005AB1C368016843B983688B4205D0491E34
:100D3000521CC0E90012002070474FF0FF3070478E
:100D40007F2801D9002208E0064A02EB5002C007C2
:100D5000127800D1120902F00F02012090400840E1
:100D600070470000106500080EB540F23342029251
:100D70000022CDE900221346FFF788FC03B000BD36
:100D8000FEE700000020C4F202000168490740F2BB
:100D90000C11C2F200010CD5B1F86620D1F85E301A
:100DA000CA82D1F86220C1F80E30C1F812200422A4
:100DB0004260026892070BD5B1F85CC0D1E91532E8
:100DC000A1F816C0C1F81220C1F80E30022141600E
:100DD0000168090744BF08214160704770B50024CD
:100DE000C4F20204206840F20C1540F204064006EA
:100DF000C2F20005C2F200062FD5E88DD5F82A1000
:100E00004022A881A960626032887388891A6A8941
:100E10002986D21AB38809B2C01A6A8612B203B2FE
:100E200000EE101A9FED291A02EE102A03EE103A76
:100E3000B8EEC00AB8EEC22AB8EEC33A20EE010AF4
:100E400022EE012A23EE011AA88685ED060A85ED19
:100E5000072A85ED081A03F03FFC206880062ED58E
:100E6000288D696A2022A881A9606260328873880F
:100E7000891A6A89B688D21A801B298609B213B2E8
:100E80006A8602B200EE101A9FED101A02EE103AB6
:100E900003EE102AB8EEC00AB8EEC22AB8EEC33A82
:100EA00020EE010A22EE012A23EE011AA88685ED22
:100EB000060A85ED072A85ED081A03F00DFC206867
:100EC000000644BF8020606070BD00BF000B303B57
:100ED00070470000EFF3108072B600BFFEE700001D
:100EE00041F25830C2F2000000F0A6BA2DE9F04FEE
:100EF00081B040F23805C2F20005A87869788842CE
:100F000002D101B0BDE8F08F40F2D85840F2D83B92
:100F1000C2F200084FF06C09C2F2000B4FF0000A59
:100F200009E000BFA878013000F01F00A870A87881
:100F300069788842E5D0A87810FB098797F868009F
:100F40000028EFD007F12806002409E0E968013104
:100F5000E960A5F804A000BF0134C1B28C42E1D21F
:100F6000315D002918BF0D29F6D00A2912D1A988B0
:100F70000029F1D0B1F5FF7F84BF40F2FF11A980B5
:100F80000BF801A0C9B2584603F032FF97F8680089
:100F9000DFE700BFAA88B2F5FF7FD7D8531CAB802C
:100FA0000BF80210D8E7000080B582B044F64D106F
:100FB000C3F65420009040F2D000C2F2000090ED41
:100FC000020A90ED031A9FED1E2A90ED053A21EEDC
:100FD000021A20EE020ABDEEC11ABDEEC00A11EEE1
:100FE000100A10EE101A23EE020ABDEEC00A8DF8A8
:100FF0000400000A10EE102A8DF80500080A8DF88A
:101000000700100A8DF8090040F23800C2F2000013
:101010008DF8061000F1100141F258308DF80820CB
:10102000C2F200006A4600F0C9F838B146F6BD5079
:10103000C0F6000003F0A4F8FFF74CFF02B080BD3B
:1010400000401C4680B500F0BBFD02F091FC02F0B0
:1010500085F802F075FB01F0B5FC01F013FE02F01B
:1010600005F801F08DFF02F05DFA02F013FA02F0CC
:10107000E7FF01F075FF02F061F802F019F9BDE831
:10108000804002F089B90000B0B5044600F084FD4C
:10109000054640F20C00C2F200004068611C18BF17
:1010A000044400BF00F078FD401BA042FAD3B0BD5D
:1010B00010B590F85C30013B012B69D800685FEAFD
:1010C000417ED0F858C00CF0010300D01BB311F0E2
:1010D000380F02D01CF002041DD011F4E07F02D0C2
:1010E0001CF0040417D011F4F05F02D01CF00804C7
:1010F00011D011F4604F02D01CF010040BD011F489
:10110000403F02D01CF0200405D011F47C0F06D023
:101110001CF0400403D1C46D44F00104C465BEF169
:10112000000F18BF002B3BD111F0380F18BF1CF077
:10113000020335D111F4E07F18BF1CF004032FD156
:1011400011F4F05F18BF1CF0080329D111F4604FAF
:1011500018BF1CF0100323D111F4403F18BF1CF03E
:1011600020031DD111F47C0F18BF1CF0400317D1D0
:101170000B061BD4CB0504D5D0F8E0301A43C0F8D9
:10118000E02000F15402002013681943116010BDE3
:1011900000F160020120022113681943116010BDA3
:1011A000C36D43F00203C3650B06E3D5D0F8DC3012
:1011B0001343C0F8DC30CB05DED4E2E790F85C30B6
:1011C000022B17D12DE9F041D0F800E0DEF8C43051
:1011D0009B0215D4DEF8C430D1E900748E680D6925
:1011E000C3F3014CA4B145EA0703334343F08048FD
:1011F00012E000BF016E41F0080101660120704756
:10120000016E41F4007101660120BDE8F08100BF6C
:1012100045EA874343EA060801F11407F0CF46EA9E
:1012200007663543CB682C43456D0CEBCC0644EA8E
:10123000034305EBC60445F836806360CB6883B191
:1012400046F2685504F1080303320024C0F6000595
:10125000161956F8036C1E51CE680434AE5DB442C4
:10126000F6D3012101FA0CF1CEF8CC1081650020F3
:10127000BDE8F08190F85C20013A012A14D880B5CD
:101280000A68BAB101F1040E9EE80450D1E90431B4
:10129000406C43EA4E7E41EA8C7100EBC20340F899
:1012A00032E05960002080BD016E41F0020101660C
:1012B00001207047D1E90323D1E901CED206496963
:1012C00042EA8E7242EA0342006C114340F82C104D
:1012D000002080BD70470000704700002DE9F043FA
:1012E00090F85C70022F0FD104684029A44613D1F6
:1012F0005CF8907F3F071BD0DCF800704FF0480E81
:10130000FF0113D509251CE0016E41F008010166BB
:101310000120BDE8F08300BF5CF8987F3F0707D04D
:10132000DCF800704FF04C0EFF0109D400240DE0F2
:10133000016E41F4807101660120BDE8F08300BFB9
:101340000825D4F88040EC4004F00104DCF800707B
:10135000C7F3012707EB040C50F80E700CEBCC061A
:1013600057F8365007EBC60E15F08045556057F814
:10137000365025F0604408BFC5F38A44146057F81E
:10138000365005F00055956057F8364004F000449B
:101390001461BEF80440D461BEF8064014F00F0496
:1013A000D460DEF8044004F480145461DEF8044094
:1013B00004F4001494619EF8074004F07F04146262
:1013C000DEF804404FEAD474546228D046F26858DC
:1013D0000024C0F6000800BF0EEB0406377A651C37
:1013E0001F55D76818F80770BD4218D2757A1F19B3
:1013F0007D70D56818F80590A51C4D450FD2B57ABB
:10140000BD70D56818F80590E51C4D4507D2F57AF2
:101410000434FD70D56818F80550AC42DCD3006880
:1014200040290CBFC0F894C0C0F89CC00020BDE8A3
:10143000F0830000704700002DE9F04F85B00446AE
:101440000068016D426DD0F850B0456D076D466D76
:10145000036D01EA02080493436D0393036D029345
:10146000436D0193D0F854A0D0F850905FEA4963DF
:1014700007D51AF0400104D0402101652046FFF74E
:10148000D9FF0BEA050B5FEAC95008F4E0550ED509
:101490001AF480700BD02068D0F8D810D0F8E02073
:1014A00011404FF480720265204600F093FA3740F5
:1014B0000BF007062DB1206829460565204600F08F
:1014C0008DFA07F038052EB12068314606652046B2
:1014D00000F0E0F92DB1206829460565204600F0AE
:1014E0005DFA5FEA895009D51AF4007006D02068C9
:1014F0004FF400710165204600F072FA5FEA09605E
:101500000DD51AF080000AD02068D0F8D410D0F899
:10151000DC20114080220265204600F05DFA5FEA7F
:10152000894009D51AF4005006D020684FF40051C4
:101530000165204600F04CFA5FEA0940DDE9011040
:1015400000EA010509D51AF4004006D020684FF4DE
:1015500000410165204600F039FADDE9031008403A
:101560005FEA494105F460210AD51AF4804207D0A8
:1015700022684FF480431365226E42F08002226697
:1015800000F4710521B1206801652046FFF7A4FE33
:1015900025B120680565206E28432066206E28B19D
:1015A000204605B0BDE8F04FFFF794BE05B0BDE89A
:1015B000F08F0000002804BF01207047F0B581B013
:1015C000044690F85C0028B9002084F85D002046AD
:1015D00000F018F92068816921F01001816100F0A4
:1015E000DBFA054620688169090705D500F0D4FAC1
:1015F000401B0B28F6D310E0816941F001018161A5
:1016000000F0CAFA054600BF21688869C0070FD1FB
:1016100000F0C2FA401B0B28F6D3206E032140F0E5
:1016200001002066012084F85C1001B0F0BD00BF0D
:101630004AF200408A69C4F20000A0F5804342F0FB
:10164000020299428A6105D162684CF20013CFF61A
:10165000FF73C250227C8B69012A23F0400318BF1C
:1016600040338B61627C8B69012A23F4804308BF7D
:1016700003F580438B61A27C8B69012A23F480539C
:1016800018BF03F580538B618D69D4E902E325F41B
:10169000407545EA0E058D618D6925F0A4058D61C3
:1016A0000D6925F010050D61A3B1012B0ED0022BA1
:1016B00009D08D69032B45F080058D610D6945F0DA
:1016C00010050D6106D1202301E000BF04238D69C0
:1016D0002B438B61D4E90535D4E907266FF0FF0C65
:1016E000013D0CEB0222002742EA4562751ECFF64F
:1016F000FF772A4307EB03431A43BEF5407FCA61D5
:1017000010D104F124064CCE256B013B0CEB0626D0
:1017100033436FF00F0606EB0516334307EB024227
:101720001A43CA6004F134078CCFD1F8C060374344
:10173000C1F8C0702064D1F880704AF2704627F476
:10174000F817C4F2000647EA0242C1F88020666436
:10175000D1F8802022F0706242EA0362C1F8802052
:1017600006F14001A16406F58C71E16406F5F8719B
:10177000216506F502716165002106F5037200BF5F
:10178000C0E90011C0E90211C0E90411C0E9061165
:10179000C0E90811C0E90A11C0E90C11C0E90E1135
:1017A000C0E91011C0E91211C0E91411C0E9161105
:1017B000C0E91811C0E91A11C0E91C11C0E91E11D5
:1017C000C0E92011C0E92211C0E92411C0E92611A5
:1017D000C0E92811C0E92A11C0E92C11C0E92E1175
:1017E000C0E93011C0E93211C0F8D010904200F1C8
:1017F000D400C5D300200121A065206684F85C10C8
:1018000001B0F0BD80B586B0006846F20042C4F277
:10181000000200219042CDE90411CDE902110191AD
:1018200002D006B080BD00BF41F24C00C4F20200FD
:10183000C26B022363F31962C263C26842F0007292
:10184000C260C26802F000720092009A026842F020
:1018500002020260006800F00200009000984FF45D
:101860004070CDE901030920059040F20040CDE928
:101870000311C4F6000001A900F0B4F84EF21540BF
:10188000CEF2000030210170152000F0EBF906B017
:1018900080BD0000C90700F08080016846F2004268
:1018A000C4F20002914218BF70472DE9F0479AB088
:1018B00010AA6B464021FFF711FD002840F06A8016
:1018C000139801380E2817D8DFE800F0081E141A04
:1018D0000E20241C2812260C10220A0001221EE0D1
:1018E00040221CE018221AE0052218E0202216E00F
:1018F000102214E0032212E000224FF0010C10E04D
:1019000004220CE008220AE0022208E0062206E097
:10191000302204E0072202E0142200E00C224FF003
:10192000000C40F23804C2F200046378A078591C1D
:1019300001F01F05854203D1A0680130A06029E0B5
:1019400040F2D85EC2F2000E6C200DF1400A13FB8B
:1019500000E158439AE80806199EDDF84C804EF8DD
:101960000030DDE914E3169F4E62DDE91706BCF195
:10197000000FC1E9019AC1E9038EC1E90537C1E948
:10198000070681F8682004D101F128006946FEF7B6
:101990003FFC65701AB0BDE8F04770477047000023
:1019A00090F85C1001290BD1022180F85C100168CD
:1019B0008A6922F001028A610021016600207047D5
:1019C000016E41F00401016601207047704700007C
:1019D000704700007047000070470000704700002B
:1019E000704700002DE9F04F83B00E68002E00F024
:1019F000CF8000F1200241F2004C009200F1384704
:101A0000C4F6000C06224FEAB725604508BF052240
:101A1000052D38BF4FEAB722002500274FF00008F8
:101A200001920AE00E6808F1010836FA08F207F19F
:101A3000020705F1040500F0AB80012202FA08FE5E
:101A400016EA0E09EED0D1F804C003220CF0030B05
:101A5000ABF1010602FA07F4012E6FEA040A11D86D
:101A60008468CE6804EA0A04BE4034438460446853
:101A700024EA0E06CCF3001404FA08F42643466068
:101A800006E000BFBBF1030F02D14FF0030B21E0D2
:101A9000C6688C6806EA0A06BC402643BBF1020F02
:101AA000C66017D16FF00302009B02EA580605F0EA
:101AB0001C020F2453F806C004FA02FE0C692CEA3B
:101AC0000E0C04FA02F242EA0C029A51D1F804C058
:101AD0000CF0030B02680BFA07F302EA0A021A433E
:101AE0001CF4403F02609DD041F26003C4F2020347
:101AF0001A6840F2004E42F001021A601A68C4F2FD
:101B0000010E02F001020292029A28F003024FF63F
:101B1000084C7244CFF6FF7C52F80C3005F00C06EE
:101B20000F24B440A343019C04FA06F6334342F861
:101B30000C30DEF808204B6842EA090640F20C4CF3
:101B4000DC0258BF22EA0906CEF80860C4F2010C94
:101B5000DCF800209C0242EA090658BF22EA090686
:101B6000CCF80060DEF804209C0342EA090658BF66
:101B700022EA0906CEF80460DEF80020DB0342EA20
:101B8000090658BF22EA0906CEF800604AE700BFFE
:101B900003B0BDE8F08F000041F2A040C2F20000A7
:101BA0000068704740F20C0041F2A041C2F2000010
:101BB000C2F2000140680A681044086070470000E3
:101BC00080B5032000F08CF80F2000F009F8002801
:101BD0001CBF012080BD00F02BF8002080BD00005C
:101BE000B0B540F20C05C2F200056968F1B10446D7
:101BF00040F21400C2F200004FF47A720068B2FBA7
:101C0000F1F1B0FBF1F000F085F801460F2C4FF038
:101C100001000AD8002918BFB0BD4FF0FF3021469F
:101C2000002200F031F800202C60B0BD0120B0BDD2
:101C300082B041F25800C4F20200816841F0010113
:101C40008160816801F0010101910199016841F011
:101C500080510160006800F080500090009802B050
:101C600000F04EB8002848BF704700F01F01012265
:101C700002FA01F11C2202EAD0004EF20012CEF26A
:101C8000000281507047000010B54EF60C5CCEF299
:101C9000000CDCF80030C3F3022E8EF00704042C95
:101CA00028BF0424BEF103034FF0FF3E0EFA04F4F4
:101CB00038BF0023A14399400EFA03F39A4311431E
:101CC00000F00F0200F160430901043A03F5644398
:101CD0006244002848BF02F10C03197010BD0000D7
:101CE0004EF60C51CEF200010A684FF6FF031A407F
:101CF00060F30A2242F0806040F0FD700860704797
:101D000047F20800C4F20000016841F4804101601C
:101D100070470000411E0020B0EB116F1CBF012076
:101D200070474EF21002CEF2000251604EF623517F
:101D3000CEF20001F0230B70072190601160704714
:101D4000FEE700000822C5F200021368D2F8002165
:101D50001A43D2071CBF0120704780B5D1E900C3E8
:101D6000826843F2E00ECFF6C07E0EEA020E5BB14F
:101D7000D1E90212114341EA0E0141EA0C01194373
:101D80008160002080BD00BF4EEA0C018160002010
:101D900080BD00008268D2071CBF0120704780B55B
:101DA000D1F804C0C368BCF1000F23F0047E05D055
:101DB000D1E902231A4342EA0E0302E0CA684EEA5E
:101DC0000203C360C26C40F2FF1309689A431143D7
:101DD00041EA0C01C164002080BD00008268D20786
:101DE0001CBF01207047C2684CF2180322EA030CA2
:101DF000D1E90032896843EA0C031A431143C160F8
:101E0000002070478268D2071CBF01207047B0B520
:101E1000D1E900C2C3684CF21C0ECFF6F07E0EEA88
:101E2000030E3AB101F1080538CD496923432B432C
:101E300004E000BFD1E9033449692343194341EA6F
:101E40000C0141EA0E01C160016B21F00F01114349
:101E500001630020B0BD000070B5036801F01004FC
:101E6000E340DB071CBF012070BDD2F808E0D0F8CA
:101E700000C0BEF1000F21D0BEF1C00F24D1C0239D
:101E8000A34043EA0C030360D0F860C040F60F7330
:101E9000A3402CEA030CD2E900E36FF0C00606EA87
:101EA000831343EA9E03D568A340C1F3C01143EAFC
:101EB0000C0300EB810103668D6512E0FC21A1405B
:101EC00013682CEA010109E01368D56840F6FC713B
:101ED000A1402B432CEA010143EA0E03A34019431E
:101EE0000160C16B0723A3409943D2E9043692698C
:101EF00033431A43A2401143C163002070BD000068
:101F00002DE9F041D2E9028402F11007E0CF44EA62
:101F100008042C4319A5D36934436D5C3C43D2E9D2
:101F200000CE2343946A2E5847F6F0772343BE43EE
:101F30002C1833432B50C4F80CE0C4F808C0136AC3
:101F400067684FF6FF76B7433B4363606FF0070364
:101F500003EAD01080F4000080F48060890040F62D
:101F6000000301EB8001C4F20203526AC85820F05A
:101F7000FF0002430020CA50BDE8F081081C304435
:101F8000586C00002DE9F04F0C6894FAA4F2B2FAF4
:101F900082F234FA02F361D04FF001084FF0030BE4
:101FA0000BE000BFD1E900470568B7402B403B4339
:101FB0000360013234FA02F350D008FA02F314EA53
:101FC000030CF6D0D1F80490A9F10103022B9CFA7E
:101FD000ACF319D2B3FA83F77E00D0F808A00BFA5D
:101FE00006F3D1E902BE2AEA030A0BFA06F545EA2E
:101FF0000A05856045684FF0030BA5430EFB04F40A
:10200000DB432543456005E0B3FA83F77E000BFA16
:1020100006F3DB430D69C468B5401C402543B9F1A4
:10202000020FC560BED14FEA1C2494FAA4F4D1F883
:1020300014E0BCF5807F28BFB4FA84F74FF0240485
:1020400038BF202450F804C0BF000F25BD402CEA43
:1020500005050EFA07F72F430751A3E70020BDE857
:10206000F08F0000C0281FD141F20C01C4F2020120
:10207000C86FC0F38110032822D0022816D001288F
:1020800026D151F8040C00F00C0242F200400C2A58
:10209000C0F2F4002ED0082A18BF704741F6003075
:1020A000C0F2B700704700BF0020704751F80C0C19
:1020B00042F200414005C0F2F40101EAE0707047CD
:1020C000D1F884004FF4004101EA8030704700BF2E
:1020D00051F8040C00F00C0242F200400C2AC0F24D
:1020E000F40023D0082A3CD141F60030C0F2B700FA
:1020F00037E000BF0A6802F00302032A04BF41F67A
:102100000030C0F2B7000A680B68C2F306225043E1
:10211000C3F3031209680132B0FBF2F0C1F341616D
:10212000022202EB4101B0FBF1F070470A6802F0B5
:102130000302032A04BF41F60030C0F2B7000A6868
:102140000B68C2F306225043C3F303120B6801323B
:10215000B0FBF2F0C3F34162022303EB4202B0FB97
:10216000F2F051F8042C46F25053C2F30312C0F6B9
:1021700000039A5C51F8041C46F26053C1F302213B
:10218000C0F60003595C02F01F02D04001F01F01AD
:10219000C8407047302859D00C282DD003281CBFC8
:1021A0000020704741F20C01C4F20201C86F4FF4E5
:1021B000404262F39F00B0F1031F50D00222C0F2F0
:1021C0000302904238D00122C0F20302904220D094
:1021D00051F8040C00F00C0242F200400C2AC0F24C
:1021E000F40000F09D80082A40F0B58041F60030F0
:1021F000C0F2B700AFE000BF41F20C01C4F202012F
:10220000C86FC0F38100032829D0022814D0012808
:102210002CD151F8040C00F00C0242F200400C2AC0
:10222000C0F2F40034D0082A18BF704741F60030DD
:10223000C0F2B700704700BF51F80C0C42F20041E9
:102240004005C0F2F40101EAE070704741F20C0170
:10225000C4F20201C86FC0F301100328D5D1D1F830
:1022600084004FF4004101EA8030704751F8040CBB
:1022700000F00C0242F200400C2AC0F2F40023D01D
:10228000082A3CD141F60030C0F2B70037E000BF69
:102290000A6802F00302032A04BF41F60030C0F2CC
:1022A000B7000A680B68C2F306225043C3F3031257
:1022B00009680132B0FBF2F0C1F34161022202EB86
:1022C0004101B0FBF1F070470A6802F00302032AF3
:1022D00004BF41F60030C0F2B7000A680B68C2F3D1
:1022E00006225043C3F303120B680132B0FBF2F035
:1022F000C3F34162022303EB4202B0FBF2F051F858
:10230000042C46F25053C2F30312C0F600039A5C49
:1023100051F8041C02F01F02C1F302212AE000BFA1
:102320000A6802F00302032A04BF41F60030C0F23B
:10233000B7000A680B68C2F306225043C3F30312C6
:102340000B680132B0FBF2F0C3F34162022303EBEE
:102350004202B0FBF2F051F8042C46F25053C2F3A3
:102360000312C0F600039A5C51F8041C02F01F022D
:10237000C1F3C22146F26053C0F60003595CD0405D
:1023800001F01F01C84070470246006840063BD478
:102390002DE9F04710684FF6BF73D1E9009E20EA9F
:1023A000030CD1E9024A4CEA0905D1E9046701F1BD
:1023B000180845EA0E0598E8090145EA0A052E4382
:1023C00030431843384340EA08001060506840F634
:1023D0000473984340EA174000232043B3EBD42F03
:1023E000506003D1506840F480505060B8F5005FF1
:1023F000BDE8F04704BF888C10610020D16921F44A
:102400000061D161704700BF0120D16921F40061F2
:10241000D161704740F21401C2F2000108607047B8
:1024200040F2FF7C02460068C4F2000C624523DDE6
:1024300040F60003C4F200039A4226D043F2004360
:10244000C4F201039A4220D042F60043C4F20103D1
:102450009A421AD043F2FF33C4F201039A421EDCBF
:1024600062452FDCB2F1804F46D040F20043C4F207
:1024700000039A4240D043E0B2F1804F05D040F2D1
:102480000043C4F200039A42E4D14B6820F070008C
:10249000184343F2FF33C4F201039A42E0DD44F2F1
:1024A000FF33C4F201039A421ADC43F20043C4F240
:1024B00001039A4220D044F20003C4F201039A427D
:1024C0001AD01DE040F60003C4F200039A4213D074
:1024D00042F60043C4F201039A420DD010E000BF5F
:1024E00044F60003C4F201039A4205D044F20043CB
:1024F000C4F201039A4203D1CB6820F44070184320
:1025000010608868D062A2F18040A0F596300B88F8
:102510004FEAB0200728936207D8012303FA00F09E
:1025200010F0E50F1CBF08691063506940F001010D
:1025300000205161704700002DE9F041B1F5805F46
:102540004FF0010350DA012900F08E80102900F0CD
:102550001781B1F5807F40F09681016A40F2FF1645
:1025600021F480710162036A4168D0F81CC01469CB
:1025700023F440732402B4432343A0F18044D2E9FE
:1025800000E5A4F596344FEAB424072C43EA05236A
:102590001CD8012505FA04F414F0E50F16D002F159
:1025A000140898E8600140F2FF77AD0223F440631D
:1025B0009468BD432B4343EA8423340142F20F0560
:1025C00021F44051AC43214341EA48114FF68C7449
:1025D000CFF6FE740CEA040747EA0E074160C761B4
:1025E000D168C16303624DE100F08280B1F5803FA4
:1025F00000F00E81B1F5801F40F04581016AA0F125
:10260000804521F480110162A5F59635046A036DB9
:10261000D2E900EC11694FEAB525072D0DD8012646
:1026200006FA05F515F0E50F1FBF4568966925F414
:10263000802545EA862518BF45600025CFF6E07560
:1026400024F4401405EA0151214348F6FF44CFF633
:10265000FF6404F54074234043EA0E230365D26807
:1026600041EA0C51C2640CE1016A21F001010162EE
:10267000036A4168D0F818C0146923F0030324F0FA
:1026800001042343A0F18044D2E900E5A4F5963487
:102690004FEAB424072C43EA05031AD8012505FAAA
:1026A00004F414F0E50F14D002F1140898E8600166
:1026B0006FF0040723F00C03946807EA85052B43A9
:1026C00043EA840321F4407126F40074214341EA73
:1026D00048014FF68C74CFF6FE740CEA040747EA03
:1026E0000E0741608761D16841630362CAE000BFA1
:1026F000016A41F6FF7621F480510162036A416864
:10270000D0F81CC0146923F440532403B44323437A
:10271000A0F18044D2E900E5A4F596344FEAB42450
:10272000072C43EA05331CD8012505FA04F414F0FC
:10273000E50F16D002F1140898E8600147F6FF771C
:10274000AD0323F440439468BD432B4343EA8433F1
:10275000B40148F23F0521F44041AC43214341EA32
:10276000C81148F6FF44CFF6FF640CEA040747EAB5
:102770000E274160C761D1680164036282E000BF37
:10278000016A6FF0100621F010010162036A4168CE
:10279000D0F818C0146923F0300306EA0414234368
:1027A000A0F18044D2E900E5A4F596344FEAB424C0
:1027B000072C43EA05131CD8012505FA04F414F08C
:1027C000E50F16D002F1140898E860016FF0400799
:1027D00023F0C003946807EA85152B4343EA84136A
:1027E000B40040F6030521F44061AC43214341EAC3
:1027F000C80148F6FF44CFF6FF640CEA040747EA35
:102800000E2741608761D168816303623AE000BFAF
:10281000016AA0F1804521F480310162A5F5963569
:10282000036AD0F850C0D2E900E114694FEAB52537
:10283000072D0DD8012606FA05F515F0E50F1FBF87
:102840004568966925F4803545EA062518BF456038
:102850000025CFF6E07505F5F01523F4403305EAC1
:102860000444234343EA01414FF68C73CFF6FE73D1
:10287000033303EA0C0343EA0E030365D268836C57
:102880008264016200231846BDE8F08170B50446F9
:102890000068C0071CBF012070BD0E46206846F6C8
:1028A000F311CEF6FF710840D6E9021CD6E90432D6
:1028B0000843F5691843104328432060606820F4FA
:1028C000405040EA0C006060B069A16821F440719A
:1028D0000843A06044F6FF30C4F2000084424FF089
:1028E000010011DC44F20041C4F200018C421DD011
:1028F00044F60001C4F200018C4244D13020FFF7BD
:1029000049FCE8B936E000BF44F60041C4F20001DA
:102910008C4211D043F60001C4F201018C4232D145
:102920000320FFF737FC58B924E000BF0C20FFF765
:1029300031FC28B91EE000BFC020FFF793FBC8B1EF
:102940007168B9B132680B2A1CD812A353F822203F
:10295000F369B0FBF2F0B3F5004F0DD1400000EB8E
:102960005100B0FBF1F04FF6F0710140C0F34200AE
:10297000084406E0012006E000EB5100B0FBF1F056
:1029800080B2E06000203188E26A22F00F02114339
:10299000E16270BD010000000200000004000000C0
:1029A00006000000080000000A0000000C00000003
:1029B0001000000020000000400000008000000027
:1029C000000100002DE9F04FA3B0E9464FF6C078B2
:1029D000082540F21C0A002648462C21C7F6FF783D
:1029E000C5F20005C4F2020A2196CDE91F66CDE9C1
:1029F0001D66CDE91B66CDE91966CDE91766CDE9FF
:102A00001566CDE91366CDE91166CDE90F66CDE90E
:102A10000D66CDE90B66FDF714FC41F24800C4F2E7
:102A20000200016C4FF0020B6BF31D7101644168F1
:102A3000032741F400514160416801F400512291A3
:102A40002299416841F001014160416801F00101B2
:102A500022912299016841F001010160016801F0B1
:102A6000010122912299016841F00401016000688E
:102A70000BA900F004002290229807200B904FF041
:102A800090400C970F96FFF77DFA1FA94FF0A040DA
:102A9000CDE91F662196FFF7A1F94FF44030CDE94B
:102AA000150605F53E7015A9FFF74CF94FF4A06027
:102AB000CDE9190B4FF480501E9019A94FF0A0409A
:102AC000CDE91B661D97FFF79DF96868012464F343
:102AD0008B206860A86A11A964F38A10A862A86AAA
:102AE0006BF31030A862A86A67F39640A862E868A2
:102AF00067F3C500E860E86867F38810E860E86895
:102B000067F34B20E8604FF0A040CDE9116BCDE9B1
:102B10001366FFF73FF9686C012164F34D20686488
:102B2000686C4A466BF3D3306864686C67F359503D
:102B30006864052009902020CDE9030680200590D7
:102B40004FF4807006904FF4806007904FF400506F
:102B50000A900620089005F13800009040F20C1011
:102B6000C2F2000024300190AAF11C000296FFF787
:102B7000C7F9DAF8000008F1604140F00400CAF833
:102B80000000DAF8000040F00200CAF80000DAF8AD
:102B9000000040F00800CAF800004EF20C40CEF2EF
:102BA00000000670286808402860286808F1704115
:102BB000084000F18050286040F21400C2F200008A
:102BC000006842F663518009C0F23E51A0FB01014A
:102BD0006FF0010000EA5110229000BF2298411EC0
:102BE000229160B12298411E229140B12298411E4B
:102BF000229120B12298411E00282291EED128680E
:102C00004FF6C071C3F6FF71084000F10040286024
:102C10002868B0F1FF3F0ADC2868B0F1FF3F06DC0E
:102C20002868B0F1FF3F02DC28680028F0D4DAF809
:102C3000000040F00100CAF800000120FEF724FA6D
:102C4000286800EA080040F0010028604FF0A0402A
:102C50000168C90709D10168C90704BF01685FEAB3
:102C6000C17102D10168C907F2D04FF0A040012123
:102C70000160286800EA080040F00400286023B0E2
:102C8000BDE8F08F2DE9F04F9FB00DF118084FF619
:102C9000C07940F2081640F2080B002740462C216C
:102CA000C7F6FF79C5F20006C4F2020B1D97CDE905
:102CB0001B77CDE91977CDE91777CDE91577CDE900
:102CC0001377CDE91177FDF7BCFA41F24800CDE961
:102CD0000477CDE90277CDE90077C4F20200016CF8
:102CE000022262F31D7101644168032441F4005122
:102CF0004160416801F400511E911E99416841F004
:102D000004014160416801F004011E911E990168AF
:102D100041F001010160016801F001011E911E995D
:102D2000016841F0040101600068694600F0040098
:102D30001E901E981F20009040F60000C4F6000070
:102D400001940497FFF71EF9A6F108051BA9284670
:102D5000CDE91B771D97FFF741F80420CDE9160751
:102D60004FF40050CDE918044FF4805A15A92846B5
:102D70001597CDF868A0FFF745F8D6F8B80043F6E8
:102D8000FF718843C6F8B800B06840F2034120F4F0
:102D90008030B060B0688843B06011A92846CDE9A2
:102DA0001377FEF7F7FFB06A062161F38A10B0626D
:102DB000F168052060F39441F160D6F8A81007226D
:102DC00021F04001C6F8A810B16A62F31031B16277
:102DD000F168082260F35751F160D6F8A81021F08D
:102DE0008001C6F8A810B16A62F39641B162F16839
:102DF000092260F31A61F160D6F8A81021F48071FD
:102E0000C6F8A810B16A62F31C61B162F16842466B
:102E100060F3DD61F160D6F8A81021F40071C6F806
:102E2000A810F16A60F30401F162F16860F3D13136
:102E3000F160D6F8A800002120F02000C6F8A80014
:102E400024200F902020CDE9090780200B904FF41B
:102E500080700C904FF480600D900A200E9006F167
:102E60003800069040F20C10C2F200005430079077
:102E7000ABF108000897CDF840A0FFF741F8DBF868
:102E80000000302140F00400CBF80000DBF8000027
:102E900040F00200CBF80000DBF8000040F0080032
:102EA000CBF800004EF20B40CEF2000001704EF263
:102EB0000010CEF200004FF400610160306809F1AB
:102EC000604108403060306809F17041084000F10D
:102ED0008050306030684FF6C071C3F6FF71084013
:102EE00000F10040306000BF3068B0F1FF3F0ADC05
:102EF0003068B0F1FF3F06DC3068B0F1FF3F02DC24
:102F000030680028F0D4DBF8000040F00100CBF876
:102F100000000120FEF7B8F8306800EA090040F030
:102F20000100306056F8080CC0070CD156F8080CA8
:102F3000C00704BF56F8080C5FEAC07003D156F80A
:102F4000080CC007EED0012046F8080C306800EAF3
:102F5000090040F0040030601FB0BDE8F08F0000B1
:102F600081B041F24800C4F20200016841F008015A
:102F70000160006800F008000090009801B0704700
:102F800070B58EB0002541F24C000C95CDE90A5584
:102F9000CDE90855CDE90655CDE90455CDE90255F1
:102FA000CDE90055C4F2020001686C4641F480315D
:102FB00001600168032601F480310D910D990168CB
:102FC00041F0010101600068214600F001000D9010
:102FD0000D98102000904FF0904001960495FEF758
:102FE000D1FF2020CDE900064FF090402146049506
:102FF000FEF7C8FF40F60004C5F20004E06B0121B3
:1030000020F40070E063CDE906550895CDE90A5536
:103010000C9506ADC0F2112120462A46FEF71CFF92
:103020002068F22120F002002060E06BC3F24251E0
:1030300020F48070E063E06B2A4620F00070E063CB
:103040002046FEF709FF206820F400302060E06B86
:1030500020F08070E063206840F00100206020686C
:1030600040F4803020600EB070BD000070B586B0B6
:1030700041F2583046F20041C2F20000C4F20001B1
:1030800000244FF48072C0E900140A210226C0E92E
:10309000022401250D220323C0E9051600F11C01BD
:1030A000058284744CC1C0E90A62C0E90C35C0E9EC
:1030B0000E44FEF77FFA002818BFFDF70BFF40F221
:1030C000FF70059041F25830C2F200006946CDE928
:1030D0000044CDE902650496FEF7CCF8002818BF3D
:1030E000FDF7F8FE40F23804C2F20004012000218E
:1030F000C4E9040141F2583008224FF40013C2F22F
:103100000000C4E90612C4E90811C4E90A312163C8
:10311000FEF746FC002818BFFDF7DCFE41F25830F0
:10312000C2F20000012100220025FDF7C1FF0028A6
:1031300018BFFDF7CFFE257006B070BD81B041F21B
:103140004800C4F20200016841F01001016000680B
:1031500000F010000090009801B070472DE9F04F8A
:1031600087B0002641F24C00CDE90466CDE9026645
:10317000CDE90066C4F20200016840F2004441F06B
:10318000200101600168C4F6000401F020010691ED
:1031900006990168012741F00401016001684FF0C0
:1031A000020B01F004010691069901684FF0040A30
:1031B00041F00101016001684FF4805801F0010104
:1031C0000691069901686D4641F0020101600068B0
:1031D0004FF4004100F00200069006984FF61840A8
:1031E000CFF6FF70A762C4F828B0C4F828A0C4F8CE
:1031F000288021504020A0628020A0624FF0030967
:1032000020462946CDE90077CDE902960496FEF7DF
:10321000B9FE20462946CDE900B7CDE902960496CD
:10322000FEF7B0FE20462946CDE900A7CDE902967B
:103230000496FEF7A7FE20462946CDE90087CDE992
:1032400002960496FEF79EFE4FF48070CDE90006CC
:103250004FF0904029460496FEF794FE4FF400701C
:10326000CDE900064FF0904029460496FEF78AFE0D
:103270004FF400408DE881024FF090402946CDE99F
:103280000366FEF77FFE40208DE881022046294636
:10329000CDE90366FEF776FE80208DE881022046A8
:1032A0002946CDE90366FEF76DFE07B0BDE8F08F55
:1032B0002DE9F04F91B00DF1180840462821FCF798
:1032C000C0FF002741F24C00CDE90477CDE9027739
:1032D000CDE90077C4F20200416940F2004541F4B3
:1032E000805141614169C4F6000501F4805110919B
:1032F000109901686E4641F00201016000684FF0CC
:10330000020900F0020010901098082000904FF081
:10331000030A052428463146CDF80490CDE902A7DA
:1033200004970594FEF72EFE4FF0200B28463146F9
:10333000CDE900B9CDE902A7CDE90474FEF722FE7C
:103340004FF4827007904FF47060CDE908070120B8
:103350000A904FF4007043F20404CDE90B0B0720F0
:10336000C4F201040F90201F41460697CDE90D7766
:10337000FFF70AF8206820F010002060206840F075
:103380000800206054F8040C40F0400044F8040C9D
:1033900011B0BDE8F08F00002DE9F04F91B00DF1B4
:1033A000180840462821FCF74CFF002741F24C004A
:1033B000CDE90477CDE90277CDE90077C4F20200C8
:1033C000C16840F2004541F48041C160C168C4F663
:1033D000000501F480411091109901686E4641F09A
:1033E0000201016000684FF0020900F00200109035
:1033F00010984FF4005000904FF0030A052428461F
:103400003146CDF80490CDE902A704970594FEF764
:10341000B9FD4FF480408DE801064FF0010B2846BE
:1034200031460397CDE904B4FEF7ACFD4FF40040FC
:103430008DE8010628463146CDE903770594FEF76D
:10344000A1FD4FF4827007904FF4706008A981E8E5
:1034500081084FF4007043F604040B902020C4F25E
:103460000004CDE90C07201F414606970E97FEF792
:103470008BFF206820F010002060206820F00800FA
:10348000206054F8040C40F0400044F8040C11B0E3
:10349000BDE8F08F10B586B000200490CDE90200A1
:1034A000CDE9000041F25800C4F20200016840F288
:1034B000004441F0020101600068C4F2000400F021
:1034C000020005900598A920ADF8000040F2E73011
:1034D000029069462046FEF7A3FF20684BF6F8717C
:1034E00020F080002060A068CFF6FE710840A06048
:1034F000E068202140F00100E0606FF001002061F1
:103500004EF21D40CEF2000001704EF20010CEF2DD
:1035100000004FF000510160206840F00100206081
:1035200006B010BD2DE9F04F95B0002641F24C0BCE
:103530001396CDE91166CDE90F66CDE90D66CDE9AB
:103540000B66CDE90966CDE90766CDE90566CDE9EB
:103550000366CDE90166C4F2020BDBF8140043F206
:10356000004440F40050CBF81400DBF81400C4F21F
:10357000010400F400501490149841F29900602561
:10358000CDE911060FA92046ADF83C6010951396C1
:10359000FEF746FF20684BF6F87120F080002060AF
:1035A000A068CFF6FE710840A060A06940F64C0705
:1035B00040F00800A0610795012007ADCDE90800A3
:1035C000204601212A46CDE90A76CDE90C660E9601
:1035D000FEF7B2FFA069102120F00400A061A069ED
:1035E0002A4640F40060A06120460A974FF0100A76
:1035F000FEF7A2FFA0694FF4807120F48060A06103
:10360000E0692A4640F00800E06120460A974FF43E
:103610008078FEF791FFE069702720F00400E061F8
:10362000E0694FF4805140F40060E06140F6E11041
:103630000A9020462A46CDE9077609964FF480592C
:10364000FEF77AFF206D4FF4803140F008002065CE
:1036500041F285000A9020462A46CDE90776099670
:10366000FEF76AFF206A4FF68F7140F480502062A7
:103670006FF010002061206ACFF6FF5140F48030D7
:1036800020626FF480302061606801AD08407030C6
:1036900060606068082161F317506060A0684FF4B3
:1036A000804120F08000A0604EF22E40CEF200005B
:1036B00080F800A04EF20410CEF200000160DBF8AA
:1036C000000040F6000440F00400CBF80000DBF8F6
:1036D0000000C4F6000400F0040014901498402088
:1036E0000190022002900320CDE9030604200690F9
:1036F000204629460596FEF745FC8020019020468D
:103700002946FEF73FFC20462946CDF80480FEF707
:1037100039FC4FF48060019020462946FEF732FCC8
:103720004FF40060019020462946FEF72BFC20460E
:103730002946CDF80490FEF725FC15B0BDE8F08FC2
:103740002DE9F04F8FB0002741F24C00CDE90C7706
:10375000CDE90A77CDE90877CDE90677CDE9047799
:10376000CDE90277CDE90077C4F20200C16B40F2E7
:10377000004521F03001C163C168C4F6000541F481
:103780008021C160C1686E4601F480210E910E99BE
:10379000016844F6000441F00201016000684FF046
:1037A000020800F002000E900E984FF48060009026
:1037B0004FF003094FF0010A4FF0070B284631463E
:1037C000C4F20004CDF80480CDE90297CDF810A032
:1037D000CDF814B0FEF7D6FB4FF400608DE801037E
:1037E00003A880E8800C28463146FEF7CBFB4AF25E
:1037F0002010C0F20700CDE907070C20CDE90B0728
:1038000006A920460697CDE909770D97FFF73EF800
:1038100044F60800C4F2000050E8001F21F06041A7
:1038200040E800125AB350E8001F21F0604140E820
:10383000001222B350E8001F21F0604140E800125E
:10384000EAB150E8001F21F0604140E80012002A70
:10385000E2D114E050E8001F21F0606140E800125E
:10386000AAB150E8001F21F0606140E8001272B177
:1038700050E8001F21F0606140E800123AB150E8C2
:10388000001F21F0606140E80012002AE2D12168A7
:1038900021F000512160616821F490416160A168CC
:1038A00021F02A01A160216841F001012160E16954
:1038B000890209D4E16989025CBFE1695FEA81217B
:1038C00002D4E1698902F2D54EF22741CEF200011D
:1038D00040220A704EF20411CEF2000180220A60EA
:1038E00054E8001F41F0200144E800125AB354E8A4
:1038F000001F41F0200144E8001222B354E8001FE9
:1039000041F0200144E80012EAB154E8001F41F000
:10391000200144E80012002AE2D114E050E8001F20
:1039200041F0010140E80012AAB150E8001F41F047
:10393000010140E8001272B150E8001F41F001019E
:1039400040E800123AB150E8001F41F0010140E8A0
:103950000012002AE2D10FB0BDE8F08FFEE70000B0
:10396000FEE700007047000070470000FEF71AB93C
:1039700080B582B042F20000C4F202000168042265
:1039800062F30301016000BF016801F00F01042927
:103990000ED0016801F00F01042909D0016801F07F
:1039A0000F01042904D0016801F00F010429EBD1B3
:1039B00047F28001C4F200010A6841F2080022F4D3
:1039C0008072C4F202000A6050F8081C41F4803191
:1039D00040F8081C50F8081C89030CD450F8081C47
:1039E00089035CBF50F8081C5FEA813103D450F8AA
:1039F000081C8903EED5416848F20C02CFF6FF128D
:103A0000114045F2235211434160416841F08071F9
:103A1000416050F8081C41F0807140F8081C50F8D3
:103A2000081C89010CD450F8081C89015CBF50F8AF
:103A3000081C5FEA811103D450F8081C8901EED5F7
:103A40000168082241F003010160016862F3071177
:103A5000016000BF016801F00C010C290ED0016863
:103A600001F00C010C2909D0016801F00C010C29AE
:103A700004D0016801F00C010C29EBD15521019112
:103A80000199A1B1019901390191019979B1019986
:103A900001390191019951B10199013901910199BE
:103AA00029B101990139019101990029EAD10168EF
:103AB00021F0F0010160016821F4E061016001681A
:103AC00021F4605101604FF68060C0F62120FEF7BE
:103AD000A1FC0F20FEF784F820B102B0BDE88040C1
:103AE000FDF7F8B902B080BD4EF68850CEF2000066
:103AF000016841F4700101607047000040F210401D
:103B0000C4F200000168C90735D06FF001010160FF
:103B100040F2EC00C2F200000168013101600121B5
:103B2000C17642680132642A426022BF00224260AC
:103B3000017681680131816003D200218160012119
:103B40004176C16801310529C16003D30021C160FC
:103B50000121817601690131016103D200210161F6
:103B60000121017741690131416128BF704700217E
:103B7000416101214177704743F21040C4F20100D6
:103B80000168C9060ED56FF01001016050F8100CE5
:103B9000C00648BF704780B500F0C2FB00F0EEFBE6
:103BA000BDE8804070470000B0B544F61C00C4F288
:103BB0000000016889062FD40168C9070AD101688D
:103BC00089075CBF01685FEA417103D40168090796
:103BD00058BFB0BD50F81C1CC90544BF012141604D
:103BE00050F8141CC9071CBF0221416050F8141C76
:103BF000C9071CBF0421416050F8141CC9071CBF31
:103C00000821416014A000F0BBFA40F26C00C2F23F
:103C1000000000210170B0BD806840F26C04C2F267
:103C20000004C2B221780A2A0AD10029F3D02178EF
:103C3000601C00254554217801F0DAF82570B0BDEC
:103C40003E2905D821784A1C214422704870B0BD15
:103C500000202070B0BD00BF554152542045727203
:103C60006F722100FEE700002DE9F04381B04FF6AE
:103C7000C079082540F21C08C7F6FF79C5F2000597
:103C8000C4F2020800F016FA6420FDF7FDF9D8F836
:103C900000004FF0A04120F00100C8F800002868A3
:103CA0004FF0400C00EA090010302860686C0027D3
:103CB00020F4FE70686400200023002410E000BFA0
:103CC000C1F800C0AA6FEE6F17FA82F7D5F880200E
:103CD000043014FA86F4B0F57A7F13FA82F37DD0BB
:103CE000C1F800C02E6806EA090646F008062E60F4
:103CF0000E6876060AD40E6876065CBF0E685FEA28
:103D0000466603D40E687606F2D500BFC1F800C03F
:103D1000AE6FEA6F17FA86F714FA82F4D5F88020AE
:103D2000C1F800C02E6813FA82F306EA090242F0D5
:103D300008022A600A6852060AD40A6852065CBF62
:103D40000A685FEA426203D40A685206F2D500BFED
:103D5000C1F800C0AA6FEE6F17FA82F7D5F880207D
:103D6000C1F800C014FA86F42E6813FA82F306EA4A
:103D7000090242F008022A600A6852060AD40A6858
:103D800052065CBF0A685FEA426203D40A685206C0
:103D9000F2D500BFC1F800C0AA6FEE6F17FA82F724
:103DA000D5F88020C1F800C014FA86F42E6813FA02
:103DB00082F306EA090242F008022A600A68520603
:103DC0003FF57EAF0A6852065CBF0A685FEA42624E
:103DD0003FF576AF0A685206F0D571E744F6D35046
:103DE000C1F26200A7FB0012A4FB0017A3FB0003B3
:103DF00040F204019009C2F200010880B80948802D
:103E000098098880C2F38F11C7F38F12C3F38F1301
:103E100009A000F0B5F9286800EA090040F00400A4
:103E20002860D8F8000040F00100C8F8000001B098
:103E3000BDE8F04300F004B94144433120437572BA
:103E400072656E74204F66667365742043616C6999
:103E50006272617465643A2049413D25642C2049B1
:103E6000423D25642C2049433D256400B5EE400ABF
:103E7000F1EE10FA1EDA9FED231A00BF30EE010AB0
:103E8000B5EE400AF1EE10FA14DA30EE010AB5EEA2
:103E9000400AF1EE10FA0DDA30EE010AB5EE400AF2
:103EA000F1EE10FA06DA30EE010AB5EE400AF1EE54
:103EB00010FAE3DB9FED131AB4EE410AF1EE10FAAB
:103EC0001FDB9FED112A0EE030EE020AB4EE410A2C
:103ED000F1EE10FAB8BF704730EE020AB4EE410AB4
:103EE000F1EE10FA0DDB30EE020AB4EE410AF1EE0B
:103EF00010FA06DB30EE020AB4EE410AF1EE10FAD7
:103F0000E2DA70470000B4430000B4C380B59FED0F
:103F1000441A9FED443A20EE011AB0EEC11ABDEEEC
:103F2000C12AB8EEC22A31EE421A21EE031ABDEEC2
:103F3000C12A12EE102A02F1800E6FF35F2246F2C0
:103F4000785CC0F6000C02EE102A6FF35F2E0CEBCB
:103F50008203B8EE422A0CEB8E0231EE421A92ED49
:103F6000002A92ED013A93ED004A93ED015A9FED3C
:103F70002E7A33EE426A74EE050A20EE877A76EEE8
:103F8000060A74EE041ADFED292A37EE607AF0EEA5
:103F9000080A75EE211A26EE206A61EEA21A21EEB9
:103FA000077A36EE216A36EE076A21EE066A24EEBB
:103FB000227A36EE476A21EE066A32EE066A81ED13
:103FC000006A35EE445A32EE036A26EE226A35EE76
:103FD000057A36EE476A32EE027A33EE073A25EE7C
:103FE000205A23EE223A21EE066A35EE433A33EEAA
:103FF000063A21EE033A22EE222A32EE032A21EE7D
:10400000021A34EE011AB5EE400AB1EE412AF1EE81
:1040100010FAB8BFB0EE421A80ED001A80BD00BFA2
:10402000610B363B00000044DB0F49BCDB0F493C11
:1040300043F23443C4F20103186059609A60704738
:1040400043F22040C4F2010050F8081C41F008017E
:1040500040F8081C50F8081C41F4006140F8081CA6
:1040600050F8041C41F0080140F8041C50F8201CD2
:1040700041F0010140F8201C016841F0010101609C
:10408000016841F010010160016841F48071016034
:10409000016841F004010160016841F040010160E4
:1040A000016841F480610160416A41F4004141626C
:1040B0007047000043F22040C4F20100416A21F43D
:1040C00000414162016821F001010160016821F0B5
:1040D00010010160016821F480710160016821F024
:1040E00004010160016821F040010160016821F4D0
:1040F0008061016050F8201C21F0010140F8201C73
:1041000050F8081C21F0080140F8081C50F8081C61
:1041100021F4006140F8081C50F8041C21F008014B
:1041200040F8041C7047000090ED000A90ED011A61
:104130009FED0F3A9FED0F4A90ED022A21EE035AB0
:1041400020EE040A30EE050A22EE033A33EE000AAE
:104150009FED093A9FED094A22EE032A21EE041A47
:1041600031EE021A81ED020A81ED031A704700BF99
:10417000ABAAAABEABAA2A3F3ACD13BF3ACD133F92
:1041800083B070B581B040F28C16044605A8C2F227
:1041900000060EC005AB30464FF400712246009376
:1041A00001F0AAF8002800F0708044F61C01B0F578
:1041B000FE7F88BF40F2FD1040F60D22C4F20001E0
:1041C0003252023000223254B35C4FF6F0740D6864
:1041D0002D0635D40D682D0634D40D682D0633D444
:1041E0000D682D0632D40D682D0631D40D682D06CC
:1041F00030D40D682D062FD40D682D062ED40D68F1
:104200002D062DD40D682D062CD40D682D062BD42B
:104210000D682D062AD40D682D0629D40D682D06AB
:1042200028D40D682D0627D40D682D0626D4103C01
:1042300014F11005CBD1CB6001328242C4D124E00D
:104240000F341BE00E3419E00D3417E00C3415E088
:104250000B3413E00A3411E009340FE008340DE0A8
:1042600007340BE0063409E0053407E0043405E0C8
:10427000033403E0023401E0013400BF002C18BF16
:10428000CB60013282427FF49FAF01B0BDE8704045
:1042900003B070479FED021A20EE010A704700BF7D
:1042A00035FA8E3C10B543F6FD7000F0D5F84FF6A8
:1042B000FF71884210D00BA2C1B204461046FFF72E
:1042C0005FFFE00509A00BA158BF01460BA0FFF757
:1042D00057FF012010BD00BF0AA0FFF751FF0120CA
:1042E00010BD00BF4147433A202564006661696CF8
:1042F0000000000073756363657373004F43463AB3
:10430000202573005B4552524F525D2072656164F7
:104310002064696167206661696C65642100000042
:1043200010B543F6FF7000F097F840F2B0044FF676
:10433000FF71C2F200048842208417D000EE100AF8
:104340009FED0C1AB8EE400A9FED0B2A20EE010AF1
:1043500030EE020AB2EE061A84ED090A20EE010AD6
:10436000FFF784FD84ED0B0A10BD00BFBFEE000A0D
:1043700010BD00BFD002B43C52B8D64010B540F2D8
:10438000B004C2F2000494ED011A94ED090A9FED05
:104390002A2A30EE411AB4EE421AF1EE10FA03DD89
:1043A0009FED282A09E000BF9FED242AB4EE421AAF
:1043B000F1EE10FA03DA9FED222A31EE021A94EDA3
:1043C0000A2A207F32EE411A84ED0A1A84ED010A8E
:1043D000C0B194ED060A9FED1C2A94ED053A20EE3B
:1043E000022A32EE032A9FED193A31EE424A24EEB8
:1043F000031A9FED173A31EE021A24EE032A32EE29
:10440000000A03E001209FED130A207784ED051ACE
:10441000B2EE061A84ED060A84ED0D0A20EE010ABA
:10442000FFF738FF94ED0A1AB0EE402AB0EE410AC9
:1044300084ED0C2A10BD00BF00003443000034C3DB
:104440000000B4430000B4C317B75138FDAD003DC0
:10445000E6E99D40000000002DE9F04F40F2184EC3
:1044600043F60803C4F6000E0026C4F200034FF022
:10447000010C4FF4805A4FF4404807E001204A04F1
:104480004FF00106CEF800A040F1C880C7B2BC08CA
:1044900084EA570484EAD70484EA171484EA571498
:1044A00084EA97148CEAD717C0F30025C0F34022A2
:1044B0007D4084EA000BC0F380246A40B146014687
:1044C00086B2C0F3C0206240504080EA163080EAD5
:1044D000563080EA0B006FF39F31C003CEF810A076
:1044E0001A6892070AD41A6892075CBF1A685FEAD2
:1044F000827203D41A689207F2D500BF084340F4D1
:10450000804098801868C0070AD11868C00704BFA7
:1045100018685FEAC07003D11868C007F2D000BF06
:1045200058681868000609D51868000644BF18685E
:104530005FEA006002D518680006F2D4CEF800A049
:1045400000BF00BF00BF00BF00BF00BF00BF00BF73
:1045500000BF00BF00BF00BF00BF00BF00BF00BF63
:1045600000BF00BF00BF00BF00BF00BF00BF00BF53
:1045700000BF00BF00BF00BF00BF00BF00BF00BF43
:1045800000BF00BF00BF00BF00BF00BF00BF00BF33
:1045900000BF00BF00BF00BF00BF00BF00BF00BF23
:1045A00000BF00BF00BF00BF00BF00BF00BF00BF13
:1045B00000BF00BF00BF00BFCEF810A01868800782
:1045C0000AD4186880075CBF18685FEA807003D45B
:1045D00018688007F2D500BFA3F804801868C007E8
:1045E0000AD11868C00704BF18685FEAC07003D119
:1045F0001868C007F2D000BF5968186800067FF538
:104600003DAF1868000644BF18685FEA00607FF598
:1046100035AF18680006F0D430E700BF6FF39F3164
:104620005FEAC97018BF4FF6FF710846BDE8F08F0A
:10463000B0B52DED028B40F2943440F2D005C2F2B9
:104640000004C2F2000594ED080AD5ED020A00F05C
:104650003FF995ED021AB0EE408AB0EE410AFFF73D
:1046600019FE9FED081A30EE010A01F057F89FED90
:10467000061A20EE010A38EE000A84ED030ABDECAA
:10468000028BB0BDFD97593F3333334080B500F006
:1046900023FA40F28C31C2F200010279086040F244
:1046A0009431C2F200011AB102680A62002202715A
:1046B000027B1AB18268CA6100220273027D002A5D
:1046C0001CBF00220275027F002A08BF80BD8269DC
:1046D000CA600021017780BD70B52DED068B82B0D8
:1046E00040F2741440F22410C2F20004C2F200003E
:1046F0002146FFF719FD40F2D006C2F2000696ED02
:10470000030A40F29435C2F2000501A8694685ED1E
:10471000040AFFF7FBFB9DED010ADDED000A2046D0
:10472000294600F04FFB96ED041A9FED280A95EDFF
:104730000B3A21EE002AD5ED0A0A22EE039A9FEDEC
:10474000242A9FED243A95ED020A20EE822A32EEC9
:10475000032A21EE02AA00F057F895ED031AD5EDD1
:104760000B0AB0EE408AB0EE410A00F077F83AEE5C
:10477000002A9DED010ADDED000A38EE091A2846EF
:10478000214685ED001A85ED012A00F0ABF920469F
:1047900000F002FD40F24C1141F28C45C2F20001E2
:1047A000C2F2000591ED030A28732046294600F065
:1047B000D5FB284600F074FCE889298A6A8AFFF74D
:1047C00037FC02B0BDEC068B70BD00BF41D73EB9CF
:1047D000EE96E4384698223B41F2BC30C2F200002B
:1047E000002180ED000A80ED011AC0ED041AC160BD
:1047F00041F2E830C2F20000C0EC020AC0ED041A37
:10480000C16070477047000041F2BC30C2F2000046
:1048100090ED013A30EE600A90ED034A90ED042AE3
:1048200023EE003A33EE043A90ED001AB4EE423A29
:10483000F1EE10FA80ED033A06DCB1EE422AB4EE56
:10484000423AF1EE10FA03DAB0EE423A80ED032A72
:1048500020EE010A30EE030A7047000041F2E83012
:10486000C2F2000090ED013A30EE600A90ED034A8A
:1048700090ED042A23EE003A33EE043A90ED001A4C
:10488000B4EE423AF1EE10FA80ED033A06DCB1EEF6
:10489000422AB4EE423AF1EE10FA03DAB0EE423AAE
:1048A00080ED032A20EE010A30EE030A7047000073
:1048B00041F23440C2F20000002180EC030AC0ED56
:1048C000041AC1604161C0E90711416270470000EC
:1048D00041F23440C2F2000080ED080A30EE601A66
:1048E0009FED2C0AB0EEC12AB7EE004A22EE003A44
:1048F000B4EE442AC0ED090AF1EE10FAB8BFB0EEEA
:10490000430AB2EE002A9FED243A21EE022AB4EEC9
:10491000432AF1EE10FA80ED020A80ED0A2A06DC45
:104920009FED1E3AB4EE432AF1EE10FA03DAB0EE30
:10493000432A80ED0A3A40F2D001C2F2000191ED23
:10494000053A80ED051A32EE432A20EE020A90ED78
:10495000002A90ED033A21EE022A32EE032A30EECD
:10496000020A80ED061AB1EE001AB4EE410AF1EE29
:1049700010FA80ED070A07DCB9EE001AB4EE410A1E
:10498000F1EE10FAA8BF7047B0EE410A80ED071AA9
:10499000704700BF8FC2F53C00001644000016C4EB
:1049A00041F26040C2F20000002180EC020A80ED7A
:1049B000041AC1607047000080B52DED048B40F2F1
:1049C0009430C2F200004FF04041C16149F69A11A3
:1049D000C3F6197100229FED238A41F6B863C0E93E
:1049E000002100219FED1C0ADFED1C0A9FED1C1A1F
:1049F000C3F60563CCF25421F0EE481AC0E9022355
:104A00000162FFF7E9FE9FED199A9FED170AF0EE9C
:104A1000490AB0EE481AFFF7C3FF9FED151AB6EE2C
:104A2000000AF0EE490AF0EE401AFFF741FF00F0ED
:104A300029F840F24C10C2F20000C068FBF745FDB7
:104A400002460CA00B46FFF79BFBBDEC048BBDE8B8
:104A50008040FFF709B900BFD3063A3F814E9B3F24
:104A6000C7BDE63DCDCC4C3EA69BC43B000000003C
:104A70008FC2F53C566275733A20252E3266205659
:104A80000000000040F20C10C2F20000818A9FED8D
:104A9000101A00EE101A0178B8EE400A20EE010A52
:104AA00071B190ED011A9FED0B2A30EE410A20EE14
:104AB000020A30EE010A80ED010A80ED130A704708
:104AC0000121017080ED010A80ED130A704700BFDB
:104AD000873B053CCDCCCC3D41F21440C2F20000F6
:104AE0007047000090ED011A90ED002A21EE003A87
:104AF00022EE204A21EE201A22EE000A34EE433A3A
:104B000030EE010A81ED003A81ED010A70470000A4
:104B1000FCF798FA40F2180640F2041740F24C1BDA
:104B200040F2241440F2D009C2F20006C2F200079B
:104B3000C2F2000B0225C2F200044FF00108B2EEEF
:104B4000048AC2F200094FF0000A06E0307801281A
:104B50004FF00600707008BF35703078032800F2FF
:104B60006180DFE800F0033F293B00BFFFF79AFBBD
:104B700040F29038C2F2000888F80000FFF71CFFEE
:104B800098F800004FF4805100281CBF40F20250FA
:104B900030804EF20010CEF20000016043F20C4172
:104BA000C4F2010108684FF0010840F010000860ED
:104BB00086F8008036E000BFFFF77CFA717807299D
:104BC00028D85FA0DFE801F02C042A1A182224203C
:104BD00046F6A850C0F6000020E000BF56A0FFF740
:104BE000CFFA1FE0FFF752FD3879D8B187F804A05B
:104BF000FFF71EFD16E000BF65A00FE046F67C50F3
:104C0000C0F600000AE000BF5AA007E067A005E078
:104C100051A003E046F69250C0F60000FFF7B0FA4C
:104C200003203070387818B187F800A0FFF72AFF0A
:104C3000787818B187F801A000F0E4FAB87818B1D4
:104C400087F802A000F004FBF87838B187F803A0D9
:104C5000FFF7D8FDFCF7A8F9FCF748F99BED030A2C
:104C600096ED021AB4EE410AF1EE10FA04DD307846
:104C70007570012808BF357096ED031AB4EE410A2D
:104C8000F1EE10FA06DA307801284FF00300707068
:104C900008BF357094ED000A96ED043A94ED011AC0
:104CA00094ED022AB4EE430AF1EE10FA09DCB4EEF8
:104CB000431AF1EE10FA04DCB4EE432AF1EE10FAD6
:104CC00005DD307886F80180012808BF35709BED3E
:104CD000043A96ED014AB4EE443AF1EE10FA06DDDC
:104CE000307801284FF00400707008BF357030EE46
:104CF000010A30EE020AB0EEC00AB4EE480AF1EE44
:104D000010FA06DD307801284FF00700707008BFF8
:104D1000357099ED020A96ED051AB4EE410AF1EEEE
:104D200010FA3FF713AF96ED061AB4EE410AF1EE12
:104D300010FABFF612AF09E75B4552524F525D00C1
:104D40005B4552524F525D204F5645525F564F4C75
:104D500054414745000000005B4552524F525D20D0
:104D6000454E434F4445525F414E474C455F455287
:104D7000524F52005B4552524F525D20495F5341A2
:104D80004D504C494E475F4552524F520000000073
:104D90005B4552524F525D204F5645525F54454D30
:104DA0005045524154555245000000005B45525257
:104DB0004F525D20454E434F4445525F4552524F3E
:104DC0005200000090ED031A90ED022A21EE003A05
:104DD00022EE204A21EE201A22EE000A34EE033A97
:104DE00031EE400A81ED0A3A81ED0B0A704700006E
:104DF000F0B581B04AA10446FBF72EFA80B100F16C
:104E000010056946284600F051FD0098A84207D0D9
:104E100041F21440C2F20000012180ED000A01714C
:104E200044A12046FBF718FA80B100F10D05694650
:104E3000284600F03BFD0098A84207D041F21440FC
:104E4000C2F20000012180ED020A01733DA120465B
:104E5000FBF702FA80B100F10A056946284600F026
:104E600025FD0098A84207D041F21440C2F200008C
:104E7000012180ED040A017535A12046FBF7ECF90C
:104E800080B100F109056946284600F00FFD009841
:104E9000A84207D041F21440C2F20000012180ED87
:104EA000060A017720784D2832D1607849282FD121
:104EB000A07854282CD1E0783A2829D1A088FBF793
:104EC000F3FA9FED150B55EC106B32462B46FBF7B2
:104ED0007CFAFBF70DFBE18807460846FBF7E4FA8E
:104EE00032462B46FBF771FAFBF702FB2189044699
:104EF0000846FBF7D9FA32462B46FBF766FAFBF772
:104F0000F7FA40F29431C2F20001C1E90E7408646C
:104F100001B0F0BD00BF00BF000000000088C3402A
:104F20007461726765745F706F736974696F6E3AEC
:104F3000000000007461726765745F73706565647A
:104F40003A00000063757272656E745F713A00001A
:104F50007461726765745F713A00000090ED011A28
:104F600090ED002A9FED475A21EE013A22EE024AC7
:104F700034EE033A20EE054A24EE045AB4EE453AE4
:104F8000F1EE10FA12DD9FED405AB4EE453AF1EE23
:104F900010FA0BDDB1EEC33A84EE033A22EE032A97
:104FA00021EE031A80ED002A80ED011A087B0138FA
:104FB00005284DD89FED353A9FED354A83EE000A1E
:104FC000B6EE003A9FED336A20EE035A20EE013A26
:104FD00022EE040A30EE010A25EE004A22EE060A0D
:104FE00030EE010A25EE001ADFE800F00424141C5C
:104FF0000C2A00BFB1EE411A81ED011AB0EE430A4E
:105000002CE000BFB1EE410AB1EE441A81ED011A65
:1050100024E000BF81ED013AB1EE440AB0EE431A3C
:105020001CE000BFB0EE410AB1EE431A81ED011A57
:1050300014E000BF81ED011AB0EE440A0EE000BF9B
:1050400081ED014AB1EE430AB0EE441A06E000BF1A
:105050009FED110A0020B0EE401A48609FED0F2A24
:1050600081ED020A32EE411A31EE400AB5EE400AF5
:105070009FED091AF1EE10FAB8BFB0EE410A81EDCA
:10508000000A70473ACD133FCCBC8C2B629EB538DA
:10509000D7B3DD3FD7B3DDBF0000000017B75138ED
:1050A000017B90ED000AB6EE001A0139052920EEC9
:1050B000010A53D8DFE801F004361E2A104400BF6D
:1050C00090ED011A90ED023A30EE014A30EE032ADB
:1050D000B0EE401A3EE000BF90ED011A90ED023AAA
:1050E00030EE011AB0EE402A30EE030A33EE011A18
:1050F00038E000BF90ED011A90ED023A30EE011A4F
:1051000031EE032A30EE031A2CE000BF90ED013A95
:1051100090ED021A30EE033A30EE012A31EE031A16
:1051200020E000BF90ED011A90ED022A30EE013A26
:10513000B0EE401A30EE020A32EE032A12E000BF4F
:1051400090ED011A90ED023A30EE014A30EE031A6A
:10515000B0EE402A34EE030A04E000BFB0EE401A7D
:10516000B0EE402A9FED0B3A20EE030ABDEEC00AD6
:1051700010EE101A22EE030ABDEEC00AC18110EE35
:10518000101A21EE030ABDEEC00A018210EE101AB9
:10519000418270472416A24C90ED000A9FED141A2C
:1051A0009FED143A90ED012A20EE011A20EE030A39
:1051B0009FED113A31EE421A0020B4EE432A30EE50
:1051C000420AF1EE10FAC8BF0120B4EE431AF1EE24
:1051D00010FAC8BF0230B4EE430AF1EE10FAC8BFAD
:1051E0000430013805288EBFFF2004A1085C7047F9
:1051F000D7B3DD3FD7B3DDBFBD3786350206010427
:105200000305000040F20C10C2F20000C1899FEDBE
:105210000E1A00EE101A018AB8EE400A02EE101AB9
:10522000418AB8EE422A03EE101AB8EE433A20EE55
:10523000010A22EE012A23EE011A80ED100A80ED08
:10524000112A80ED121A7047873B053C00000000D0
:1052500010B540F20C14C2F20004E08A9FED221A4D
:1052600000EE100AB8EE400A9FED202A20EE010A57
:1052700080EE020A9FED1E2A20EE023A31EE400A2D
:1052800083EE000A80EE020A10EE100AFBF71DF909
:1052900041EC100B00F060F851EC100B9FED0E0B81
:1052A00053EC102BFBF791F89FED0D0B53EC102BEB
:1052B000FAF7E4FFFBF71CF900EE100AB7EE001A4C
:1052C00081EE000A9FED0B1A30EE010A84ED140AFC
:1052D00010BD00BF00BF00BF000000000068AA4072
:1052E000000000E0E1796B3F3333534000F07F452D
:1052F00000401C46339388C37CB50C001D461646FF
:10530000014601D0601E00E00020CDE90010064BF0
:105310006A462946304600F029FD002C02D0009A4A
:10532000002111707CBD00009B6400084100080250
:1053300018BF04200A0E18BF40F001004FF07F4252
:1053400032EA010108BF40F00200012808BF052031
:10535000704700000000000070B5D94B00242DED0F
:10536000020B2DED108BDDE91010984205DA20F0CC
:1053700000429A4201D809D141B19DED100BBDEC1C
:10538000108B02B0BDE8704000F036BBB0F5801F56
:1053900026DA11430BD0002813DA012000F016FCA6
:1053A000BDEC108B02B0BDE8704000F031BB0220B4
:1053B00000F00CFC00F008FB51EC100B81F00041F8
:1053C0009EE06FF035049FEDC00B53EC102B9DED6C
:1053D000100B51EC100BFBF7A7F9CDE910010846B3
:1053E00004EB2051C0F31304B948A1F2FF3120446B
:1053F00000F4801080F07F6282F04052224301EB83
:1054000020559FEDB50B119253EC102B9DED100B19
:1054100051EC100BFAF7D3FF41EC180BA01CC0F3B2
:1054200013009FEDAFDB9FEDB0EBB14E7E44032840
:105430006CD296ED000B51EC180B53EC102BFBF7D4
:10544000FDF91DD1002D01BF96ED000BBDEC108BB9
:1054500002B070BD2846FBF727F841EC180B53EC5F
:105460001D2BFBF761F941EC190B53EC1E2B51EC92
:10547000180BFBF759F953EC192BFAF7FFFE3FE035
:105480009FED9D0B51EC180B53EC102BFBF74CF9D7
:105490009FED9B1B53EC112BFAF794FF41EC190B7A
:1054A00053EC182B51EC180BFBF73EF953EC192B6E
:1054B000FBF73AF941EC190B002D04BF53EC192B03
:1054C00051EC180B1AD02846FAF7EEFF41EC1A0BF4
:1054D00053EC1D2BFBF728F953EC192BFAF772FF4D
:1054E00053EC182BFAF76BFF41EC180B53EC1E2B07
:1054F00051EC1A0BFBF718F953EC182BFAF75FFF76
:10550000BDEC108B02B041EC100B70BD9FED7E0B1B
:1055100051EC180B53EC102BFAF7B0FE41EC100BCA
:1055200051EC180B53EC102BFAF74FFF41EC190B11
:105530002846FAF7B9FF41EC1B0B53EC192B51EC41
:10554000190BFBF7F1F841EC1A0B714853EC1A2BCD
:10555000261851EC1A0BFBF7E7F841EC1F0B6D48CE
:10556000C4F1510404F5D724B0EE4F0AF0EE6F0AEF
:105570000321784400F0AAF953EC1F2B51EC100BD7
:10558000FBF7D2F841EC1C0B6348B0EE4F0AF0EE8B
:105590006F0A0421784400F099F953EC1A2B51EC6E
:1055A000100BFBF7C1F8344353EC1C2BFAF766FEE3
:1055B00041EC1C0B002C4CDD9FED510B51EC180BFA
:1055C00053EC102BFBF7B0F853EC182BFBF7ACF8AF
:1055D00041EC1A0B55B353EC1D2B51EC1B0BFBF795
:1055E000A3F841EC1D0B53EC1C2B51EC1A0BFAF7F2
:1055F00045FE53EC192BFBF797F853EC1D2BFAF7EC
:105600003DFE53EC1A2BFAF7DDFE53EC182BFAF79C
:10561000D6FE41EC180B53EC1E2B51EC1B0BFBF789
:1056200083F853EC182BFAF7CAFE69E753EC1C2BEE
:1056300051EC1A0BFAF722FE53EC192BFBF774F816
:1056400053EC1A2BFAF7BEFE53EC182BFAF7BAFEFE
:1056500056E735B353EC1D2B51EC1B0BFBF764F8ED
:1056600041EC1A0B53EC1C2B51EC180BFAF7A7FE6C
:1056700053EC192BFBF758F853EC1A2BFAF79FFE53
:1056800053EC182BFAF79BFE41EC180B53EC1E2B36
:1056900051EC1B0BFBF748F853EC182BFAF78FFE75
:1056A0002EE753EC1C2B51EC180BFAF788FE53EC49
:1056B000192BFBF739F853EC182BFAF783FE1FE789
:1056C0000000F07F000000000000000000005043D8
:1056D000645F090000000000000000000000F03FCF
:1056E000763C7935EF39EA3D0000E0FE422EE63F98
:1056F000B810000000000000555555555555D53FD0
:10570000000000000000E03F00000000000000403A
:1057100086EBF9FF3A0F0000300F000000B510EEE5
:10572000101A2DED028B81B0524A6846B2EB410F40
:105730002ED94FF0E640B0EB410F94BF00204FF060
:10574000FF3000900098B0EE408A00286ADB10F02D
:10575000010F4BD068EE080A9FED471A9FED470AEC
:1057600000EE810A9FED461A10F0020F00EE801A3B
:10577000B7EE000A00EE810A02BF01B0BDEC028B59
:1057800000BD00BF01B0B1EE400ABDEC028B00BD10
:105790003C4B21F00042934241D911F0004FDFED24
:1057A0003A0A20EE201ADFED390A19BF31EE601AED
:1057B00071EE200A31EE201A71EE600ABDEEE01A99
:1057C00011EE100A9FED321A00F0030000EEC10A3C
:1057D0009FED301A009000EEC10A9FED2F1A00EEE7
:1057E000C10A9FED2E1A00EEC10AABE728EE080AA7
:1057F0009FED2B1ADFED2B0A10F0020F40EE010A8D
:105800009FED291A00EE201A61EE000AB0EE480A58
:1058100008EE200AB6D101B0BDEC028B00BD00F04D
:105820001BF98FE718EE100A4000B0F17F4F0DD240
:1058300018EE100AFFF77AFD042808BF00F004F9FB
:10584000B0EE480A01B0BDEC028B00BD09D10120C9
:1058500000F0BCF901B0BDEC028B5DF804EB00F088
:10586000EBB801B0B0EE480ABDEC028B5DF804EB7A
:1058700000F0DEB8B61F927EB93AB2BACA9F2A3D8E
:10588000DDFFFFBE490E494683F9223F0000004B71
:105890000000C93F00A0FD390020A2331A61342C5A
:1058A000336D4CB9DA82083CA0AA2ABE08B59FED38
:1058B000060A0A4601468DED000A6846FAF79CFE84
:1058C0009DED000A08BD00000000000070B5044610
:1058D0002DED028B4D1E00EBC500B0EE408AF0EEC0
:1058E000608A90ED000B35F0060017D053EC182BB2
:1058F00051EC100BFAF718FF41EC100B6D1E04EB86
:10590000C50090ED001B51EC100B53EC112BFAF776
:10591000B5FC41EC100B35F00600E7D1022D36D076
:10592000042D1CD0062D1CBFBDEC028B70BD53ECAA
:10593000182B51EC100BFAF7F7FE94ED0A1B53EC01
:10594000112BFAF79BFC53EC182BFAF7EDFE94EDB4
:10595000081B53EC112BFAF791FC41EC100B53ECA4
:10596000182B51EC100BFAF7DFFE94ED061B53ECED
:10597000112BFAF783FC53EC182BFAF7D5FE94EDB4
:10598000040B53EC102BFAF779FC41EC100B53ECA1
:10599000182B51EC100BFAF7C7FE94ED021B53ECD9
:1059A000112BFAF76BFC53EC182BFAF7BDFE94EDB4
:1059B000001B53EC112BFAF761FCBDEC028B41ECA0
:1059C000100B70BD000000009FED070B10B553ECED
:1059D000102B9FED070B51EC100BFAF7F6FC41EC86
:1059E000100B10BD000000000000000000000000CF
:1059F000000000000000F03F10B553EC102B51ECFC
:105A0000100BFAF73BFC41EC100B10BD000000003E
:105A10009FED050B10B553EC102B51EC100BFAF762
:105A2000D4FC41EC100B10BD000000000000000091
:105A300030EE000A70470000DFED020A80EEA00A97
:105A400070470000000000009FED020A20EE000AEF
:105A500070470000000000102DE9F0014FF07F4278
:105A6000B2EB410F9FBF4FF0FF310160BDE8F00185
:105A700070474FF0004242EA0123C1F3C752783A1F
:105A8000551112F01F0C434CCCF120067C44C1F39D
:105A9000C752A2F178024FEA621204EB820254F874
:105AA000254008BFD2E9015612D0556804FA0CF41B
:105AB00025FA06F73C43976805FA0CF527FA06F82D
:105AC000D26807FA0CFCF24045EA08054CEA0206E7
:105AD000A4FB034CA5FB0352A6FB03631D449D429C
